:060000000A128A11122809
:10000800FE00030EF2000408F3000A08F40083124D
:1000180003137F08F5000A128A1196280A128A111A
:100028008F2983120313B30033082C3E84008313F3
:100038008008031D202821284D28952895284D281B
:100048008801C030870081288801F930870081281D
:100058008801A430870081288801B0308700812872
:10006800880199308700812888019230870081288B
:1000780088018230870081288801F830870081282C
:100088008801803087008128880190308700812886
:1000980081283208003A03192428013A031928282C
:1000A800033A03192C28013A03193028073A03198F
:1000B8003428013A03193828033A03193C28013A2D
:1000C800031940280F3A03194428013A031948280C
:1000D80081288128013088009528023088009528D9
:1000E800043088009528083088009528103088004A
:1000F800952820308800952895283308003A031958
:100108006E28013A03197128033A03197428013A31
:1001180003197728073A03197A28013A03197D2821
:10012800952808000C1C99289A289B280C100B1C51
:100138009E289F28FE28861AA228A328FC28230880
:10014800F0007008A5002908F0007008AB0022082C
:10015800F0007008A4002808F0007008AA00210820
:10016800F0007008A3002708F0007008A900200814
:10017800F0007008A2002608F0007008A800050822
:100188000F39013EF0007008A0000A302002031C5D
:10019800CE28CF28D5280A30A002A1010314A10D2A
:1001A800D728A101D7280A30A600F0007008A700B8
:1001B8008516CC30F0006400F00BDF28E3288312AA
:1001C800031385120630F1005030F000F00BEA28D6
:1001D800F10BEA286400831203138516CC30F00073
:1001E8006400F00BF428F828831203138512FC2806
:1001F8000B10FE287508FF0074088A007308840035
:10020800720E8300FE0E7E0E0900831603131F1064
:100218009F141F159F118B158B12831203139015B2
:100228009016101690101014831603130C140B1349
:100238008B17F7010F3083120313B20032088316AD
:1002480003138504DF3083120313B20032088316C8
:10025800031385058312031385128316031387017D
:10026800C0308800831203138801A001A101031480
:10027800A10D0230B2003208A2000330B2003208E9
:10028800A3000430B2003208A4000530B2003208DE
:10029800A5000030B100B000AF00AE00AD00B20064
:1002A8003208AC00F601080083120313B5010630CA
:1002B8003502031C6029612963297E297E293508B6
:1002C800203E840083130008B4003408B2003508C7
:1002D8000A128A1115200A128A1101308312031397
:1002E800B4003408B50706303502031C7C297D2983
:1002F80063297E2908000A128A1109210A128A1123
:1003080085290A128A1158210A128A1185298529F4
:100318000A128A111228F601F7018313203084008B
:1003280032300A128A119E210A128A1183010A1296
:100338008A117F2964008001840A040603190034A5
:0403480004069F29DF
:02400E00FADED8
:00000001FF
