:020000040000FA
:1000000085018316EC308500FF23900005308100C8
:100010009516151596168312073099008B1520300A
:100020008400DF008001840ADF08031D1228862077
:10003000B33081000B110A30BF006F20031D22284E
:10004000B50A1D2840210319272802212228480823
:100050003502031C022148083406031931286F2099
:100060002B285120491C9320FF303628AE0F4728FB
:10007000AE0A4C08AA002A0F05104D08AB002B0F42
:1000800085104E08AC002C0F05120B195621AA0A38
:1000900003190514AB0A03198514AC0A03190516D4
:1000A00036286B20B600013E0319662836308400DE
:1000B000840AB20A0319B30A6B2080003A3004069E
:1000C000031D5828B20A0319B30A08003008B20009
:1000D0003108B300512833088A00320882008F208B
:1000E000013E031978280530B0070318B10A6F28BC
:1000F000B40AB00A0319B10A8F20013E03198628F9
:100100003008B2003108B30003010800B401013027
:10011000B100B300CD30B000B200FF3808003108A4
:100120008A00300882003708C0003608BE00031D70
:10013000A1283808CC003908CD003A08CE00AD011E
:1001400008001330AD000130A000A100A2004C084F
:1001500038020318AE28A003A003003CA3004D08FA
:1001600039020318B628A103A103003CA4004E08DD
:100170003A020318BE28A203A203003CA5002308EC
:1001800024020318CA282308250225080318CF28AB
:100190002308CF28240825022508031C2408003C36
:1001A000A900A600A700A80008000130CA00092184
:1001B0002F088500851EDA280F30E92005080B106E
:1001C000630000005A30E920851ADA28851EE628E7
:1001D000002881010B110B1DEB28FF3E031DE928B0
:1001E000080083169A009B0A1C1555309D00AA3002
:1001F0009D009C148312080083169B0A1C141A0885
:1002000083120800CA0AC801B401C901CC01CD019A
:10021000CE010E21CA08031D092908004A08031946
:100220000800FF3E0319222983161C088312023995
:10023000031D08000008F120840A0408473A031946
:10024000CA0108003408C100C6004C08C200C60735
:100250004D08C300C6074E08C400C6074908C500BC
:100260004607003CC6004130840083169B01831280
:10027000CA0A08000408CB064B06CB068400080017
:1002800083169C1841299B01FC20C800C700FC2054
:10029000CC00C707FC20CD00C707FC20CE00C70755
:1002A000FC20C900C707FC20470708000108B33E2F
:1002B00081000B113A210E213A21C7080319662942
:1002C000BD0B6629C70B66290130CA00BC08031D97
:1002D000BC03851A6F29BB0A0319D5288D29FC3068
:1002E0003B0703187529BB018D29BC08031D802914
:1002F000BB010130C9066430BC000830C7008D293D
:100300006F205120CC01CD01CE0193200A30BF00D7
:10031000BB010830C700BC01C90149180800AD087D
:100320000319C129BE0B08003608BE0038084C0668
:10033000031D9C292D10A4292308A607031CA4290A
:100340002908A6072008CC0739084D06031DAA294D
:10035000AD10B2292408A707031CB2292908A70752
:100360002108CD073A084E06031DB8292D120800B2
:100370002508A807031C08002908A8072208CE079B
:100380000800C0080319CA29BF0B08000A30BF00C3
:10039000C00B08005120932008000534D034FF34EE
:1003A000003419340034053400340034003405348A
:1003B000D0340034FF346634003405340034003463
:1003C00000340534D034FF343C3400340034053478
:1003D0000034003400340534D034FF3404340034A5
:1003E000003405340034003400340534D034FF3494
:1003F0003034003400340534003400340034053423
:10040000D03400346634FF34003405340034003412
:1004100000340534D034D6340034933400340534F9
:100420000034003400340534D034523400343134D4
:10043000003405340034003400340534D034FF3443
:100440000234003400340534003400340034053400
:10045000D034FF3400347E340034053400340034AA
:1004600000340534D034FF3406340034003405340D
:100470000034003400340534D034FF349734003471
:10048000003405340034003400340534D0340034F2
:10049000FF340034003405340034003400340534B3
:1004A000D034FF34243400340034053400340034B4
:1004B00000340534D034FF34533400340034053470
:1004C0000034003400340534D034FF34493400346F
:1004D000003405340034003400340534D0340034A2
:1004E000FF34333400340534003400340034053430
:1004F000D03499340034FF340034053400340034EF
:1005000000340534D034FF340C3400340034053466
:100510000034003400340534D034FF34BA340034AD
:10052000003405340034003400340534D034FF3452
:10053000003405340034053400340034003405340C
:10054000D034B53400347A34003405340034003407
:1005500000340534D0343334FF34003400340534EF
:100560000034003400340534D03466340034FF34B1
:10057000003405340034003400340534D034CC3435
:10058000FF340034003405340034003400340534C2
:10059000D034FF340034FF340034053400340034E8
:1005A00000340534D034FF340034143400340534BE
:1005B0000034003400340534D034FF3400340034C7
:1005C000003405340034003400340534D034FF34B2
:1005D00000340F3400340534003400340034053462
:1005E000D0349934FF3400340034053400340034FE
:1005F00000340534D034FF34DC34003400340534A6
:100600000034003400340534D034FF340034D434A2
:10061000003405340034003400340534D034003460
:10062000FF34FF3400340534003400340034053422
:10063000D03433340034FF34003405340034003413
:1006400000340534D034FF344E34003400340534E3
:100650000034003400340534D03400349934FF348D
:10066000003405340034003400340534D034003410
:10067000FF34CC3400340534003400340034053405
:10068000D034FF3400340A340034053400340034EC
:1006900000340534D034FF3475340034003405346C
:1006A0000034003400340534D034FF344534003491
:1006B000003405340034003400340534D034CC34F4
:1006C0000034FF3400340534003400340034053481
:1006D000D03400343334FF34003405340034003473
:1006E00000340534D0346634FF340034003405342B
:1006F0000034003400340534D034FF34FF34003487
:10070000003405340034003400340534D03400346F
:10071000FF34993400340534003400340034053497
:10072000D034FF3400345334003405340034003402
:1007300000340534D0340034CC34FF340034053474
:100740000034003400340534D034FF3400341E3417
:10075000003405340034003400340534D0347334AC
:100760000034493400340534003400340034053496
:10077000D03494340034623400340534003400340E
:1007800000340534D034FF344034003400340534B0
:100790000034003400340534D034FF340034A9343C
:1007A000003405340034003400340534D034FF34D0
:1007B0000034283400340534003400340034053467
:1007C000D034FF341834003400340534003400349D
:1007D00000340534D03400340034FF3400340534A0
:0A07E000003400340034FF34FF340D
:0407EA0000340034A3
:02400E00A43FCD
:00000001FF
