:060000000A128A11122809
:10000800FE00030EF1000408F2000A08F300831250
:1000180003137F08F4000A128A11D8290A128A11D8
:10002800FD290A128A1162210A128A111B28073037
:10003800831203133302031C222823286328B301E5
:10004800B70106303702031C2A282B282D286328DD
:1000580063283708263E840083138008031935284F
:10006800362850283708263E840001308002370899
:100078002C3E84008008031D422843284A2837085C
:100088002C3E840080010314800D572837082C3E2D
:10009800840080015728572837082C3E84008001A7
:1000A8000314800D57280130B6003608B70706300C
:1000B8003702031C602861282D2863286328380824
:1000C800643A031968286928B628B208031D6D2800
:1000D8006E2873280430B6003608B200762802303D
:1000E800B20276283808B6003208203E8400360866
:1000F800831380003208203E84000A300002031C6B
:100108008628872894283208203E84000A308002F6
:100118003208013E203E840080010314800D992896
:100128003208013E203E840080013208263E8400C9
:100138000A308000B6003208013E263E84003608A8
:10014800800032082C3E840001308000B60032085E
:10015800013E2C3E8400360880006430B600360824
:10016800B800B6280A128A11A7210A128A111B2878
:100178001B280A128A111228F60075082C3E8400E2
:1001880083138008031DC928CA280A2961296129FF
:100198000A29831203138801C03087004D2983126E
:1001A80003138801F93087004D298312031388014E
:1001B800A43087004D29831203138801B0308700CB
:1001C8004D29831203138801993087004D29831222
:1001D80003138801923087004D2983120313880185
:1001E800823087004D29831203138801F830870075
:1001F8004D29831203138801803087004D2983120B
:1002080003138801903087004D294D297508203E39
:1002180084000008003A0319CD28013A0319D328AD
:10022800033A0319D928013A0319DF28073A0319B1
:10023800E528013A0319EB28033A0319F128013A92
:100248000319F7280F3A0319FD28013A031903295E
:100258004D294D290130831203138800612902308A
:100268008312031388006129043083120313880062
:100278006129083083120313880061291030831222
:100288000313880061292030831203138800612931
:1002980061297608003A03192E29013A03193329EE
:1002A800033A03193829013A03193D29073A031972
:1002B8004229013A031947296129080083160313C3
:1002C8001F109F141F159F11FF30860081138B1577
:1002D8008B1283120313901190161016901010149D
:1002E800831603130C140B138B1783120313B30118
:1002F8000F30F50075088316031385048701C03095
:100308008800831203138801A001A1010314A10D21
:100318000230F5007508A2000330F5007508A30047
:100328000430F5007508A4000530F5007508A5002F
:100338000130B100B000AF00AE00AD00F5007508A7
:10034800AC00F801080083120313B501063035022A
:10035800031CAF29B029B229D729D7293508320774
:10036800F7007708B40006303402031CBC29BD2905
:10037800C0290630B402C0293408F7007708F50010
:1003880035080A128A11C0200A128A110130F700B2
:10039800770883120313B50706303502031CD529E5
:1003A800D629B229D72908000C1CDB29DC29E22927
:1003B8000130F0007008B3070C10E2290B1CE52986
:1003C800E629F229861EE929EA29F02905080F39C4
:1003D800F0007008B800F0290B10F2297408FF002B
:1003E80073088A0072088400710E8300FE0E7E0E68
:1003F8000900F80183132030840034300A128A116E
:1004080011220A128A110A128A1119220A128A1151
:10041800B80083010A128A11152864008001840A31
:0C0428000406031900340406122A643490
:02400E0072FF3F
:00000001FF
