:02000000622874
:100008007E14803120007F08FB008B1C43280B11D5
:10001800FC017C30FA007A08FD007D088600870123
:1000280001100E1901147D08860087018110200037
:100038008E1981147D0886008701011120000E1A8F
:1000480001157D0886008701811120008E1A81150F
:100058007C08692120005E08CF21013A031D3F2852
:100068006130FA007A08F00020005E080F222000B4
:10007800A8010C14412820000C108B105E280B1DC1
:100088005E280B119F3095002808031D4E288E14FA
:100098000E140C166108280603198E10620828062B
:1000A80003190E106308280603190C120130FA0010
:1000B8007A08A8077B08FF007E1009006328203013
:1000C8008400003085003D30AC22A53084008230A9
:1000D80085005D308600003087000730B2227E1030
:1000E8002000942AF600FF30F40076088600870185
:1000F80074088100FF30F4007308860087017408D3
:10010800810020005D08031D8B28003008002608A8
:10011800F4007408F00027086422F500083075021E
:10012800031898280030080020002708F4007408F5
:10013800F70020002608F4007408F000770864220D
:10014800F50003307502031C4C299D308400823071
:1001580085000008F4007708293E86008701010819
:100168007406031DFA289E3084008230850000083A
:10017800F400F001F00A77087222293E8600870110
:1001880001087406031DFA289F3084008230850018
:100198000008F4000230F5007508F00077087222B4
:1001A800293E8600870101087406031DFA28A0303D
:1001B8008400823085000008F4000330F5007508DB
:1001C800F00077087222293E86008701010874062C
:1001D800031DFA280430F4007408F000770872222E
:1001E800F50076088600870175084829A130840043
:1001F800823085000008F4007708293E86008701D0
:1002080001087406031D4929A23084008230850044
:100218000008F400F001F00A77087222293E8600EF
:10022800870101087406031D4929A3308400823020
:1002380085000008F4000230F5007508F000770822
:100248007222293E8600870101087406031D492988
:10025800A4308400823085000008F4000330F500E3
:100268007508F00077087222293E86008701010888
:100278007406031D4929F001F00A77085622F40094
:100288007308860087017408810077088A229A28F3
:10029800760886008701010A031967297308860012
:1002A8008701010A031967290530F4007408F00072
:1002B80073088600870101087222F500750820007E
:1002C800A7000130080000300800F20020002608CE
:1002D800293EF1007108F3007230F1007108F40052
:1002E8005D03031D9C297408860087017308840038
:1002F800850100100118001474088600870173082E
:100308008400850180108118801474088600870194
:10031800730884008501001101190015740886000E
:100328008701730884008501801181198015C0290F
:10033800740886008701730884008501001201187B
:1003480000167408860087017308840085018012EE
:100358008118801674088600870173088400850157
:1003680000130119001774088600870173088400B8
:10037800850180138119801720005D03031DC6299C
:10038800DD010800DD01DD0A26088A22F100710876
:100398002000A60008002000E5006508F80078089D
:1003A800E400E6016830F8007808F300673076204A
:1003B800013A031D0D2A20006708F8007808E900B3
:1003C8006908293E860087010108F8006608640765
:1003D800F900790886008701780881000130F80063
:1003E8007808E6076908293E8600870181016808C0
:1003F800F8007808F00069086422003A03190B2A0B
:10040800200069088A22F80078082000E3290130D2
:10041800080000300800F2007208073EF100710879
:10042800F3007308860087010108F1007008860050
:10043800870171088100730A860087010108F100AD
:10044800700A86008701710881007308023E8600E1
:1004580087010108F1007008023E860087017108D3
:100468008100080021000C1523000C1121000C103C
:1004780023000C1021008E1023008E1021000E1076
:1004880023000E1021000C1223000C1221000E155F
:1004980023000E1121008E1523008E1121000E1647
:1004A8008E160800F100700871020318602A7003A4
:1004B800FF3A7107203E08007003FF3A71070800F1
:1004C800F1007108700203186E2A7103FF3A700771
:1004D800203E08007103FF3A70070800F200700818
:1004E800F1007108F20720307202031C7D2A2030C7
:1004F800F2027208080021001513951295152000C4
:100508001E148B170B178B160B110800F0001F30E9
:100518007006031D912A003008007008013E08008B
:1005280036227F22B82220008E100E100C120C10DA
:100538009C2AEA34EB34EC34ED34ED34EC34EB340F
:10054800EA34013449345334533432347D34C834B2
:10055800640080010131890BAD2A0034FE001200CD
:100568001E00FE0BB32A00348B170B168B102100CC
:04057800151308004F
:020000040001F9
:04000E0024FEFFFFCE
:00000001FF
