:020000040000FA
:1000000085018316EC308500FF23900005308100C8
:100010009516151596168312073099008B1520300A
:100020008400DF008001840ADF08031D1228862077
:10003000B33081000B110A30BF006F20031D22284E
:10004000B50A1D2840210319272802212228480823
:100050003502031C022148083406031931286F2099
:100060002B285120491C9320FF303628AE0F4728FB
:10007000AE0A4C08AA002A0F05104D08AB002B0F42
:1000800085104E08AC002C0F05120B195621AA0A38
:1000900003190514AB0A03198514AC0A03190516D4
:1000A00036286B20B600013E0319662836308400DE
:1000B000840AB20A0319B30A6B2080003A3004069E
:1000C000031D5828B20A0319B30A08003008B20009
:1000D0003108B300512833088A00320882008F208B
:1000E000013E031978280530B0070318B10A6F28BC
:1000F000B40AB00A0319B10A8F20013E03198628F9
:100100003008B2003108B30003010800B401013027
:10011000B100B300CD30B000B200FF3808003108A4
:100120008A00300882003708C0003608BE00031D70
:10013000A1283808CC003908CD003A08CE00AD011E
:1001400008001330AD000130A000A100A2004C084F
:1001500038020318AE28A003A003003CA3004D08FA
:1001600039020318B628A103A103003CA4004E08DD
:100170003A020318BE28A203A203003CA5002308EC
:1001800024020318CA282308250225080318CF28AB
:100190002308CF28240825022508031C2408003C36
:1001A000A900A600A700A80008000130CA00092184
:1001B0002F088500851EDA280F30E92005080B106E
:1001C000630000005A30E920851ADA28851EE628E7
:1001D000002881010B110B1DEB28FF3E031DE928B0
:1001E000080083169A009B0A1C1555309D00AA3002
:1001F0009D009C148312080083169B0A1C141A0885
:1002000083120800CA0AC801B401C901CC01CD019A
:10021000CE010E21CA08031D092908004A08031946
:100220000800FF3E0319222983161C088312023995
:10023000031D08000008F120840A0408473A031946
:10024000CA0108003408C100C6004C08C200C60735
:100250004D08C300C6074E08C400C6074908C500BC
:100260004607003CC6004130840083169B01831280
:10027000CA0A08000408CB064B06CB068400080017
:1002800083169C1841299B01FC20C800C700FC2054
:10029000CC00C707FC20CD00C707FC20CE00C70755
:1002A000FC20C900C707FC20470708000108B33E2F
:1002B00081000B113A210E213A21C7080319662942
:1002C000BD0B6629C70B66290130CA00BC08031D97
:1002D000BC03851A6F29BB0A0319D5288D29FC3068
:1002E0003B0703187529BB018D29BC08031D802914
:1002F000BB010130C9066430BC000830C7008D293D
:100300006F205120CC01CD01CE0193200A30BF00D7
:10031000BB010830C700BC01C90149180800AD087D
:100320000319C129BE0B08003608BE0038084C0668
:10033000031D9C292D10A4292308A607031CA4290A
:100340002908A6072008CC0739084D06031DAA294D
:10035000AD10B2292408A707031CB2292908A70752
:100360002108CD073A084E06031DB8292D120800B2
:100370002508A807031C08002908A8072208CE079B
:100380000800C0080319CA29BF0B08000A30BF00C3
:10039000C00B080051209320080002340034FF34C1
:1003A0000034003405340034FF342834003414346D
:1003B0000034FF34C834003405340A34FF34FF34C9
:1003C000013405340A340034FF34003405340A346F
:1003D0000034FF34FF3405340A34FF34FF34FF3473
:1003E0000F340A34C8340034003405340A34FF347E
:1003F0000034003414340A34FF340034C834053473
:100400000A34FF340034FF34FF3408340534A03498
:100410000034003408340534A0340034A0340834E7
:10042000053400340034A034083405340034A034DA
:10043000A034083405340034A034003408340534C2
:10044000A0340034A034FF3406340034FF34C83400
:10045000183406340034C8341834FF3406340034F9
:100460001834FF34C834FF3417340034FF34C83430
:100470001834173400341834FF34C83417340034B7
:10048000C8341834FF34FF341E340034FF34803451
:1004900000341E3400348034FF340034FF341E3402
:1004A0000034FF34003480341E340034803400348F
:1004B000FF34FF341E3400340034FF3480341E34E3
:1004C000023400348034FF34FF3400340534FF3408
:1004D000003400340134003400340034003400347B
:1004E00005340034FF340034013400340034003467
:1004F00000340034053400340034FF340134003457
:10050000003400340034FF3402340534FF34003446
:100510000034013400340034003400340234053433
:100520000034FF340034013400340034003400342B
:100530000234053400340034FF3401340034003414
:1005400000340034FF3402340134FF34003400340A
:10055000023401340034FF340034023401340034F6
:100560000034FF34FF3402340134FF3440340034AB
:100570000234013440340034FF3402340134003496
:10058000FF344034FF340034FE34F034F034F034BF
:10059000FF340034FE34803480348034FF3400343F
:1005A000FE34303430343A34FF3406340A34FF3405
:1005B0000034003406340A34FF34FF340034063487
:1005C0000A340034FF34003406340A340034FF3473
:1005D000FF3406340A3400340034FF3406340A345D
:1005E000FF340034FF34FF3419340534FF34003451
:1005F000003419340534FF34FF3400341934053421
:100600000034FF340034193405340034FF34FF342F
:100610001934053400340034FF3419340534FF3400
:100620000034FF34FF3404340A34FE342034003400
:1006300004340A34FE348034003404340A34FE3482
:10064000F034003404340A348034F0340034FF349D
:1006500004340A3400341034FF3404340A340034CF
:100660008034FF3404340A340034F03480340434E9
:100670000A3410341034F03404340A34F0341034B2
:10068000F03404340A3440340034FA34FF340A3489
:100690000434F0340034F0340A34043420340034A8
:1006A000F0340A3404348034003480340A3404349E
:1006B000F03400342034FF3400340134FF3400348B
:1006C0000034003401340034FF3400340034013489
:1006D00000340034FF34FF3400340234FF3400347B
:1006E0000034003402340034FF3400340034023467
:1006F00000340034FF34FF3400340434FF34003459
:100700000034003404340034FF3400340034043442
:1007100000340034FF34FF3400340634FF34003436
:100720000034003406340034FF340034003406341E
:1007300000340034FF34FF3400340834FF34003414
:100740000034003408340034FF34003400340834FA
:1007500000340034FF34FF3400340A34FF340034F2
:10076000003400340A340034FF34003400340A34D6
:1007700000340034FF34FF3400341434FF340034C8
:100780000034003414340034FF34003400341434A2
:1007900000340034FF34FF340034053400340F34A7
:1007A0000F34003403340034003400340034053492
:1007B00000340F340F340034033400340034003478
:1007C0000034053400340F340F3400340334003463
:1007D0000034003400341434003400340034FF3466
:0207E000FF34E4
:0407E20000340034AB
:02400E00243E4E
:00000001FF
