:060000000A128A11122809
:10000800FE00030E83120313AF000408B0000A08B1
:10001800B1007F08B2000A128A11632B0A128A11F2
:100028001528D901DA01DB01DC018313C030FD009A
:100038000F30FE009430FF00A03084000A128A15A9
:1000480087270A128A115930FD000F30FE007430DC
:10005800FF004A3084000A128A15872783010A1292
:100068008A11362800300A128A11CD230A128A1101
:100078000A128A11E9270A128A110A128A11B1276B
:100088000A128A1183120313B80101300A128A1165
:100098006B260A128A1183120313BF0100300A1259
:1000A8008A15DA270A128A11123083120313BF0045
:1000B8008030C0000A128A1103250A128A1183129D
:1000C8000313BF0107300A128A15DA270A128A11A8
:1000D800203083120313BF008030C0000A128A1137
:1000E80003250A128A1183120313BF010A300A1268
:1000F8008A15DA270A128A111C3083120313BF00EB
:100108008030C0000A128A1103250A128A1183124C
:100118000313BF01BF0A00300A128A15DA270A1230
:100128008A11173083120313BF008030C0000A12EF
:100138008A1103250A128A1183120313BF01BF0A09
:1001480007300A128A15DA270A128A112030831218
:100158000313BF008030C0000A128A1103250A1257
:100168008A1183120313BF010D300A128A15DA2788
:100178000A128A11243083120313BF008030C00092
:100188000A128A1103250A128A1183120313BF0166
:10019800BF0A04300A128A15DA270A128A11831252
:1001A80003135C08C400C5014408BF004508C0002B
:1001B8000330C6004608C1000A128A110B220A122F
:1001C8008A1183120313BF0104300A128A15DA2731
:1001D8000A128A11831203135A08C0005908BF0073
:1001E8000330C4004408C1000A128A110B220A1203
:1001F8008A1183120313051BFD28003005180130EE
:10020800851802380519043885190838C4004408C7
:10021800DC000230B3000030B4005B08C400C50144
:100228004408B5004508B6000A128A115E250A126C
:100238008A11831203133308C6004608C9005B1CE1
:100248002F2989290310C40CFF3E031D26294408C1
:10025800C500450832295C08C4004408C7000130BD
:100268004705C40049085707C5004508840083139B
:1002780000084406FE39440680004708C4000310FD
:10028800440C0139C50049085707C60046088400D0
:10029800C50D00084506FD39450680004708C4001D
:1002A80002300310C40CFF3E031D552944080139D0
:1002B800C50049085707C60046088400C50DC50D86
:1002C80000084506FB39450680004708C40003308E
:1002D8000310C40CFF3E031D6C2944080139C500F6
:1002E80049085707C60046088400C50DC50DC50D49
:1002F80000084506F739DB290310C40CFF3E031D2F
:1003080080294408C50045088C295C08C4004408B5
:10031800C80048080139C40049085707C5004508FE
:100328008400C40E831300084406EF394406800095
:100338004808C4000310440C0139C5004908570790
:10034800C60046088400C50EC50D00084506DF39FD
:10035800450680004808C40002300310C40CFF3E64
:10036800031DB12944080139C50049085707C600CB
:1003780046088400C50EC50DC50D00084506BF39E1
:10038800450680004808C40003300310C40CFF3E33
:10039800031DC92944080139C50049085707C60083
:1003A80046088400C50CC50C000845067F3945067B
:1003B80080000130C4004408DB07BF01BF0A0A30CF
:1003C8000A128A15DA270A128A11A0308312031337
:1003D800BF000030C0000A128A1103250A128A11D0
:1003E80083120313BF01BF0A04300A128A15DA27E1
:1003F8000A128A11831203135B08C400C50144085A
:10040800BF004508C0000330C6004608F728C030C2
:10041800840083120313520883138000840A53084C
:100428008000840A54088000840A55088000840AE1
:1004380056088000043083160313C7000030C80034
:10044800C501C601831203133F084004031D2F2A68
:1004580083160313C4018312C01F412AB801B80AC6
:100468002D300A128A116B260A128A11831203137D
:10047800BF09C009BF0A0319C00A83123F08400414
:1004880003197D2A0A30B3000030B4004008B600D2
:100498003F08B5000A128A1119270A128A11831215
:1004A80003133308C200831603134708C03E8400B1
:1004B800831203134208831380000A30B30000300C
:1004C800B4004008B6003F08B5000A128A115E253C
:1004D8000A128A11831203133408C0003308BF00BC
:1004E800FF3083160313C7070318C80AFF30C8076D
:1004F800412A410A0319992A83124108C200C301FB
:10050800C21BC303C209C309C20A0319C30A4208AA
:10051800053E83160313C50083120313430803180B
:10052800013E003E83160313C600831603134608D4
:10053800C8004508C7004808803AFF0080307F029D
:10054800031DA82A05304702031808008312031365
:10055800B801B80A831603134708C03E8400831302
:100568000008303E0A128A116B260A128A110130DD
:1005780083160313C7070318C80A0030C8079F2A41
:100588002330840083120313520883138000840AE3
:1005980053088000840A54088000840A55088000A3
:1005A800840A560880000430AA000030AB00A80175
:1005B800A901200821040319A701A11FF22AF501A6
:1005C800F50A2D300A128A1112260A128A1183128C
:1005D8000313A009A109A00A0319A10A20082104EC
:1005E8000319272B0A30F0000030F1002108F3002E
:1005F8002008F2000A128A1166270A128A11700866
:10060800FC00831203132A08233E84007C0883130A
:1006180080000A30F0000030F1002108F3002008C3
:10062800F2000A128A11B9250A128A117108831276
:100638000313A1007008A000FF30AA070318AB0A33
:10064800FF30AB07F22A220A03193C2B2208FC00D0
:10065800FD01FC1BFD03FC09FD09FC0A0319FD0A49
:100668007C08053EA8007D080318013E003EA9004D
:100678002908AB002808AA002B08803AFF00803020
:100688007F02031D492B05302A0203180800F501D3
:10069800F50A831203132A08233E840083130008F3
:1006A800303E0A128A1112260A128A110130831268
:1006B8000313AA070318AB0A0030AB07402B0B1C27
:1006C800BD2BF50101300A128A1112260A128A116D
:1006D800FC0100300A128A15B4270A128A11013067
:1006E800FC008030FD000A128A11C2260A128A1103
:1006F800013083120313AC002C08DC0797305C022E
:100708000318DC01FC01FC0A00300A128A15B42720
:100718000A128A11831203135C08AC00AD012C087D
:10072800A0002D08A1000330AE002E08A2000A1276
:100738008A11C4220A128A112030FC008030FD0080
:100748000A128A11C2260A128A110D308312031363
:10075800AE00AF30AD00C130AC00AC0BB12BAD0B6F
:10076800B12BAE0BB12B000083120313D801D80AAA
:100778000B10831603131612831203133208FF009B
:1007880031088A00300884002F0E8300FE0E7E0E8A
:10079800090083120313C100C330C000CD30BF006D
:1007A800BF0BD42BC00BD42B0F3083120313BF0005
:1007B8003F088316031387058711871007110F3029
:1007C80083120313BF003F0887058711071187109D
:1007D800ED2B8312031387158716F22BF32B0000DA
:1007E800831203138711F82BF92B00000A128A11C0
:1007F80035240A128A1183120313B80128300A1209
:100808008A116B260A128A1183120313B801410850
:100818000C380A128A116B260A128A1183120313E2
:10082800B80140300A128A116B260A128A11831203
:100838000313C2010830420203180800B801B80ABD
:1008480042084A3E8400831300080A128A116B2664
:100858000A128A11013083120313BF003F08C2072E
:100868001E2C83120313B701F030B300330883162C
:10087800031387048312031307158710432C83126D
:1008880003138715472C831203130708B30004309A
:100898000310B30CFF3E031D4C2C3308B40034087E
:1008A800B7003708B30003300310B30DFF3E031D34
:1008B800582C0310330DB4003408B700632C83128E
:1008C80003138711672C682C000083120313871504
:1008D8006D2C831203130708B30004300310B30C04
:1008E800FF3E031D722C3308B4003408B6000F30E5
:1008F800B3003308B60537083604B3003308B70029
:1009080037088039B3003308B5008A2C83120313E3
:1009180087118E2C8F2C0000831203133508031DBA
:10092800432C07110F30B3003308831603138705D0
:100938000800F401F030F0007008831603138704F0
:100948008312031307158710A92C83120313871525
:10095800AD2C831203130708F00004300310F00CC9
:10096800FF3E031DB22C7008F1007108F4007408F2
:10097800F00003300310F00DFF3E031DBE2C0310E2
:10098800700DF1007108F400C92C8312031387114C
:10099800CD2CCE2C0000831203138715D32C831281
:1009A80003130708F00004300310F00CFF3E031D8A
:1009B800D82C7008F1007108F3000F30F0007008AF
:1009C800F30574087304F0007008F40074088039A3
:1009D800F0007008F200F02C831203138711F42C36
:1009E800F52C00007208031DA92C831203130711AC
:1009F8000F30F00070088316031387050800831270
:100A080003134008FF003F0884000A128A150020DB
:100A18000A128A11003A03190800831203134008C6
:100A2800FF003F0884000A128A1500200A128A1162
:100A3800253A031D452D0130BF070318C00A400899
:100A4800FF003F0884000A128A1500200A128A1142
:100A5800D03EC1004108C200C21B3B2D4208803A6B
:100A6800783E03183B2DB801B80A4208522D83126C
:100A78000313B801B80A25300A128A116B260A1224
:100A88008A1183120313B801B80A4008FF003F080F
:100A980084000A128A1500200A128A110A128A1181
:100AA8006B260A128A11013083120313BF07031839
:100AB800C00A032D83120313B901B41F6A2DB309A9
:100AC800B409B30A0319B40AB901B90AB61F752DD6
:100AD800B509B609B50A0319B60A0130B7003708CF
:100AE800B906BA01BB01330834040319AC2DB801A7
:100AF800B80AB41B8B2D01300310B30DB40DFF3EA3
:100B0800031D802D0130B7003708B8077D2D01304F
:100B18000310BA0DBB0DFF3E031D8C2D34083602A1
:100B2800031D982D33083502031CA12D3308B50287
:100B38003408031CB603B6023A1401300310B40C8F
:100B4800B30CFF3E031DA22D0130B802031D8B2DEF
:100B580039080319B42DBA09BB09BA0A0319BB0A23
:100B68003B08B4003A08B3000800F601F11FC32D92
:100B7800F009F109F00A0319F10AF601F60AF31F60
:100B8800CE2DF209F309F20A0319F30A0130F40031
:100B98007408F606F701F801700871040319052EA8
:100BA800F501F50AF11BE42D01300310F00DF10DEC
:100BB800FF3E031DD92D0130F4007408F507D62D2A
:100BC80001300310F70DF80DFF3E031DE52D7108E8
:100BD8007302031DF12D70087202031CFA2D7008B0
:100BE800F2027108031CF303F302771401300310B7
:100BF800F10CF00CFF3E031DFB2D0130F502031D27
:100C0800E42D760803190D2EF709F809F70A0319D8
:100C1800F80A7808F1007708F0000800F80078086A
:100C2800F60004300310F60CFF3E031D162E76085E
:100C3800F7007708F90078080F39F6007608FA0007
:100C48007508031D2B2E8312031387102E2E831273
:100C5800031387142F2E8312031387157908F600C0
:100C680004300310F60DFF3E031D352E07080F391B
:100C78007604F7007708FB007B088700432E442E94
:100C88000000831203138711492E4A2E0000831295
:100C9800031387157A08F60004300310F60DFF3E9B
:100CA800031D512E07080F397604F7007708FB005B
:100CB8007B0887005F2E602E0000831203138711C4
:100CC800652E662E00000A128A119D2408008312E0
:100CD8000313BD003D08B90004300310B90CFF3EF2
:100CE800031D712E3908BA003A08BB003D080F39B8
:100CF800B9003908BC003808031D842E8710852EDA
:100D08008714862E8312031387153B08B900043015
:100D18000310B90DFF3E031D8C2E07080F39390447
:100D2800BA003A08BE003E0887009A2E9B2E0000A3
:100D3800831203138711A02EA12E00008312031320
:100D480087153C08B90004300310B90DFF3E031D98
:100D5800A82E07080F393904BA003A08BE003E0821
:100D68008700B62EB72E0000831203138711BC2EFE
:100D7800BD2E00000A128A11352408007D0883124E
:100D88000313FF007C0884000A128A1500200A1247
:100D98008A11003A031908007D0883120313FF0023
:100DA8007C0884000A128A1500200A128A11253A42
:100DB800031D022F0130FC070318FD0A7D08FF0000
:100DC8007C0884000A128A1500200A128A11D03E73
:100DD800A0002008A100A11BFA2E2108803A783E25
:100DE8000318FA2EF501F50A21080F2FF501F50A67
:100DF80025300A128A1112260A128A11F501F50AFB
:100E08007D0883120313FF007C0884000A128A15E8
:100E180000200A128A110A128A1112260A128A114D
:100E28000130FC070318FD0AC22E83120313B9010F
:100E3800B61F252FB509B609B50A0319B60AB901AF
:100E4800B90AB41F2C2FB309B409B30A0319B40A99
:100E5800330834040319592FB801B80AB41B402FBA
:100E680001300310B30DB40DFF3E031D352F0130C3
:100E7800B7003708B807322F34083602031D462F4B
:100E880033083502031C4E2F3308B5023408031CFF
:100E9800B603B60201300310B40CB30CFF3E031DB9
:100EA8004F2F0130B802031D402F39080319612F55
:100EB800B509B609B50A0319B60A3608B4003508E3
:100EC800B3000800F601F31F702FF209F309F20AC4
:100ED8000319F30AF601F60AF11F772FF009F10951
:100EE800F00A0319F10A700871040319A42FF50117
:100EF800F50AF11B8B2F01300310F00DF10DFF3EA9
:100F0800031D802F0130F4007408F5077D2F710848
:100F18007302031D912F70087202031C992F700829
:100F2800F2027108031CF303F30201300310F10C01
:100F3800F00CFF3E031D9A2F0130F502031D8B2F85
:100F480076080319AC2FF209F309F20A0319F30A18
:100F58007308F1007208F0000800831603130517E0
:100F680083160317891183160313051483160317B1
:100F78000810831603138514831603178810831625
:100F88000313051583160317081183160313851514
:100F98008316031788118316031385130610831607
:100FA80003170912831603138610831603170911F2
:100FB80083160313061183160317091083160313E8
:100FC80086118316031789100800831603138616E3
:100FD800831603178916831603131F12C030831252
:100FE80003139F04831603139F17831203131F14FD
:020FF8000800EF
:10100000FF1B0A2883137F1883170008840A03191B
:10101000FF0A080008308A000408840A82070034A6
:1010200054346834653472346D346F346D346534DF
:1010300074346534723420347334653474343A341F
:1010400000344334753472343A3400344D346134EE
:1010500078343A340034573461343A340034253427
:0E1060003034433400344F34463446340034C8
:101EE8000C34123412340C3400340034003400340E
:101EF800F034F034F034F034F034A03401347E0897
:101F08008A007F08820083270A128A158000840AC3
:101F180004087D0603190034FF0A0319FE0A872FF7
:101F28006134613461346134613400340034003424
:101F380000340034003400340034003400340034F9
:101F480000340034003400340034003400340034E9
:101F580000340034003400340034003400340034D9
:101F680083120313A0001430200203180800C52FA1
:101F78002017D32F1430C12F5430FD007D08A0073F
:101F8800D32F7C08003A0319D32F013A0319BC2F29
:101F9800033A0319BE2F013A0319C02FD32FA017F4
:101FA800F50120080A128A11122608008312031369
:101FB800C1001430410203180800EB2F4117F92F14
:101FC8001430E72F5430C0004008C107F92F3F08EC
:101FD800003A0319F92F013A0319E22F033A0319BA
:101FE800E42F013A0319E62FF92FC117B801410868
:081FF8000A128A116B26080091
:04400E003CFFFFFE76
:00000001FF
