:060000000A128A11122809
:10000800FE00030EF0000408F1000A08F200831253
:1000180003137F08F3000A128A11162E0A128A1196
:1000280015288313203084003E300A128A112126B5
:100038000A128A116630FD000630FE000830FF0003
:10004800583084000A128A11FB250A128A110A12F2
:100058008A1129260A128A11F8000A128A112A26F8
:10006800F90083010A128A11392800300A128A110C
:1000780025230A128A110A128A11D0250A128A1116
:100088000A128A11E3240A128A110A128A112925EE
:100098000A128A11F60101300A128A113F240A1243
:1000A8008A1183160313A00183120313C701C70A19
:1000B80000300A128A118F250A128A1109300A1291
:1000C8008A1189230A128A1183120313D50055084D
:1000D80083160313A100210883120313D5005508C2
:1000E80083160313A3002308803A703E031891284F
:1000F800F601F60A20300A128A113F240A128A11E0
:10010800013083120313D500550883160313A30780
:100118002308803A703E031C7C2883120313C7010E
:10012800C70A00300A128A118F250A128A11013073
:100138000A128A1189230A128A1183120313650885
:10014800D500550883160313A600B4280730831278
:100158000313D6007D30D500D50BB028D60BB028B8
:1001680083120313051BAA28831603132608831278
:100178000313D500550883160313A7002708840026
:100188008313001083120313051800148316031336
:1001980027088400831380108312031385188014A2
:1001A8008316031327088400831300118312031393
:1001B800051900158316031327088400831380117B
:1001C8008312031385198015F3280730831203134C
:1001D800D6007D30D500D50BEF28D60BEF2883123B
:1001E8000313051BE9288316031326088312031338
:1001F800D500550883160313A8008316031328088F
:100208008400831300128312031305180016831643
:10021800031328088400831380128312031385189C
:10022800801683160313280884008313001383128F
:100238000313051900178316031328088400831372
:100248008013831203138519801783160313A501DE
:10025800A50A260884008313000825020318BF296D
:100268003F29073083120313D6007D30D500D50B04
:100278003B29D60B3B2983120313051B352983160B
:1002880003132508260783120313D5005508831680
:100298000313A90029088400831300108312031391
:1002A800051800148316031329088400831380108B
:1002B80083120313851880148316031329088400F6
:1002C80083130011831203130519001583160313F2
:1002D800290884008313801183120313851980155C
:1002E8007F29073083120313D6007D30D500D50B44
:1002F8007B29D60B7B2983120313051B75298316CB
:1003080003132508260783120313D50055088316FF
:100318000313AA00831603132A0884008313001208
:100328008312031305180016831603132A08840082
:100338008313801283120313851880168316031300
:100348002A08840083130013831203130519001766
:10035800831603132A08840083138013831203135C
:1003680085198017013083120313D50055088316A9
:100378000313A5072D2983120313C701C70A0030E9
:100388000A128A118F250A128A1109300A128A1153
:1003980089230A128A1183120313D500550883167C
:1003A8000313A200220883120313D50055088316ED
:1003B8000313A4002408803A703E0318F829F601B4
:1003C800F60A20300A128A113F240A128A110130D3
:1003D80083120313D500550883160313A4072408B2
:1003E800803A703E031CE32983120313C701C70A2E
:1003F80000300A128A118F250A128A111E300A1239
:100408008A1189230A128A1183120313650884004A
:1004180083130008D500D6015508C7005608C80040
:100428000330D7005708C9000A128A111E220A127F
:100438008A1158284C3084008312031360088313F0
:100448008000840A61088000840A62088000840AA7
:1004580063088000840A640880000430D3000030F8
:10046800D400D101D201470848040319D001C81F9C
:100478004C2AF601F60A2D300A128A113F240A1274
:100488008A1183120313C709C809C70A0319C80ABE
:10049800470848040319812A0A30F4000030F5009F
:1004A8004808F7004708F6000A128A1196240A122B
:1004B8008A11740883120313CA0053084C3E84003F
:1004C8004A08831380000A30F4000030F500480819
:1004D800F7004708F6000A128A11E4230A128A1163
:1004E800750883120313C8007408C700FF30D307C8
:1004F8000318D40AFF30D4074C2A490A0319962A4C
:100508004908CA00CB01CA1BCB03CA09CB09CA0ACE
:100518000319CB0A4A08053ED1004B080318013ECF
:10052800003ED2005208D4005108D3005408803A43
:10053800FF0080307F02031DA32A053053020318F1
:100548000800F601F60A8312031353084C3E840090
:1005580083130008303E0A128A113F240A128A11B6
:10056800013083120313D3070318D40A0030D407C9
:100578009A2A83120313C001F030F400740883161A
:10058800031387048312031307158710CB2A8312DA
:1005980003138715CF2A831203130708F4000430C6
:1005A8000310F40CFF3E031DD42A7408F5007508E7
:1005B800C0004008F40003300310F40DFF3E031D93
:1005C800E02A0310740DF5007508C000EB2A8312A9
:1005D80003138711EF2AF02A0000831203138715EB
:1005E800F52A831203130708F40004300310F40CEF
:1005F800FF3E031DFA2A7408F5007508BF000F3086
:10060800F4007408BF0540083F04F4007408C000F3
:1006180040088039F4007408BE00122B83120313BB
:100628008711162B172B0000831203133E08031D96
:10063800CB2A07110F30F4007408831603138705BB
:10064800080083120313C900C330C800CD30C700A7
:10065800C70B2C2BC80B2C2B0F3083120313C7008E
:1006680047088316031387058711871007110F3072
:1006780083120313C70047088705871107118710DE
:10068800452B83120313871587164A2B4B2B000023
:10069800831203138711502B512B00000A128A1161
:1006A800BD220A128A11F60128300A128A113F2443
:1006B8000A128A11F6018312031349080C380A1228
:1006C8008A113F240A128A11F60140300A128A114F
:1006D8003F240A128A1183120313CA0108304A02FE
:1006E80003180800F601F60A4A08583E84008313E6
:1006F80000080A128A113F240A128A110130831253
:100708000313C7004708CA07722B83120313C900D3
:10071800C701490884000A128A1167250A128A113A
:10072800003A0319E22B490884000A128A11672546
:100738000A128A11253A031DC92B0130F7007708E0
:10074800C907490884000A128A1167250A128A1102
:10075800D03EF7007708C800C81BBB2B4808803A72
:10076800783E0318BB2BF601F60A4808D22BF6018F
:10077800F60A25300A128A113F240A128A1101301A
:10078800F700770883120313C707F601F60A49082A
:1007980084000A128A1167250A128A110A128A111C
:1007A8003F240A128A110130F700770883120313D5
:1007B800C7070130F7007708C9078D2B47080800DD
:1007C80083120313C001F51FF02BF409F509F40A8D
:1007D8000319F50AC001C00AF71FFB2BF609F70930
:1007E800F60A0319F70A0130BE003E08C006C10127
:1007F800C201740875040319322CBF01BF0AF51B26
:10080800112C01300310F40DF50DFF3E031D062CCD
:100818000130BE003E08BF07032C01300310C10D94
:10082800C20DFF3E031D122C75087702031D1E2CF6
:1008380074087602031C272C7408F6027508031C3A
:10084800F703F702411401300310F50CF40CFF3ED6
:10085800031D282C0130BF02031D112C4008031969
:100868003A2CC109C209C10A0319C20A4208F50093
:100878004108F400080083120313C5004508C100AD
:1008880004300310C10CFF3E031D452C4108C20073
:100898004208C30045080F39C1004108C400760862
:1008A800031D582C8710592C87145A2C83120313B4
:1008B80087154308C10004300310C10DFF3E031D16
:1008C800602C07080F394104C2004208C6004608D8
:1008D80087006E2C6F2C0000831203138711742C71
:1008E800752C00008312031387154408C1000430D7
:1008F8000310C10DFF3E031D7C2C07080F3941046E
:10090800C2004208C600460887008A2C8B2C0000CB
:10091800831203138711902C912C00000A128A115C
:10092800BD22080083120313C001F71FA22CF60989
:10093800F709F60A0319F70AC001C00AF51FA92C1E
:10094800F409F509F40A0319F50A7408750403197A
:10095800D62CBF01BF0AF51BBD2C01300310F40DC6
:10096800F50DFF3E031DB22C0130BE003E08BF0747
:10097800AF2C75087702031DC32C74087602031C7C
:10098800CB2C7408F6027508031CF703F702013034
:100998000310F50CF40CFF3E031DCC2C0130BF02F4
:1009A800031DBD2C40080319DE2CF609F709F60AC9
:1009B8000319F70A7708F5007608F400080083168B
:1009C800031305170514831603170810831603135A
:1009D80085148316031788108316031305158316C9
:1009E8000317081183160313851583160317881137
:1009F800831603138513061083160317091283162B
:100A0800031386108316031709118316031306119F
:100A18008316031709108316031386118316031709
:100A2800891083120313851783160313061683167A
:100A380003178911831603130617861683160317DF
:100A4800891283160313861708000A3083120313CA
:100A5800BF003F08A10000300A128A11E4250A12DB
:100A68008A1183120313BF003F08A0000F30BF0094
:100A78003F08A30001300A128A11E4250A128A11DC
:100A880083120313BF003F08A2001430BF003F08C1
:100A9800A50002300A128A11E4250A128A1183126B
:100AA8000313BF003F08A4001930BF003F08A70088
:100AB80003300A128A11E42583120313BF003F088A
:100AC800A600A801080005308A000408840A8207E5
:100AD8000034533474346134723474342E342E3404
:100AE8002E3400344934443431343A3400344934EF
:100AF800443432343A3400344934443433343A34A4
:100B080000344934443434343A34003452344334AD
:100B180056343A34003483120313C80014304802A0
:100B280003180800A02D4817AE2D14309C2D543002
:100B3800F7007708C807AE2D4708003A0319AE2D0D
:100B4800013A0319972D033A0319992D013A03190C
:100B58009B2DAE2DC817F60148080A128A113F24AA
:100B68000800F5006400831603178C18B62D750865
:100B7800831203178D003F30F4007408831603179F
:100B88008C050C1403100C180314003003180130E2
:100B9800831203170C08080083160313861683169E
:100BA80003178916831603131F12C0308312031309
:100BB8009F04831603139F17831203131F1408003F
:100BC80083120313BE003E080A128A11B525F600E7
:100BD800831203133E08F7007707203E8400760847
:100BE8008313800008007E088A007F088200F725AA
:100BF8000A128A118000840A04087D060319003449
:100C0800FF0A0319FE0AFB2D0C34123412340C347B
:100C18000034003400340034F034F034F034F0346C
:100C2800F03429347308FF0072088A0071088400C0
:100C3800700E8300FE0E7E0E090064008001840A97
:0E0C48000406031900340406222E0134013480
:04400E003CFFFFFE76
:00000001FF
