:060000000A128A11122809
:10000800FE00030EF0000408F1000A08F200831253
:1000180003137F08F3000A128A119D2D0A128A1110
:10002800152883134130840061300A128A11A825EB
:100038000A128A116F30FD000530FE008F30FF0074
:10004800613084000A128A1182250A128A110A1262
:100058008A11B0250A128A11F8000A128A11B125EC
:10006800F90083010A128A11392800300A128A110C
:100078008F220A128A110A128A1157250A128A1126
:100088000A128A114D240A128A110A128A1193241B
:100098000A128A11F60101300A128A11A9230A12DA
:1000A8008A1183120313BA014A3083120313B7006B
:1000B8003708BC00BE01BF01BF0A051B61283E0806
:1000C8003C07B7003708C0003F03031D8A284008D3
:1000D80084008313001005180014831203134008CA
:1000E800840083138010851880148312031340083A
:1000F80084008313001105190015831203134008A7
:1001080084008313801185198015AA28831203138C
:100118004008840083130012051800168312031385
:1001280040088400831380128518801683120313F5
:100138004008840083130013051900178312031362
:1001480040088400831380138519801783120313D2
:100158003F030319B1280130B2280030B70037082F
:10016800BF003F03031D61280130B7003708BE07F1
:100178003C088400831300083E06031D6128A9017A
:10018800A90A00300A128A11D1240A128A110530EC
:100198000A128A11F3220A128A1183120313B70072
:1001A8003708BB003B08B7003708BD003D08803A58
:1001B800703E0318F228F601F60A20300A128A1156
:1001C800A9230A128A11013083120313B7003708D2
:1001D800BD073D08803A703E031CDF28A901A90A23
:1001E80000300A128A11D1240A128A1115300A1213
:1001F8008A11F3220A128A11831203136E080A1253
:100208008A111F250A128A1183120313B700B80135
:100218003708A9003808AA000330B9003908AB002C
:100228000A128A111A210A128A1158282E308400BB
:1002380083120313690883138000840A6A08800004
:10024800840A6B088000840A6C088000840A6D08A0
:1002580080000430B5000030B600B301B4012908AD
:100268002A040319B201AA1F4829F601F60A2D30FB
:100278000A128A11A9230A128A1183120313A909DF
:10028800AA09A90A0319AA0A29082A0403197D290F
:100298000A30F4000030F5002A08F7002908F600B3
:1002A8000A128A1100240A128A117408831203138D
:1002B800AC0035082E3E84002C08831380000A30D9
:1002C800F4000030F5002A08F7002908F6000A12A1
:1002D8008A114E230A128A11750883120313AA0081
:1002E8007408A900FF30B5070318B60AFF30B6072F
:1002F80048292B0A031992292B08AC00AD01AC1B25
:10030800AD03AC09AD09AC0A0319AD0A2C08053ECA
:10031800B3002D080318013E003EB4003408B600AF
:100328003308B5003608803AFF0080307F02031D8D
:100338009F290530350203180800F601F60A8312D2
:10034800031335082E3E840083130008303E0A123A
:100358008A11A9230A128A11013083120313B507DF
:100368000318B60A0030B607962983120313A600AD
:100378002608840083130008A000A1012008A30018
:100388002108A4002608033E84000008A000A1015B
:100398002008A3070318A40A2108A4072608043E76
:1003A80084000008A000A1012008A3070318A40ADC
:1003B8002108A4072608053E84000008A000A10122
:1003C8002008A3070318A40A2108A4072608063E44
:1003D80084000008A000A1012008A3070318A40AAC
:1003E8002108A407A501260884000008F93EA000FA
:1003F800FF3003180030A1002108803A803C031D1B
:10040800072A200825020318202A83120313250827
:10041800073E2607A0002008840083130008A100D7
:10042800A2012108A3070318A40A2208A40701307F
:10043800A0002008A507F729831203132408F50054
:100448002308F400080083120313A201F030F4001B
:100458007408831603138704831203130715871080
:10046800352A831203138715392A831203130708C1
:10047800F40004300310F40CFF3E031D3E2A7408F8
:10048800F5007508A2002208F40003300310F40DEB
:10049800FF3E031D4A2A0310740DF5007508A200DB
:1004A800552A831203138711592A5A2A00008312E6
:1004B800031387155F2A831203130708F400043017
:1004C8000310F40CFF3E031D642A7408F500750838
:1004D800A1000F30F4007408A10522082104F400DB
:1004E8007408A20022088039F4007408A0007C2A4D
:1004F800831203138711802A812A000083120313B1
:100508002008031D352A07110F30F40074088316DC
:1005180003138705080083120313AB00C330AA0036
:10052800CD30A900A90B962AAA0B962A0F30831260
:100538000313A90029088316031387058711871059
:1005480007110F3083120313A900290887058711A3
:1005580007118710AF2A8312031387158716B42A49
:10056800B52A0000831203138711BA2ABB2A000098
:100578000A128A1127220A128A11F60128300A1251
:100588008A11A9230A128A11F601831203132B0870
:100598000C380A128A11A9230A128A11F60140306E
:1005A8000A128A11A9230A128A1183120313AC01B1
:1005B80008302C0203180800F601F60A2C08613EE0
:1005C8008400831300080A128A11A9230A128A11C7
:1005D800013083120313A9002908AC07DC2A83120F
:1005E8000313AB00A9012B0884000A128A11002505
:1005F8000A128A11003A03194C2B2B0884000A129C
:100608008A1100250A128A11253A031D332B01305D
:10061800F7007708AB072B0884000A128A11002517
:100628000A128A11D03EF7007708AA00AA1B252BC8
:100638002A08803A783E0318252BF601F60A2A087C
:100648003C2BF601F60A25300A128A11A9230A1250
:100658008A110130F700770883120313A907F601FE
:10066800F60A2B0884000A128A1100250A128A1138
:100678000A128A11A9230A128A110130F700770891
:1006880083120313A9070130F7007708AB07F72A8D
:100698002908080083120313A201F51F5A2BF40935
:1006A800F509F40A0319F50AA201A20AF71F652B36
:1006B800F609F709F60A0319F70A0130A00020081D
:1006C800A206A301A4017408750403199C2BA101B7
:1006D800A10AF51B7B2B01300310F40DF50DFF3E2D
:1006E800031D702B0130A0002008A1076D2B0130DD
:1006F8000310A30DA40DFF3E031D7C2B7508770284
:10070800031D882B74087602031C912B7408F602CB
:100718007508031CF703F702231401300310F50CC6
:10072800F40CFF3E031D922B0130A102031D7B2B0D
:1007380022080319A42BA309A409A30A0319A40ACC
:100748002408F5002308F400080083120313A70007
:100758002708A30004300310A30CFF3E031DAF2B92
:100768002308A4002408A50027080F39A30023089C
:10077800A6007608031DC22B8710C32B8714C42B31
:100788008312031387152508A30004300310A30D53
:10079800FF3E031DCA2B07080F392304A4002408B1
:1007A800A80028088700D82BD92B00008312031330
:1007B8008711DE2BDF2B0000831203138715260811
:1007C800A30004300310A30DFF3E031DE62B07080A
:1007D8000F392304A4002408A80028088700F42B54
:1007E800F52B0000831203138711FA2BFB2B000053
:1007F8000A128A112722080083120313A201F71F85
:100808000C2CF609F709F60A0319F70AA201A20A3D
:10081800F51F132CF409F509F40A0319F50A7408ED
:1008280075040319402CA101A10AF51B272C0130DE
:100838000310F40DF50DFF3E031D1C2C0130A00024
:100848002008A107192C75087702031D2D2C7408A0
:100858007602031C352C7408F6027508031CF7038E
:10086800F70201300310F50CF40CFF3E031D362C83
:100878000130A102031D272C22080319482CF60970
:10088800F709F60A0319F70A7708F5007608F4005D
:100898000800831603130517051483160317081099
:1008A80083160313851483160317881083160313FE
:1008B8000515831603170811831603138515831668
:1008C800031788118316031385130610831603175D
:1008D800091283160313861083160317091183164A
:1008E80003130611831603170910831603138611C1
:1008F80083160317891083120313851783160313AE
:10090800061683160317891183160313061786160E
:1009180083160317891283160313861708000130FC
:1009280083120313A1002108C20000300A128A11A1
:100938006B250A128A1183120313A1002108C10032
:100948000630A1002108C40001300A128A116B2563
:100958000A128A1183120313A1002108C3000B3065
:10096800A1002108C60002300A128A116B250A125A
:100978008A1183120313A1002108C5001030A100B9
:100988002108C80003300A128A116B258312031349
:10099800A1002108C700C901080083120313AA0097
:1009A80014302A0203180800E22C2A17F02C1430FD
:1009B800DE2C5430F7007708AA07F02C2908003AF3
:1009C8000319F02C013A0319D92C033A0319DB2C2B
:1009D800013A0319DD2CF02CAA17F6012A080A128D
:0609E8008A11A92308009A
:100A000005308A000408840A8207003449344434DB
:100A100031343A3400344934443432343A340034D2
:100A20004934443433343A3400344934443434346B
:100A30003A3400345234433456343A340034831256
:100A40000313A700270A840083130008F600840A12
:100A50000008F70027080A128A11B9210A128A1120
:100A600077087506031D362D76087406031D3A2D8A
:100A70000130080000300800F500640083160317F9
:100A80008C183D2D7508831203178D003F30F4003C
:100A90007408831603178C050C1403100C18031428
:100AA000003003180130831203170C080800831666
:100AB00003138616831603178916831603131F1252
:100AC000C030831203139F04831603139F178312EE
:100AD00003131F14080083120313A00020080A1236
:100AE0008A113C25F600831203132008F7007707CC
:100AF000413E840076088313800008007E088A0047
:100B00007F0882007E250A128A118000840A040868
:100B10007D0603190034FF0A0319FE0A822D0C34E6
:100B2000123412340C340034003400340034F03405
:100B3000F034F034F034F0344A347308FF007208B3
:100B40008A0071088400700E8300FE0E7E0E09007C
:100B500064008001840A0406031900340406A92DE8
:040B60000134013427
:04400E003CFFFFFE76
:00000001FF
