:060000000A128A11122809
:10000800FE00030EF6000408F7000A08F800831241
:1000180003137F08F9000A128A116D2F0A128A1138
:100028001528FC0183135230840063300A128A15A4
:1000380035270A128A11C3308400E3300A128A1560
:1000480035270A128A11831790308400C7300A12A4
:100058008A1535270A128A118313EB30FD000F30F9
:10006800FE003D30FF00E33084000A128A15A827FD
:100078000A128A116D30FD000F30FE004F30FF006C
:10008800633084000A128A15A8270A128A110A12F4
:100098008A11FC27FD0083010A128A11B12E8312EE
:1000A8000313A600FF30A400260884002408831345
:1000B8008000FF30A40023088400240880007D0805
:1000C800031D6828003008007C08A4002408A0004C
:1000D8005E080A128A1584270A128A1183120313EA
:1000E800A5000830250203187B28003008005E08A8
:1000F800A4002408A7007C08A4002408A00027085E
:100108000A128A1584270A128A1183120313A5007A
:1001180003302502031C77290B3084000A128A1148
:1001280071250A128A11A4002708C33E840083138C
:1001380000082406031D00290C3084000A128A11C5
:1001480071250A128A11A400A001A00A27080A1220
:100158008A1565270A128A11C33E84008313000892
:10016800831203132406031D00290D3084000A128C
:100178008A1171250A128A11A4000230A5002508E7
:10018800A00027080A128A1565270A128A11C33E99
:10019800840083130008831203132406031D002917
:1001A8000E3084000A128A1171250A128A11A400DD
:1001B8000330A5002508A00027080A128A1565271C
:1001C8000A128A11C33E84008313000883120313A2
:1001D8002406031D00290430A4002408A0002708D1
:1001E8000A128A1565270A128A1183120313A500B9
:1001F8002608840025086C290F3084000A128A1109
:1002080071250A128A11A4002708C33E8400000839
:100218002406031D6E29103084000A128A117125E4
:100228000A128A11A400A001A00A27080A128A1536
:1002380065270A128A11C33E8400831300088312BB
:1002480003132406031D6E29113084000A128A1133
:1002580071250A128A11A4000230A5002508A00001
:1002680027080A128A1565270A128A11C33E8400D4
:1002780083130008831203132406031D6E2912300A
:1002880084000A128A1171250A128A11A400033007
:10029800A5002508A00027080A128A1565270A1252
:1002A8008A11C33E840083130008831203132406B3
:1002B800031D6E29A001A00A27080A128A1594278F
:1002C8000A128A1183120313A40023088400240845
:1002D8008313800027080A128A1559270A128A11DF
:1002E800831203137C28260884008313000A031949
:1002F800932923088400000A031993290530A400D0
:100308002408A0002308840000080A128A1565271B
:1003180083120313A5002508DE0001300800003011
:100328000800313083120313BD003D08C0000130BE
:10033800B007FF30300784000A128A1171250A12AB
:100348008A11BD003D08C50045080319652A2530F6
:1003580045060319BB292E08840083132F18831719
:10036800450880000130AE070318AF0A9B29C10178
:100378000130B007FF30300784000A128A11712556
:100388000A128A11C500003A0319652A643A03194A
:10039800D1290D3A0319D1299B29400884008313D8
:1003A8000008C300840A0008C4000230BD003D08EC
:1003B800C007C41FE8290330BD003D08C104C309B4
:1003C800C409C30A0319C40AC501C50A053045068C
:1003D80003190F2A4508BD003D07013E84000A1293
:1003E8008A1171250A128A11BE000A128A11712512
:1003F8000A128A11BF003F084402031D052A3E085D
:100408004302031C0F2A0130BD003D08C507053013
:100418004506031DEE294108033903191E2A2E0833
:10042800840083132F1883172D3080000130AE0706
:100438000318AF0A4508BD003D08C200FF30BD00E3
:100448003D08C207420A03199B290A30A800003058
:10045800A9004208BD003D07013E84000A128A1126
:1004680071250A128A11A0000A128A1171250A122E
:100478008A11A1004408A3004308A2000A128A11A5
:10048800F1260A128A11831203132108AB002008EF
:10049800AA000A128A11A2270A128A1183120313C8
:1004A8002808303EBE003E08C5002E08840083138D
:1004B8002F188317450880000130AE070318AF0ACC
:1004C800222A2E08840083172F1C8313800108001A
:1004D80083160313C200A03083120313AE0000304A
:1004E800AF001330C6004608B00083160313420855
:1004F80084008317000883120313C700C801470844
:10050800B1004808B20083160313420A84000008A9
:1005180083120313B300840A0008B400831603137C
:100528004208033E8400000883120313C900CA016D
:100538004908B5004A08B600831603134208043E6A
:100548008400000883120313CB00CC014B08B700CA
:100558004C08B800831603134208053E84000008BF
:1005680083120313CD00CE014D08B9004E08BA001E
:10057800831603134208063E8400000883120313FF
:10058800CF00D0014F08BB005008BC000A128A11E6
:1005980095210A128A1183120313AC01AC0A0030A8
:1005A8000A128A11D6270A128A11393083120313C4
:1005B800AC008030AD000A128A1105250A128A1192
:1005C80083120313C600460883160313C0004008AD
:1005D80083120313C600460883160313C10041089B
:1005E800803A703E03180F2B83120313A501A50A46
:1005F80020300A128A11BF250A128A11013083128B
:100608000313C600460883160313C1074108803A3E
:10061800703E031CF82A83120313AC01AC0A0030A5
:100628000A128A11D6270A128A11A03083120313DC
:10063800AC000030AD000A128A11052508008316A7
:100648000313C200A03083120313AE000030AF00C2
:100658002730C6004608B0008316031342088400FA
:100668008313000883120313C700C8014708B100A9
:100678004808B20083160313420A84000008831254
:100688000313C900CA014908B3004A08B400831615
:1006980003134208023E8400000883120313CB00B0
:1006A800CC014B08B5004C08B6008316031342086A
:1006B800033E8400000883120313CD00CE014D08C9
:1006C800B7004E08B8000A128A1195210A128A1139
:1006D80083120313AC01AC0A00300A128A11D62720
:1006E8000A128A11393083120313AC008030AD002E
:1006F8000A128A1105250A128A1183120313C600E9
:10070800460883160313C000400883120313C6006B
:10071800460883160313C1004108803A703E031847
:10072800AC2B83120313A501A50A20300A128A11E3
:10073800BF250A128A11013083120313C600460826
:1007480083160313C1074108803A703E031C952B9A
:1007580083120313AC01AC0A00300A128A11D6279F
:100768000A128A11A03083120313AC000030AD00C6
:100778000A128A1105250800F2007C08C33EF10020
:100788007108F3007230F1007108F4007D03031D55
:10079800FA2B7408840003100018031473088400EB
:1007A80083130010031800147408840003108018C1
:1007B80003147308840083138010031880147408CA
:1007C80084000310001903147308840083130011B4
:1007D80003180015740884000310801903147308A3
:1007E80084008313801103188015262C7408840054
:1007F80003100018031473088400831300120318ED
:100808000016740884000310801803147308840009
:1008180083138012031880167408840003100019CB
:100828000314730884008313001303180017740853
:100838008400031080190314730884008313801341
:10084800031880177D03031D2B2CFD010800FD01F3
:10085800FD0A7C080A128A154527F1007108FC0078
:10086800080083120313AE00C330AD00CD30AC00D6
:10087800AC0B3C2CAD0B3C2C0F3083120313AC009B
:100888002C088316031387058711871007110F306B
:1008980083120313AC002C088705871107118710F2
:1008A800552C83120313871587165A2C5B2C0000CE
:1008B800831203138711602C612C00000A128A111D
:1008C8009D240A128A1183120313A50128300A12E3
:1008D8008A11BF250A128A1183120313A5012E0853
:1008E8000C380A128A11BF250A128A1183120313BF
:1008F800A50140300A128A11BF250A128A118312F3
:100908000313AF0108302F0203180800A501A50A38
:100918002F08E33E8400831300080A128A11BF25BA
:100928000A128A11013083120313AC002C08AF0796
:10093800862C83120313A401F030A000200883162C
:10094800031387048312031307158710AB2C831234
:1009580003138715AF2C831203130708A000043074
:100968000310A00CFF3E031DB42C2008A100210891
:10097800A4002408A00003300310A00DFF3E031DAF
:10098800C02C0310200DA1002108A400CB2C831239
:1009980003138711CF2CD02C000083120313871563
:1009A800D52C831203130708A00004300310A00CF1
:1009B800FF3E031DDA2C2008A1002108A3000F30F8
:1009C800A0002008A30524082304A0002008A400F0
:1009D80024088039A0002008A200F22C83120313F7
:1009E8008711F62CF72C0000831203132208031D2D
:1009F800AB2C07110F30A0002008831603138705BE
:100A0800080083120313AF012D08FF002C0884008F
:100A18000A128A1167250A128A11003A0319652DEC
:100A28002D08FF002C0884000A128A1167250A1273
:100A38008A11253A031D4A2D0130AC070318AD0A67
:100A48002D08FF002C0884000A128A1167250A1253
:100A58008A11D03EAE002E08B000B01B3C2D3008E5
:100A6800803A783E03183C2DA501A50A3008552D7B
:100A7800A501A50A25300A128A11BF250A128A1172
:100A8800013083120313AE002E08AF07A501A50A93
:100A98002D08FF002C0884000A128A1167250A1203
:100AA8008A110A128A11BF250A128A11013083128B
:100AB8000313AE002E08AF070130AC070318AD0AC8
:100AC800082D2F080800FF1B712D83137F1883172B
:100AD8000008840A0319FF0A080005308A00040880
:100AE800840A82070034013400340A340034643440
:100AF8000034E834033410342734DE34DF34E0348F
:100B0800E134E134E034DF34DE344D343A34253432
:100B180064342C34253464342C34253464342C3433
:100B2800253464342C34253464342C34253464342A
:100B3800003443343A34253464342C342534643452
:100B48002C34253464342C3425346434003449344A
:100B5800443431343A3400344934443432343A3445
:100B680000344934443433343A3400344934443456
:100B780034343A34003483120313AA002A08A60036
:100B880004300310A60CFF3E031DC52D2608A70040
:100B98002708A8002A080F39A6002608A900250852
:100BA800031DD82D8710D92D8714DA2D831203132E
:100BB80087152808A60004300310A60DFF3E031D64
:100BC800E02D07080F392604A7002708AB002B08DB
:100BD8008700EE2DEF2D0000831203138711F42DEB
:100BE800F52D00008312031387152908A600043089
:100BF8000310A60DFF3E031DFC2D07080F39260420
:100C0800A7002708AB002B0887000A2E0B2E000030
:100C1800831203138711102E112E00000A128A1155
:100C28009D24080083120313AB002B08A800280892
:100C3800AA00AC012E30A8002808A3002D300A1203
:100C48008A1153200A128A11013A031D622E831257
:100C580003132D08A8002808AF002F08C33E8400FE
:100C680083130008A8002C082A07A9002908840073
:100C78002808831780000130A8002808AC072F082F
:100C8800C33E8400831380012E08A8002808A00012
:100C98002F080A128A1584270A128A11003A0319A2
:100CA800602E831203132F080A128A1559270A1275
:100CB8008A11831203132E2E013008000030080019
:100CC80083160313061583160317091083160313D7
:100CD80006148316031709128B170B168B1083162D
:100CE800031301130514831603170810831603133F
:100CF80085148316031788108316031305158316A6
:100D08000317081183160313851583160317881113
:100D1800831603138610831603170911831603130A
:100D28000512851283160317081283160313051379
:100D3800851383120313861483160313061683166A
:100D480003178911831603130617861683160317CC
:100D58008912831603138617080000300A128A11B5
:100D680035240A128A110A128A15C8270A128A110A
:100D78000A128A1164260A128A110A128A112F2766
:100D88000A128A110A128A1574270A128A11831202
:100D98000313A50101300A128A11BF250A128A110C
:100DA80083120313D1015F300A128A1123230A1216
:100DB8008A11831203136A080A128A1116260A1264
:100DC8008A11013A031DDD2E831203136A080A12E1
:100DD8008A116C220A128A11DD2E83120313A501CF
:100DE800A6012008210403192A2FA701A70AA11B7D
:100DF800092F01300310A00DA10DFF3E031DFE2E8B
:100E08000130A4002408A707FB2E01300310A50D0C
:100E1800A60DFF3E031D0A2F21082302031D162FCE
:100E280020082202031C1F2F2008A2022108031CED
:100E3800A303A302251401300310A10CA00CFF3E4C
:100E4800031D202F0130A702031D092F2608A1002A
:100E58002508A0000800353083120313A5002508D3
:100E6800D30000300A128A15B5270A128A11831294
:100E78000313A5002508D2003A30A5002508D5009F
:100E880001300A128A15B5270A128A118312031330
:100E9800A5002508D4003F30A5002508D70002305A
:100EA8000A128A15B5270A128A1183120313A5009C
:100EB8002508D6004430A5002508D90003300A12B9
:100EC8008A15B52783120313A5002508D800DA016F
:100ED80008008B1C952FFA017A30F5007508FB0085
:100EE8007B0884000010051800147B08840080101B
:100EF80083120313851880147B0884000011831261
:100F08000313051900157B0884008011831203134D
:100F1800851980157A080A128A11C0230A128A11C3
:100F28008B10790883120313FF0078088A0077086A
:100F38008400760E8300FE0E7E0E090083120313D2
:100F4800280829040319D12FAD01AD0AA91BB82F10
:100F580001300310A80DA90DFF3E031DAD2F013070
:100F6800AC002C08AD07AA2F29082B02031DBE2FA1
:100F780028082A02031CC62F2808AA022908031CCD
:100F8800AB03AB0201300310A90CA80CFF3E031DF4
:100F9800C72F0130AD02031DB82F2B08A9002A085E
:100FA800A800080083120313AE0014302E020318A1
:100FB8000800E72F2E17F52F1430E32F5430AD001B
:100FC8002D08AE07F52F2C08003A0319F52F013A22
:100FD8000319DE2F033A0319E02F013A0319E22F10
:100FE800F52FAE17A5012E080A128A11BF25080091
:020FF8000134C2
:101E6A0064008001840A0406031900340406362F2C
:101E7A000C34123412340C3400340034003400347C
:101E8A00F0001F307006031D4C2F00300800700848
:101E9A00013E0800F034F034F034F034F034013408
:101EAA000134B034B034013483120313A0001F305C
:101EBA002006031D622F003008002008013E08009A
:101ECA0083120313A2002008A1002108A2072030D0
:101EDA002202031C722F2030A202220808000030BE
:101EEA000A128A15B52783120313A5002508DF00F5
:101EFA000830A5002508E000E101E201080083128C
:101F0A000313A100210820020318902F2103FF3A8E
:101F1A002007203E08002103FF3A20070800831209
:101F2A000313A100200821020318A02F2003FF3A5F
:101F3A002107203E08002003FF3A210708007E08F7
:101F4A008A007F088200A4270A128A158000840A60
:101F5A0004087D0603190034FF0A0319FE0AA82F94
:101F6A0083120313A40024080A128A15DC27831299
:101F7A000313A2002408A3002307523E8400220868
:101F8A00831380000800831603138616831603172B
:101F9A008916831603131F12C030831203139F047A
:101FAA00831603139F17831203131F140800831247
:101FBA000313A100E22F831203136400831603178D
:101FCA008C18E02F831203132108831203178D0044
:101FDA003F3083120313A0002008831603178C05D1
:101FEA000C1403100C180314003003180130831268
:061FFA0003170C080800AB
:04400E003CFFFFFE76
:00000001FF
