:02000000FD2BD6
:100086008316851083128514033083169005FE307F
:100096008312A200A730A1006530A000A00B512852
:1000A600A10B5128A20B51285828FE308312A2001A
:1000B600A730A1006530A000A00B5F28A10B5F2828
:1000C600A20B5F286628FE308312A200A730A1008B
:1000D6006530A000A00B6D28A10B6D28A20B6D2822
:1000E6007428FE308312A200A730A1006530A0005C
:1000F600A00B7B28A10B7B28A20B7B288228FE3035
:100106008312A200A730A1006530A000A00B8928A9
:10011600A10B8928A20B89289028FE308312A20001
:10012600A730A1006530A000A00B9728A10B972847
:10013600A20B97289E2883128510A301A4012408E8
:10014600803ADF0080305F02031DAB2803302302B4
:1001560003184528FE308312A200A730A10065309F
:10016600A000A00BB428A10BB428A20BB428BB286E
:10017600FE308312A200A730A1006530A000A00BBC
:10018600C228A10BC228A20BC228C928FE3083129E
:10019600A200A730A1006530A000A00BD028A10BBB
:1001A600D028A20BD028D728FE308312A200A73071
:1001B600A1006530A000A00BDE28A10BDE28A20B53
:1001C600DE28E528FE308312A200A730A1006530A4
:1001D600A000A00BEC28A10BEC28A20BEC28F3281E
:1001E600FE308312A200A730A1006530A000A00B4C
:1001F600FA28A10BFA28A20BFA280129FE3083124D
:10020600A200A730A1006530A000A00B0829A10B11
:100216000829A20B08290F29FE308312A200A73055
:10022600A1006530A000A00B1629A10B1629A20B70
:1002360016291D29FE308312A200A730A1006530C1
:10024600A000A00B2429A10B2429A20B24292B29C9
:10025600FE308312A200A730A1006530A000A00BDB
:100266003229A10B3229A20B32293929FE308312F9
:10027600A200A730A1006530A000A00B4029A10B69
:100286004029A20B40294729FE308312A200A7303D
:10029600A1006530A000A00B4E29A10B4E29A20B90
:1002A6004E295529FE308312A200A730A1006530E1
:1002B600A000A00B5C29A10B5C29A20B5C29632979
:1002C600FE308312A200A730A1006530A000A00B6B
:1002D6006A29A10B6A29A20B6A297129FE308312A9
:1002E600A200A730A1006530A000A00B7829A10BC1
:1002F6007829A20B78297F29FE308312A200A73025
:10030600A1006530A000A00B8629A10B8629A20BAF
:1003160086298D29FE308312A200A730A100653000
:10032600A000A00B9429A10B9429A20B94299B2928
:10033600FE308312A200A730A1006530A000A00BFA
:10034600A229A10BA229A20BA229A929FE30831258
:10035600A200A730A1006530A000A00BB029A10B18
:10036600B029A20BB029B729FE308312A200A7300C
:10037600A1006530A000A00BBE29A10BBE29A20BCF
:10038600BE29C529FE308312A200A730A100653020
:10039600A000A00BCC29A10BCC29A20BCC29D329D8
:1003A600FE308312A200A730A1006530A000A00B8A
:1003B600DA29A10BDA29A20BDA29E129FE30831208
:1003C600A200A730A1006530A000A00BE829A10B70
:1003D600E829A20BE829EF29FE308312A200A730F4
:1003E600A1006530A000A00BF629A10BF629A20BEF
:1003F600F629FD29FE308312A200A730A100653040
:10040600A000A00B042AA10B042AA20B042A0B2A83
:10041600FE308312A200A730A1006530A000A00B19
:10042600122AA10B122AA20B122A192AFE308312B3
:10043600A200A730A1006530A000A00B202AA10BC6
:10044600202AA20B202A272AFE308312A200A730D8
:10045600A1006530A000A00B2E2AA10B2E2AA20B0C
:100466002E2A352AFE308312A200A730A10065305D
:10047600A000A00B3C2AA10B3C2AA20B3C2A432A33
:10048600FE308312A200A730A1006530A000A00BA9
:100496004A2AA10B4A2AA20B4A2A512AFE30831263
:1004A600A200A730A1006530A000A00B582AA10B1E
:1004B600582AA20B582A5F2AFE308312A200A730C0
:1004C600A1006530A000A00B662AA10B662AA20B2C
:1004D600662A6D2AFE308312A200A730A10065307D
:1004E600A000A00B742AA10B742AA20B742A7B2AE3
:1004F600FE308312A200A730A1006530A000A00B39
:10050600822AA10B822AA20B822A892AFE30831212
:10051600A200A730A1006530A000A00B902AA10B75
:10052600902AA20B902A972AFE308312A200A730A7
:10053600A1006530A000A00B9E2AA10B9E2AA20B4B
:100546009E2AA52AFE308312A200A730A10065309C
:10055600A000A00BAC2AA10BAC2AA20BAC2AB32A92
:10056600FE308312A200A730A1006530A000A00BC8
:10057600BA2AA10BBA2AA20BBA2AC12AFE308312C2
:10058600A200A730A1006530A000A00BC82AA10BCD
:10059600C82AA20BC82ACF2AFE308312A200A7308F
:1005A600A1006530A000A00BD62AA10BD62AA20B6B
:1005B600D62ADD2AFE308312A200A730A1006530BC
:1005C600A000A00BE42AA10BE42AA20BE42AEB2A42
:1005D600FE308312A200A730A1006530A000A00B58
:1005E600F22AA10BF22AA20BF22AF92AFE30831272
:1005F600A200A730A1006530A000A00B002BA10B24
:10060600002BA20B002B072BFE308312A200A73073
:10061600A1006530A000A00B0E2BA10B0E2BA20B88
:100626000E2B152BFE308312A200A730A1006530D9
:10063600A000A00B1C2BA10B1C2BA20B1C2B232BED
:10064600FE308312A200A730A1006530A000A00BE7
:100656002A2BA10B2A2BA20B2A2B312BFE3083121D
:10066600A200A730A1006530A000A00B382BA10B7B
:10067600382BA20B382B3F2BFE308312A200A7305B
:10068600A1006530A000A00B462BA10B462BA20BA8
:10069600462B4D2BFE308312A200A730A1006530F9
:1006A600A000A00B542BA10B542BA20B542B5B2B9D
:1006B600FE308312A200A730A1006530A000A00B77
:1006C600622BA10B622BA20B622B692BFE308312CD
:1006D600A200A730A1006530A000A00B702BA10BD3
:1006E600702BA20B702B772BFE308312A200A73043
:1006F600A1006530A000A00B7E2BA10B7E2BA20BC8
:100706007E2B852BFE308312A200A730A100653018
:10071600A000A00B8C2BA10B8C2BA20B8C2B932B4C
:10072600FE308312A200A730A1006530A000A00B06
:100736009A2BA10B9A2BA20B9A2BA12BFE3083127C
:10074600A200A730A1006530A000A00BA82BA10B2A
:10075600A82BA20BA82BAF2BFE308312A200A7302A
:10076600A1006530A000A00BB62BA10BB62BA20BE7
:10077600B62BBD2BFE308312A200A730A100653038
:10078600A000A00BC42BA10BC42BA20BC42BCB2BFC
:10079600FE308312A200A730A1006530A000A00B96
:1007A600D22BA10BD22BA20BD22BD92BFE3083122C
:1007B600A200A730A1006530A000A00BE02BA10B82
:1007C600E02BA20BE02BE72BFE308312A200A73012
:1007D600A1006530A000A00BEE2BA10BEE2BA20B07
:1007E600EE2BF52B01308312A3070318A40A003061
:0807F600A407A2288301432897
:02400E0014306C
:00000001FF
