:02000000FD2BD6
:100048008316051283120516FE30A200A730A10000
:100058006530A000A00B2E28A10B2E28A20B2E285D
:100068003528FE308312A200A730A1006530A00019
:10007800A00B3C28A10B3C28A20B3C284328FE30AF
:100088008312A200A730A1006530A000A00B4A2867
:10009800A10B4A28A20B4A285128FE308312A2003D
:1000A800A730A1006530A000A00B5828A10B582844
:1000B800A20B58285F28FE308312A200A730A100A7
:1000C8006530A000A00B6628A10B6628A20B662845
:1000D8006D28FE308312A200A730A1006530A00071
:1000E800A00B7428A10B7428A20B74287B28FE305F
:1000F8008312A200A730A1006530A000A00B8228BF
:10010800A10B8228A20B8228892883120512FE30AF
:10011800A200A730A1006530A000A00B9128A10B78
:100128009128A20B91289828FE308312A200A730AC
:10013800A1006530A000A00B9F28A10B9F28A20B4F
:100148009F28A628FE308312A200A730A1006530A0
:10015800A000A00BAD28A10BAD28A20BAD28B42898
:10016800FE308312A200A730A1006530A000A00BCA
:10017800BB28A10BBB28A20BBB28C228FE308312C8
:10018800A200A730A1006530A000A00BC928A10BD0
:10019800C928A20BC928D028FE308312A200A73094
:1001A800A1006530A000A00BD728A10BD728A20B6F
:1001B800D728DE28FE308312A200A730A1006530C0
:1001C800A000A00BE528A10BE528A20BE528EC2848
:1001D800FE308312A200A730A1006530A000A00B5A
:1001E800F328A10BF328A20BF328FA28FE30831278
:1001F800A200A730A1006530A000A00B0129A10B27
:100208000129A20B01290829FE308312A200A73078
:10021800A1006530A000A00B0F29A10B0F29A20B8C
:100228000F291629FE308312A200A730A1006530DD
:10023800A000A00B1D29A10B1D29A20B1D292429F3
:10024800FE308312A200A730A1006530A000A00BE9
:100258002B29A10B2B29A20B2B293229FE30831223
:10026800A200A730A1006530A000A00B3929A10B7E
:100278003929A20B39294029FE308312A200A73060
:10028800A1006530A000A00B4729A10B4729A20BAC
:1002980047294E29FE308312A200A730A1006530FD
:1002A800A000A00B5529A10B5529A20B55295C29A3
:1002B800FE308312A200A730A1006530A000A00B79
:1002C8006329A10B6329A20B63296A29FE308312D3
:1002D800A200A730A1006530A000A00B7129A10BD6
:1002E8007129A20B71297829FE308312A200A73048
:1002F800A1006530A000A00B7F29A10B7F29A20BCC
:100308007F298629FE308312A200A730A10065301C
:10031800A000A00B8D29A10B8D29A20B8D29942952
:10032800FE308312A200A730A1006530A000A00B08
:100338009B29A10B9B29A20B9B29A229FE30831282
:10034800A200A730A1006530A000A00BA929A10B2D
:10035800A929A20BA929B029FE308312A200A7302F
:10036800A1006530A000A00BB729A10BB729A20BEB
:10037800B729BE29FE308312A200A730A10065303C
:10038800A000A00BC529A10BC529A20BC529CC2902
:10039800FE308312A200A730A1006530A000A00B98
:1003A800D329A10BD329A20BD329DA29FE30831232
:1003B800A200A730A1006530A000A00BE129A10B85
:1003C800E129A20BE129E829FE308312A200A73017
:1003D800A1006530A000A00BEF29A10BEF29A20B0B
:1003E800EF29F629FE308312A200A730A10065305C
:1003F800A000A00BFD29A10BFD29A20BFD29042AB1
:10040800FE308312A200A730A1006530A000A00B27
:100418000B2AA10B0B2AA20B0B2A122AFE308312DD
:10042800A200A730A1006530A000A00B192AA10BDB
:10043800192AA20B192A202AFE308312A200A730FB
:10044800A1006530A000A00B272AA10B272AA20B28
:10045800272A2E2AFE308312A200A730A100653079
:10046800A000A00B352AA10B352AA20B352A3C2A5D
:10047800FE308312A200A730A1006530A000A00BB7
:10048800432AA10B432AA20B432A4A2AFE3083128D
:10049800A200A730A1006530A000A00B512AA10B33
:1004A800512AA20B512A582AFE308312A200A730E3
:1004B800A1006530A000A00B5F2AA10B5F2AA20B48
:1004C8005F2A662AFE308312A200A730A100653099
:1004D800A000A00B6D2AA10B6D2AA20B6D2A742A0D
:1004E800FE308312A200A730A1006530A000A00B47
:1004F8007B2AA10B7B2AA20B7B2A822AFE3083123D
:10050800A200A730A1006530A000A00B892AA10B8A
:10051800892AA20B892A902AFE308312A200A730CA
:10052800A1006530A000A00B972AA10B972AA20B67
:10053800972A9E2AFE308312A200A730A1006530B8
:10054800A000A00BA52AA10BA52AA20BA52AAC2ABC
:10055800FE308312A200A730A1006530A000A00BD6
:10056800B32AA10BB32AA20BB32ABA2AFE308312EC
:10057800A200A730A1006530A000A00BC12AA10BE2
:10058800C12AA20BC12AC82AFE308312A200A730B2
:10059800A1006530A000A00BCF2AA10BCF2AA20B87
:1005A800CF2AD62AFE308312A200A730A1006530D8
:1005B800A000A00BDD2AA10BDD2AA20BDD2AE42A6C
:1005C800FE308312A200A730A1006530A000A00B66
:1005D800EB2AA10BEB2AA20BEB2AF22AFE3083129C
:1005E800A200A730A1006530A000A00BF92AA10B3A
:1005F800F92AA20BF92A002BFE308312A200A73099
:10060800A1006530A000A00B072BA10B072BA20BA4
:10061800072B0E2BFE308312A200A730A1006530F5
:10062800A000A00B152BA10B152BA20B152B1C2B17
:10063800FE308312A200A730A1006530A000A00BF5
:10064800232BA10B232BA20B232B2A2BFE30831247
:10065800A200A730A1006530A000A00B312BA10B90
:10066800312BA20B312B382BFE308312A200A7307E
:10067800A1006530A000A00B3F2BA10B3F2BA20BC4
:100688003F2B462BFE308312A200A730A100653015
:10069800A000A00B4D2BA10B4D2BA20B4D2B542BC7
:1006A800FE308312A200A730A1006530A000A00B85
:1006B8005B2BA10B5B2BA20B5B2B622BFE308312F7
:1006C800A200A730A1006530A000A00B692BA10BE8
:1006D800692BA20B692B702BFE308312A200A73066
:1006E800A1006530A000A00B772BA10B772BA20BE4
:1006F800772B7E2BFE308312A200A730A100653035
:10070800A000A00B852BA10B852BA20B852B8C2B76
:10071800FE308312A200A730A1006530A000A00B14
:10072800932BA10B932BA20B932B9A2BFE308312A6
:10073800A200A730A1006530A000A00BA12BA10B3F
:10074800A12BA20BA12BA82BFE308312A200A7304D
:10075800A1006530A000A00BAF2BA10BAF2BA20B03
:10076800AF2BB62BFE308312A200A730A100653054
:10077800A000A00BBD2BA10BBD2BA20BBD2BC42B26
:10078800FE308312A200A730A1006530A000A00BA4
:10079800CB2BA10BCB2BA20BCB2BD22BFE30831256
:1007A800A200A730A1006530A000A00BD92BA10B97
:1007B800D92BA20BD92BE02BFE308312A200A73035
:1007C800A1006530A000A00BE72BA10BE72BA20B23
:1007D800E72BEE2BFE308312A200A730A100653074
:1007E800A000A00BF52BA10BF52BA20BF52BFC2BD6
:0607F800262883012428DD
:02400E0014306C
:00000001FF
