:020000001028C6
:10000800FE00030E83120313C0000408C1000A088F
:10001800C2007F08C3007F2CB32C83120313C900CE
:100028000130C7004708B40734080A3A031D1D28E1
:100038001E283E28B4013708203E84008313800818
:10004800031927282828362837084C3E84008008BA
:10005800003003190130C70037084C3E84004708B8
:1000680080003E2837084C3E840080010314800D30
:100078003E283E280130C7004708B6073608323AFE
:10008800031D472848284529B6013708203E840023
:10009800831380080319512852285C283708203E0A
:1000A800840001308002BA010314BA0D8329832920
:1000B800BA01B908031D612862287128AA08031D1E
:1000C800662867286D28B501B701AF01A501AA0107
:1000D80006290130AA0206290629CA01FE284A086B
:1000E8002A3E840083138008031D7B287C28F2287D
:1000F8004A083706031D812882288628B801031478
:10010800B80D86284A08C7004708CB00D5288312AF
:1001180003134B08013EC700003003180130C80024
:10012800370847064804031D9A289B28A3284B082C
:10013800C7004708B700B8010314B80DA3284B0837
:10014800013E2F3E840083130008C7004B082F3E52
:100158008400470880004B08013E253E84000008C3
:10016800C7004B08253E8400470880004B08013E25
:10017800203E84000008C7004B08203E8400470842
:1001880080004B08013E2A3E84000008C7004B0847
:100198002A3E8400470880000130C7004708CB0783
:1001A800D5283908FF3EC700FF3003180030C800C3
:1001B8004808803A803C031DE32847084B02031C8B
:1001C800E628E7288B28E828013083120313B902B0
:1001D8003908FF3EC7004708B500F9284A082A3EF3
:1001E8008400013083138002F9280130C7004708D2
:1001F800CA07FE2839084A02031C03290429732860
:10020800062906293808013A031D0B290C29252936
:100218003708203E840083130008033A031D15297C
:100228001629232986162730C800F530C700C70BC2
:100238001B29C80B1B298312031386122329B80113
:10024800452937085D2483120313C7004708B70000
:100258003708203E840083130008033A031D35291C
:100268003629452986162730C800F530C700C70B40
:100278003B29C80B3B2983120313861245294529BC
:10028800452937084C3E840083130008013A031DB2
:100298004E294F297729C40149082F3E84000008B8
:1002A800C0220D3083120313C800FB30C700C70BF0
:1002B8005B29C80B5B29602983120313C40103144B
:1002C800C40D4908253E840083130008C0220D3060
:1002D80083120313C800FB30C700C70B7129C80B72
:1002E800712976298329861306131A30C800F83035
:1002F800C700C70B7D29C80B7D2964008329080026
:1003080083120313BB000A30F0000030F1003B08F1
:10031800F900FA017908F2007A08F300F723700867
:10032800FB007B0883120313BC000A30F000003086
:10033800F1003B08F900FA017908F2007A08F300A5
:1003480083237008FB007B0883120313BD00BE01E2
:10035800D9293E082F3E8400831300083C06031960
:10036800B629B729B929D429D4293E08253E8400BD
:1003780000083D060319C129C229C429D429D42952
:100388000330F9003E08203E8400790880003C30A4
:10039800F9003E082A3E840079088000BF2ABF2A57
:1003A8000130F9007908BE07D92939083E02031C33
:1003B800DE29DF29AD29E029B908031DE429E5294B
:1003C800EA290130F9007908B907632A3908053A9A
:1003D800031DEF29F029592ABF013A2A8312031372
:1003E8003F08013E2F3E840083130008F9003F08B0
:1003F8002F3E8400790880003F08013E253E840096
:100408000008F9003F08253E8400790880003F086D
:10041800013E203E84000008F9003F08203E840089
:10042800790880003F08013E2A3E84000008F90050
:100438003F082A3E8400790880003F08013EF90001
:10044800003003180130FA00370879067A04031DD2
:100458002E2A2F2A352A0130B702B8010314B80D05
:10046800352A0130F9007908BF073A2A3908FF3ED2
:10047800F900FF3003180030FA007A08803A803C0F
:10048800031D482A79083F02031C4B2A4C2AF229EB
:100498004D2A83120313B708031D532A542A632ACB
:1004A800B8010314B80D632A632A0130F9007908EA
:1004B800B5070130F9007908B907632A632A3C08AF
:1004C800F90035082F3E84007908831380003D0821
:1004D800F9003508253E8400790880000330F900CA
:1004E8003508203E8400790880003C30F900350842
:1004F8002A3E840079088000BA08031D842A852AC8
:100508008D2AB8010314B80D3508F9007908B70029
:100518008D2A3908013A031D922A932AA02A8616A1
:100528002730FA00F530F900F90B982AFA0B982AC7
:10053800831203138612BF2A3808013A031DA52A1D
:10054800A62ABF2A3708203E840083130008033AEE
:10055800031DAF2AB02ABF2A86162730FA00F530C5
:10056800F900F90BB52AFA0BB52A83120313861280
:10057800BF2ABF2ABF2A080083120313C500772B9E
:10058800C408031DC82AC92ACF2A86130613403077
:1005980085008617822B86130613403085000617C0
:1005A800822B822BC408031DDA2ADB2AE12A861350
:1005B8000613E73085008617822B86130613E7306B
:1005C80085000617822B822BC408031DEC2AED2A0E
:1005D800F32A86130613903085008617822B86131C
:1005E8000613903085000617822B822BC408031D42
:1005F800FE2AFF2A052B86130613A13085008617CD
:10060800822B86130613A13085000617822B822BB6
:10061800C408031D102B112B172B86130613273024
:1006280085008617822B8613061327308500061748
:10063800822B822BC408031D222B232B292B8613E4
:100648000613293085008617822B86130613293056
:1006580085000617822B822BC408031D342B352BEB
:100668003B2B86130613283085008617822B8613AA
:100678000613283085000617822B822BC408031D19
:10068800462B472B4D2B86130613E3308500861720
:10069800822B86130613E33085000617822B822BE4
:1006A800C408031D582B592B5E2B8613061385018E
:1006B8008617822B8613061385010617822B822B39
:1006C800C408031D682B692B6F2B86130613013092
:1006D80085008617822B86130613013085000617BE
:1006E800822B822B822B450884000A3004020318CF
:1006F800822B04308A00C630040782000800F60105
:10070800F11F872B882B912BF009F109F00A0319A7
:10071800F10AF6010314F60D912BF31F942B952B78
:100728009F2BF209F309F20A0319F30A0130F400C6
:100738007408F6069F2BF701F80171087004031975
:10074800A62BA72BE52BF5010314F50DB72B0130CC
:100758000310F00DF10DFF3E031DAC2B0130F4002A
:100768007408F507B72BF11FBA2BBB2BAB2BBD2B8E
:10077800BD2B01300310F70DF80DFF3E031DBE2BF6
:1007880071087302031DCA2B70087202031CCD2B5B
:10079800CE2BD62B7008F2027108031CF303F30268
:1007A8007714D62B01300310F10CF00CFF3E031D1B
:1007B800D72B0130F502031DE22BE32BBD2BE52BD4
:1007C800E52B7608031DE92BEF2BF709F809F70A43
:1007D8000319F80AEF2B7808F101F1077708F001FF
:1007E800F007F62B0800F601F31FFB2BFC2B052C5A
:1007F800F209F309F20A0319F30AF6010314F60DD4
:10080800052CF11F082C092C0F2CF009F109F00A0E
:100818000319F10A0F2C710870040319142C152CF4
:100828004B2CF5010314F50D252C01300310F00DA8
:10083800F10DFF3E031D1A2C0130F4007408F50772
:10084800252CF11F282C292C192C2B2C2B2C71082A
:100858007302031D312C70087202031C342C352CD2
:100868003C2C7008F2027108031CF303F3023C2CC1
:1008780001300310F10CF00CFF3E031D3D2C01303C
:10088800F502031D482C492C2B2C4B2C4B2C76089D
:10089800031D4F2C552CF209F309F20A0319F30A28
:1008A800552C7308F101F1077208F001F0075C2C70
:1008B800080083120313C600B908031D642C652CB5
:1008C800682C46087E2C7E2C3908FF3EC400FF3079
:1008D80003180030C500460844064504031D752C5E
:1008E800762C7A2C00307E2C7E2C7E2C4608013EFD
:1008F8007E2C7E2C08000B1C822C832C8D2C061E33
:10090800862C872C8B2C06080F3984218B2C0B10F6
:100918008D2C831203134308FF0042088A00410804
:100928008400400E8300FE0E7E0E0900831603131A
:100938008E158B12831203139011831603139F13C2
:100948000C13203085001F30860083120313861293
:100958008316031381138B150B178B170800FC01E3
:10096800FD018313203084003B30D924E124CC00DE
:10097800E224CD00E324CE00E424CF00E524D00017
:100988008301D02CC42AD62AE82AFA2A0C2B1E2B3B
:10099800302B422B542B642B9A24D22C8312031312
:1009A80037081120D22CD22C102864008001840A28
:1009B8000406031900340406DA2C01340134013426
:0409C80001340134C1
:02400E0070DE62
:00000001FF
