:060000000A128A11122809
:10000800FE00030EF6000408F7000A08F800831241
:1000180003137F08F9000A128A15DE2B0A128A11C7
:100028001528FC01DA01DB018313D2308400DD30AE
:100038000A128A15E6210A128A1183179030840061
:10004800F0300A128A15E6210A128A11103084004B
:100058003E300A128A15E6210A128A118313D23019
:10006800FD000930FE00F830FF00C33084000A129A
:100078008A152D220A128A115A30FD000730FE0017
:10008800FB30FF00563084000A128A152D220A120E
:100098008A110A128A11FF27FD0083010A128A11A8
:1000A800552800300A128A1598270A128A110A124E
:1000B8008A1572220A128A110A128A15D0240A1283
:1000C8008A110A128A156A250A128A110A128A15D1
:1000D80086240A128A1183120313A50101300A1219
:1000E8008A15BE250A128A1183120317BE01993098
:1000F80083120313D100510883120317BF0078300D
:1001080083120313D100510883120317C000C101E1
:10011800453083120313D100510883120317C2001C
:10012800463083120313D100510883120317C3000A
:10013800C401B52A013083160313DB070318DC0A50
:100148000030DC07831203135708AB000130AC0002
:10015800831603135B080B3E83120313D100510867
:10016800AD00831603135B08163E83120313D200F7
:100178005208AE00831603135B08213E8312031353
:10018800D3005308AF00831603135B082C3E831279
:100198000313D4005408B0007130B1008030B200AD
:1001A8000330D5005508B3000A128A1187260A12AF
:1001B8008A11831203135708AC000130AD000A12EC
:1001C8008A1513240A128A118312031357080A1274
:1001D8008A11FE230A128A11063083120313D300F0
:1001E8001330D200B130D100D10BF828D20BF82847
:1001F800D30BF828FF28B52A5603031D4A29AC015A
:10020800AC0A00300A128A15C9220A128A114E3025
:1002180083120313AC008030AD000A128A15CE2673
:100228000A128A1183120313D1005108831203178B
:10023800C700470883120313D1005108831203171C
:10024800CD004D08803A703E0318412983120313EC
:10025800A501A50A20300A128A15BE250A128A119C
:10026800013083120313D100510883120317CD07FD
:100278004D08803A703E031C2A2983120313D601C5
:100288000A128A1570260A128A11982983120313F2
:10029800AC01AC0A00300A128A15C9220A128A1166
:1002A800383083120313AC008030AD000A128A156F
:1002B800CE260A128A1183120313D1005108831221
:1002C8000317C800480883120313D100510883128A
:1002D8000317CE004E08803A703E03188A2983120D
:1002E8000313A501A50A20300A128A15BE250A1291
:1002F8008A11013083120313D100510883120317A6
:10030800CE074E08803A703E031C732983120313EC
:10031800D9010A128A1570260A128A1101300A12A6
:100328008A11F2250A128A11063083120313D300A8
:100338001330D200B130D100D10BA029D20BA029A3
:10034800D30BA029A729B52A5608031D402A590806
:10035800031DF729AC01AC0A00300A128A15C9221C
:100368000A128A11353083120313AC008030AD00B5
:100378000A128A15CE260A128A1183120313D10093
:10038800510883120317C900490883120313D100C7
:10039800510883120317CF004F08803A703E0318A4
:1003A800EC2983120313A501A50A20300A128A1525
:1003B800BE250A128A11013083120313D100510895
:1003C80083120317CF074F08803A703E031CD529C4
:1003D80083120313D901D90A00300A128A11F225AF
:1003E8000A128A11402A83120313AC01AC0A0030A6
:1003F8000A128A15C9220A128A114230831203137B
:10040800AC008030AD000A128A15CE260A128A1175
:1004180083120313D100510883120317CA004A0834
:1004280083120313D100510883120317D000500818
:10043800803A703E0318372A83120313A501A50AD0
:1004480020300A128A15BE250A128A110130831239
:100458000313D100510883120317D0075008803ABC
:10046800703E031C202A83120313D601D60A0A12EF
:100478008A1579230A128A11063083120313D300CE
:100488001330D200B130D100D10B482AD20B482A00
:10049800D30B482A4F2AB52AAC01AC0A00300A12FD
:1004A8008A15C9220A128A11753083120313AC0007
:1004B8008030AD000A128A15CE260A128A118312DC
:1004C8000313D100510883120317CB004B08831282
:1004D8000313D100510883120317D1005108803A41
:1004E800703E03188E2A83120313A501A50A203033
:1004F8000A128A15BE250A128A11013083120313C3
:10050800D100510883120317D1075108803A703E71
:10051800031C772A831203135608031DA62A5908B9
:10052800031D9C2A0A128A11E4270A128A11A12A99
:100538000A128A1518220A128A110A128A157026B6
:100548000A128A11063083120313D3001330D20023
:10055800B130D100D10BAE2AD20BAE2AD30BAE2AC2
:10056800B52A83120313061D9E28061E0029061F9E
:10057800A829861E502A861BB52AAC01AC0A003071
:100588000A128A15C9220A128A116C3083120313BF
:10059800AC008030AD000A128A15CE260A128A11E4
:1005A80083120313D100510883120317CC004C089F
:1005B80083120313D100510883120317D200520883
:1005C800803A703E0318FF2A83120313A501A50A77
:1005D80020300A128A15BE250A128A1101308312A8
:1005E8000313D100510883120317D2075208803A27
:1005F800703E031CE82A831203135608031D172BA9
:100608005908031D0D2B0A128A155F220A128A1136
:10061800122B0A128A1507220A128A110A128A153F
:1006280070260A128A11063083120313D30013307E
:10063800D200B130D100D10B1F2BD20B1F2BD30B03
:100648001F2B262BB52A313083120313BD003D081A
:10065800C0000130B007FF30300784000A128A1149
:100668000A260A128A11BD003D08C500450803196B
:10067800F72B2530450603194D2B2E0884008313CC
:100688002F188317450880000130AE070318AF0AFA
:100698002D2BC1010130B007FF30300784000A124A
:1006A8008A110A260A128A11C500003A0319F72B83
:1006B800643A0319632B0D3A0319632B2D2B400859
:1006C800840083130008C300840A0008C4000230B1
:1006D800BD003D08C007C41F7A2B0330BD003D088C
:1006E800C104C309C409C30A0319C40AC501C50A58
:1006F800053045060319A12B4508BD003D07013EFD
:1007080084000A128A110A260A128A11BE000A12E5
:100718008A110A260A128A11BF003F084402031DE3
:10072800972B3E084302031CA12B0130BD003D0856
:10073800C50705304506031D802B410803390319F9
:10074800B02B2E08840083132F1883172D308000B8
:100758000130AE070318AF0A4508BD003D08C200C6
:10076800FF30BD003D08C207420A03192D2B0A308D
:10077800A8000030A9004208BD003D07013E8400E2
:100788000A128A110A260A128A11A0000A128A116C
:100798000A260A128A11A1004408A3004308A200ED
:1007A8000A128A1548240A128A118312031321088F
:1007B800AB002008AA000A128A15AA230A128A1175
:1007C800831203132808303EBE003E08C5002E08D9
:1007D800840083132F188317450880000130AE0763
:1007E8000318AF0AB42B2E08840083172F1C831319
:1007F8008001080083160313C200A030831203137C
:10080800AE000030AF001330C6004608B0008316B3
:100818000313420884008317000883120313C700D8
:10082800C8014708B1004808B20083160313420AFA
:100838008400000883120313B300840A0008B4007C
:10084800831603134208033E84000008831203132F
:10085800C900CA014908B5004A08B600831603133F
:100868004208043E8400000883120313CB00CC0125
:100878004B08B7004C08B800831603134208053E1E
:100888008400000883120313CD00CE014D08B9007F
:100898004E08BA00831603134208063E8400000877
:1008A80083120313CF00D0014F08BB005008BC00CF
:1008B8000A128A1127230A128A1183120313AC0120
:1008C800AC0A00300A128A15C9220A128A115C3051
:1008D80083120313AC008030AD000A128A15CE26AD
:1008E8000A128A1183120313C600460883160313DB
:1008F800C000400883120313C6004608831603137A
:10090800C1004108803A703E0318A12C83120313DA
:10091800A501A50A20300A128A15BE250A128A11D5
:10092800013083120313C600460883160313C10758
:100938004108803A703E031C8A2C83120313AC01D1
:10094800AC0A00300A128A15C9220A128A11A0308C
:1009580083120313AC000030AD000A128A15CE26AC
:10096800080031308400831603134B08831380007A
:10097800840A4C088000840A4D088000840A4E08C6
:100988008000840A4F088000043083120313B800E3
:100998000030B900B601B7012C082D040319B501C0
:1009A800AD1FE52CA501A50A2D300A128A15BE2512
:1009B8000A128A1183120313AC09AD09AC0A031990
:1009C800AD0A2C082D0403191A2D0A30A000003096
:1009D800A1002D08A3002C08A2000A128A151D25C3
:1009E8000A128A11831203132008AF003808313E17
:1009F80084002F08831380000A30A0000030A10073
:100A08002D08A3002C08A2000A128A1515260A121E
:100A18008A11831203132108AD002008AC00FF30AF
:100A2800B8070318B90AFF30B907E52C2E0A0319CD
:100A38002F2D2E08AF00B001AF1BB003AF09B009CE
:100A4800AF0A0319B00A2F08053EB600300803188C
:100A5800013E003EB7003708B9003608B80039082B
:100A6800803AFF0080307F02031D3C2D053038029C
:100A78000318080083120313A501A50A3808313E9C
:100A8800840083130008303E0A128A15BE250A1214
:100A98008A11013083120313B8070318B90A00300A
:100AA800B907332D83120313200884008317211CF0
:100AB80083130008A200A3012208A6002308A700A8
:100AC80003302007A20021080318013EA3002208D2
:100AD80084008317231C83130008A400A50124089D
:100AE800A6070318A70A2508A70704302007A200AD
:100AF80021080318013EA300220884008317231C41
:100B080083130008A400A5012408A6070318A70A50
:100B18002508A70705302007A20021080318013E71
:100B2800A300220884008317231C83130008A40051
:100B3800A5012408A6070318A70A2508A707063051
:100B48002007A20021080318013EA3002208840000
:100B58008317231C83130008A400A5012408A607F3
:100B68000318A70A2508A707A801200884008317E7
:100B7800211C83130008F93EA200FF30031800303F
:100B8800A3002308803A803C031DCC2D22082802AC
:100B98000318EB2D831203132808073E2007A20031
:100BA80021080318013EA300220884008317231C90
:100BB80083130008A400A5012408A6070318A70AA0
:100BC8002508A7070130A2002208A807B92D83121B
:100BD80003132708A1002608A000080083120313A6
:100BE800AC00A5012C080C380A128A15BE2508008D
:100C0000FF1B0A2E83137F1883170008840A031919
:100C1000FF0A080006308A000408840A82070034AC
:100C2000013400340A34003464340034E8340334CA
:100C300010342734DE34DF34E034E134E134E0349E
:100C4000DF34DE344D343A34253464342C342534E6
:100C500064342C34253464342C34253464342C34FA
:100C6000253464342C3425346434003443343A3429
:100C7000253464342C34253464342C3425346434E1
:100C80002C342534643400344E344F3454344534D9
:100C900044344934543420344D344F34443445348E
:100CA00000344E344F3452344D3441344C342034BB
:100CB0004D344F344434453400344D3445344E348F
:100CC000553420344D344F344434453400344934A1
:100CD000443431343A3400344934443432343A34CC
:100CE00000344934443433343A34003449344434DD
:100CF00034343A34003444344F3457344E340034AE
:100D00006134623463340034553450340034831217
:100D100003133308B400B5013408B6003508B70032
:100D200003302B07B4002C080318013EB50034082B
:100D300084008313351883172D08800004302B0797
:100D4000B4002C080318013EB50034088400831356
:100D5000351883172E08800005302B07B4002C08A7
:100D60000318013EB5003408840083133518831737
:100D70002F08800006302B07B4002C080318013E12
:100D8000B5003408840083133518831730088000B9
:100D900007302B07A0002C080318013EA1003108E2
:100DA000A2003208A3003708A5003608A4000A12E2
:100DB0008A151A230A128A11831203133308073E75
:100DC000B4002B08840083132C1883173408800088
:100DD0002B08A0002C08A1000A128A115625013008
:100DE000831203132B07B4002C080318013EB5002F
:100DF000340884008317351C831320088000840A7C
:100E0000210880000800F2007C08B03EF100710863
:100E1000F3007230F1007108F4007D03031D3D2FD3
:100E200074088400031000180314730884008317E7
:100E300000100318001474088400031080180314B1
:100E400073088400831780100318801474088400CA
:100E5000031000190314730884008317001103188A
:100E600000157408840003108019031473088400AB
:100E70008317801103188015692F740884000310EC
:100E80000018031473088400831700120318001657
:100E900074088400031080180314730884008317F7
:100EA00080120318801674088400031000190314BC
:100EB0007308840083170013031800177408840054
:100EC0000310801903147308840083178013031818
:100ED00080177D03031D6E2FFD010800FD01FD0A33
:100EE0007C080A128A15EE21F1007108FC00080046
:100EF00083120313A2002230A1002108A3002003C3
:100F0000031DAC2F230884008313001C8B2F831236
:100F1000031305168E2F8312031305122308840072
:100F20008313801C972F8312031385169A2F831225
:100F300003138512230884008313001DA32F83123B
:100F400003130517A62F8312031305132308840028
:100F500083138019D52FD92F230884008313001EF3
:100F6000B52F831203130516B82F8312031305122E
:100F7000230884008313801EC12F83120313851658
:100F8000C42F831203138512230884008313001FC8
:100F9000CD2F831203130517D02F831203130513CC
:100FA000230884008313801FD92F8312031385170E
:100FB000DC2F8312031385138610DE2FDF2F000032
:100FC0008312031386140800013083120313A60052
:100FD000831603135A0883120313A7002707D23E70
:100FE0008400260883138007831603135A080A1205
:100FF0008A153A22080001341034273401340134B0
:1013CC0064008001840A0406031900340406E7292A
:1013DC00F0001F307006031DF5290030080070085E
:1013EC00013E08000C34123412340C340034003436
:1013FC0000340034F034F034F034F034F034013490
:10140C0027340330831603135A06031D0F2ADA01FF
:10141C000800013083120313A00020088316031365
:10142C00DA070800831603135A08031D262A033013
:10143C0083120313A000200883160313DA0008009C
:10144C000130DA0208007E088A007F088200292217
:10145C000A128A158000840A04087D0603190034D8
:10146C00FF0A0319FE0A2D2A83120313A50025086F
:10147C00A3002307D23E840083130008A400240891
:10148C00A00025080A128A154923080083120313A9
:10149C00A40024080A128A15A52283120313A200A1
:1014AC002408A3002307D23E840022088313800063
:1014BC000800831603135A0883120313A600260789
:1014CC00D23E8400013083138002831603135A0822
:1014DC000A128A153A2208008316031386168316FD
:1014EC0003178916831603131F12C03083120313BC
:1014FC009F04831603139F17831203131F140800F2
:10150C0083120313AB0129082B02031808002B08C4
:10151C002707840028080318280AFF000A128A11DA
:10152C0000260A128A150A128A15EF220A128A1547
:10153C00013083120313AA002A08AB07892A8312ED
:10154C000313A100AB2A8312031364008316031741
:10155C008C18A92A831203132108831203178D00F8
:10156C003F3083120313A0002008831603178C0549
:10157C000C1403100C1803140030031801308312E0
:10158C0003170C08080083120313AE0014302E024C
:10159C0003180800DA2A2E17E82A1430D62A5430F9
:1015AC00AD002D08AE07E82A2C08003A0319E82AEA
:1015BC00013A0319D12A033A0319D32A013A031920
:1015CC00D52AE82AAE17A5012E080A128A15BE25BF
:1015DC00080083120313A600A001A00A26080A1211
:1015EC008A1178270A128A15213083120313A50059
:1015FC007630A400A40B002BA50B002B000083124B
:10160C000313A00126080A128A1178270A128A15D8
:10161C00213083120313A5007630A400A40B142BE5
:10162C00A50B142B00000800831203132208A90039
:10163C002308AA002008A7002108A8000130A40252
:10164C000030031CA503A502240A0319250A03195B
:10165C0008002A08FF00290884000A128A110026B3
:10166C000A128A15A60027088400831328188317EA
:10167C00260880000130A9070318AA0A0130A70721
:10168C000318A80A242B83120313A2008316031732
:10169C008C184C2B831203132208831203178D0012
:1016AC00831203132008831203178C003F3083121C
:1016BC000313A1002108831603178C05831203134F
:1016CC0003108B1B03148B13831603170C15553047
:1016DC008D00AA308D008C140C1183120313031C83
:1016EC0008008B17080083120313AC0100300A1298
:1016FC008A15C9220A128A155C3083120313AC00B6
:10170C008030AD000A128A15CE260A128A15831271
:10171C000313B1003108B2003208B1003108B30034
:10172C003308803A703E03180800A501A50A203042
:10173C000A128A15BE250A128A1501308312031368
:10174C00B1003108B307962B831203132808290420
:10175C000319D92BAD01AD0AA91BC02B0130031005
:10176C00A80DA90DFF3E031DB52B0130AC002C08B4
:10177C00AD07B22B29082B02031DC62B28082A0201
:10178C00031CCE2B2808AA022908031CAB03AB02AE
:10179C0001300310A90CA80CFF3E031DCF2B013008
:1017AC00AD02031DC02B2B08A9002A08A8000800B5
:1017BC008B1C062CFA017A30F5007508FB007B08AF
:1017CC0084000010051800147B088400801083121C
:1017DC000313851880147B088400001183120313F3
:1017EC00051900157B0884008011831203138519D9
:1017FC0080157A080A128A1103270A128A158B108F
:10180C00790883120313FF0078088A007708840094
:10181C00760E8300FE0E7E0E09000B30831203132E
:10182C00A7008030A8000430AE002E08A9000A12D0
:10183C008A1586220A128A15831203132C08AF000C
:10184C002D08B0002F08A7003008A8002C08840031
:10185C0083172D1C83130008AE002E08A9000A1252
:10186C008A1586220A128A150F3083120313A700D9
:10187C008030A8000430AE002E08A9000A128A1588
:10188C008622080083120313A601A7012008210455
:10189C000319812CA501A50AA11B602C0130031092
:1018AC00A00DA10DFF3E031D552C0130A4002408F2
:1018BC00A507522C01300310A60DA70DFF3E031DEA
:1018CC00612C21082302031D6D2C20082202031C0D
:1018DC00762C2008A2022108031CA303A3022614C1
:1018EC0001300310A10CA00CFF3E031D772C01301E
:1018FC00A502031D602C2708A1002608A0000800E3
:10190C0083120313A20108302202031808000830C6
:10191C00A0002208A10001300310A10DFF3E031D01
:10192C00922C0310210D903E840020088317800018
:10193C002208A0002208A10001300310A10DFF3ED7
:10194C00031DA32C0310210D013E903E84002008A2
:10195C0080002208A00001300310A00DFF3E031DE3
:10196C00B22C0310200D023E903E84008001220810
:10197C00A00001300310A00DFF3E031DC02C03106E
:10198C00200D033E903E840080010130A000200811
:10199C00A207892C83160313061583160317091047
:1019AC008316031306148316031709128B170B16D1
:1019BC008B108316031301130514831603170810D9
:1019CC0083160313851483160317881083160313C9
:1019DC000515831603170811831603138515831633
:1019EC000317881183160313861083160317091126
:1019FC008316031305128512831603170812831618
:101A0C000313051385138312031386148316031310
:101A1C0006168316031789118316031306178616E9
:101A2C008316031789128316031386170800831273
:101A3C000313A601A31F292DA209A309A20A0319A6
:101A4C00A30AA601A60AA11F302DA009A109A00A6C
:101A5C000319A10A2008210403195D2DA501A50A6B
:101A6C00A11B442D01300310A00DA10DFF3E031D41
:101A7C00392D0130A4002408A507362D2108230296
:101A8C00031D4A2D20082202031C522D2008A202FD
:101A9C002108031CA303A30201300310A10CA00C0A
:101AAC00FF3E031D532D0130A502031D442D2608B6
:101ABC000319652DA209A309A20A0319A30A230875
:101ACC00A1002208A0000800583083120313A500BF
:101ADC00250883160313D30000300A128A154C22F2
:101AEC000A128A1583120313A50025088316031303
:101AFC00D2005D3083120313A5002508831603134F
:101B0C00D50001300A128A154C220A128A1583124A
:101B1C000313A500250883160313D4006230831227
:101B2C000313A500250883160313D70002300A12ED
:101B3C008A154C220A128A1583120313A500250854
:101B4C0083160313D600673083120313A5002508F0
:101B5C0083160313D90003300A128A154C22831200
:101B6C000313A500250883160313D800DA01080017
:101B7C0083120313AA002A08A60004300310A60C33
:101B8C00FF3E031DC42D2608A7002708A8002A081D
:101B9C000F39A6002608A9002508031DD72D87108C
:101BAC00D82D8714D92D8312031387152808A60066
:101BBC0004300310A60DFF3E031DDF2D07080F395F
:101BCC002604A7002708AB002B088700ED2DEE2D6F
:101BDC000000831203138711F32DF42D00008312E0
:101BEC00031387152908A60004300310A60DFF3E29
:101BFC00031DFB2D07080F392604A7002708AB008F
:101C0C002B088700092E0A2E00008312031387115C
:101C1C000F2E102E00000A128A153027080083128E
:101C2C000313A601A11F212EA009A109A00A0319C3
:101C3C00A10AA601A60AA31F2C2EA209A309A20A77
:101C4C000319A30A0130A4002408A606A701A801C1
:101C5C00200821040319632EA501A50AA11B422EFD
:101C6C0001300310A00DA10DFF3E031D372E0130D6
:101C7C00A4002408A507342E01300310A70DA80DCD
:101C8C00FF3E031D432E21082302031D4F2E200867
:101C9C002202031C582E2008A2022108031CA303B5
:101CAC00A302271401300310A10CA00CFF3E031D4E
:101CBC00592E0130A502031D422E260803196B2E46
:101CCC00A709A809A70A0319A80A2808A100270828
:101CDC00A000080083120313AC0100300A128A150D
:101CEC00C9220A128A150314831603135A0DD23E05
:101CFC0084008313000883120313AC000030031D0F
:101D0C008030AD000A128A15CE260A128A1583126B
:101D1C000313BA003A08BE003E08BA003A08BF00E6
:101D2C003F08803A703E0318AE2EA501A50A20305C
:101D3C000A128A15BE250A128A1501308312031362
:101D4C00BA003A08BF073F08803A703E031C9B2E2E
:101D5C00AC0104300A128A15C9220A128A1583169C
:101D6C0003135A0883120313BA003A07D23E8400B5
:101D7C0083130008BB00BC013B08AC003C08AD0061
:101D8C000330BD003D08AE000A128A11B5240800CC
:101D9C0083120313AF012D08FF002C0884000A12D4
:101DAC008A1100260A128A15003A03192E2F2D08C3
:101DBC00FF002C0884000A128A1100260A128A15C8
:101DCC00253A031D132F0130AC070318AD0A2D085B
:101DDC00FF002C0884000A128A1100260A128A15A8
:101DEC00D03EAE002E08B000B01B052F3008803A54
:101DFC00783E0318052FA501A50A30081E2FA50152
:101E0C00A50A25300A128A15BE250A128A15013038
:101E1C0083120313AE002E08AF07A501A50A2D08E7
:101E2C00FF002C0884000A128A1100260A128A1557
:101E3C000A128A15BE250A128A1501308312031361
:101E4C00AE002E08AF070130AC070318AD0AD12E37
:101E5C002F08080083120313A401F030A0002008FF
:101E6C0083160313870483120313071587103E2F61
:101E7C00831203138715422F831203130708A00044
:101E8C0004300310A00CFF3E031D472F2008A100B7
:101E9C002108A4002408A00003300310A00DFF3E6D
:101EAC00031D532F0310200DA1002108A4005E2F49
:101EBC00831203138711622F632F00008312031305
:101ECC008715682F831203130708A0000430031032
:101EDC00A00CFF3E031D6D2F2008A1002108A300BC
:101EEC000F30A0002008A30524082304A00020081C
:101EFC00A40024088039A0002008A200852F83129A
:101F0C0003138711892F8A2F0000831203132208D1
:101F1C00031D3E2F07110F30A0002008831603135A
:101F2C008705080083120313AE00C330AD00CD301B
:101F3C00AC00AC0B9F2FAD0B9F2F0F3083120313F4
:101F4C00AC002C0883160313870587118710071123
:101F5C000F3083120313AC002C088705871107116F
:101F6C008710B82F8312031387158716BD2FBE2F2A
:101F7C000000831203138711C32FC42F00000A1211
:101F8C008A1530270A128A1583120313A5012830EB
:101F9C000A128A15BE250A128A1583120313A5018B
:101FAC002E080C380A128A15BE250A128A158312BD
:101FBC000313A50140300A128A15BE250A128A1590
:101FCC0083120313AF0108302F0203180800A50178
:101FDC00A50A2F08C33E8400831300080A128A1531
:101FEC00BE250A128A15013083120313AC002C088B
:041FFC00AF07E92F13
:04400E003CFFFFFE76
:00000001FF
