:060000000A128A11122809
:10000800FE00030EF0000408F1000A08F200831253
:1000180003137F08F3000A128A15B92E0A128A11EF
:1000280015288313643084006D300A128A15A726B8
:100038000A128A11A0308400B7300A128A15A7263E
:100048000A128A116430FD000E30FE00FD30FF00F8
:10005800543084000A128A15222783010A128A1151
:10006800352800300A128A11B0240A128A110A129D
:100078008A11E7270A128A110A128A119B270A1283
:100088008A110A128A15C2270A128A11F901013047
:100098000A128A11CA250A128A110B308312031315
:1000A800BA003A08A4001630BB003B08A50021306E
:1000B800BC003C08A6002C30BD003D08A70042301B
:1000C800BE003E08A8000330BF003F08A900620830
:1000D8000A128A1176260A128A11783083120313BB
:1000E800BA003A08C000C101DC2A6208BA003A081E
:1000F800C900D10162088400831300085102031863
:100108001C2951084907BA003A08D200520884004D
:100118008313001C93288312031306149628831252
:1001280003130610520884008313801C9F2883122F
:1001380003138614A228831203138610520884001E
:100148008313001DAB28831203130615AE288312F0
:1001580003130611520884008313801DB7288312E5
:1001680003138615BA288312031386118030850677
:10017800BD28BE2800008030831203138506213075
:10018800BB007630BA00BA0BC728BB0BC7280000E3
:100198008312031351084907BA003A08D3005308D9
:1001A80084008313001EDC28831203130614DF283F
:1001B800831203130610530884008313801EE82853
:1001C800831203138614EB28831203138610530833
:1001D80084008313001FF428831203130615F728DD
:1001E800831203130611530884008313801F002908
:1001F8008312031386150329831203138611803093
:100208008506062907290000803083120313850616
:100218002130BB007630BA00BA0B1029BB0B10296D
:100228000000013083120313BA003A08D1077E2870
:10023800A601A60A00300A128A154A270A128A114C
:1002480028300A128A116F250A128A1183120313A1
:10025800BA003A08C2004208BA003A08CA004A0876
:10026800803A703E03184B29F901F90A20300A1226
:100278008A11CA250A128A11013083120313BA009F
:100288003A08CA074A08803A703E031C3829A60172
:10029800A60A00300A128A154A270A128A1138302B
:1002A8000A128A116F250A128A1183120313620A2D
:1002B800840083130008A600840A0008A7000330FE
:1002C800BA003A08A8000A128A113D230A128A11B4
:1002D800063083120313BC001330BB00B130BA00E0
:1002E800BA0B7429BB0B7429BC0B74297B29DC2A33
:1002F8006103031DB529A601A60A00300A128A1552
:100308004A270A128A111A300A128A116F250A120C
:100318008A1183120313BA003A08C3004308BA00CB
:100328003A08CB004B08803A703E0318AE29F90111
:10033800F90A20300A128A11CA250A128A110130D4
:1003480083120313BA003A08CB074B08803A703E71
:10035800031C9B29E1010A128A1121260A128A111B
:10036800F22983120313A601A60A00300A128A157D
:100378004A270A128A1104300A128A116F250A12B2
:100388008A1183120313BA003A08C4004408BA0059
:100398003A08CC004C08803A703E0318E629F90167
:1003A800F90A20300A128A11CA250A128A11013064
:1003B80083120313BA003A08CC074C08803A703EFF
:1003C800031CD329E3010A128A1121260A128A1171
:1003D80001300A128A15AF260A128A1106308312D2
:1003E8000313BC001330BB00B130BA00BA0BFA29B2
:1003F800BB0BFA29BC0BFA29012ADC2A6108031D68
:10040800782A6308031D402AA601A60A00300A12AA
:100418008A154A270A128A1101300A128A116F2591
:100428000A128A1183120313BA003A08C500450854
:10043800BA003A08CD004D08803A703E0318372AB2
:10044800F901F90A20300A128A11CA250A128A11FA
:10045800013083120313BA003A08CD074D08803AD9
:10046800703E031C242AE301E30A00300A128A15AD
:10047800AF260A128A11782A83120313A601A60A44
:1004880000300A128A154A270A128A110E300A12F7
:100498008A116F250A128A1183120313BA003A08C7
:1004A800C6004608BA003A08CE004E08803A703EA8
:1004B8000318712AF901F90A20300A128A11CA258B
:1004C8000A128A11013083120313BA003A08CE07C0
:1004D8004E08803A703E031C5E2AE101E10A0A12C6
:1004E8008A1596270A128A11063083120313BC0054
:1004F8001330BB00B130BA00BA0B802ABB0B802A7C
:10050800BC0B802A872ADC2AA601A60A00300A1218
:100518008A154A270A128A1146300A128A116F254B
:100528000A128A1183120313BA003A08C70047084F
:10053800BA003A08CF004F08803A703E0318B72A2D
:10054800F901F90A20300A128A11CA250A128A11F9
:10055800013083120313BA003A08CF074F08803AD4
:10056800703E031CA42A6108031DCD2A6308031DDD
:10057800C32A0A128A150D270A128A11C82A0A12D2
:100588008A15D1260A128A110A128A1121260A12FC
:100598008A11063083120313BC001330BB00B1303C
:1005A800BA00BA0BD52ABB0BD52ABC0BD52ADC2A34
:1005B80083120313851E7928061E7C29061F022A2A
:1005C800861E882A861BDC2AA601A60A00300A1283
:1005D8008A154A270A128A113D300A128A116F2594
:1005E8000A128A1183120313BA003A08C80048088D
:1005F800BA003A08D0005008803A703E0318172B0A
:10060800F901F90A20300A128A11CA250A128A1138
:10061800013083120313BA003A08D0075008803A11
:10062800703E031C042B6108031D2D2B6308031D5A
:10063800232B0A128A11F1260A128A11282B0A1270
:100648008A15C4260A128A110A128A1121260A1248
:100658008A11063083120313BC001330BB00B1307B
:10066800BA00BA0B352BBB0B352BBC0B352B3C2BEF
:10067800DC2A2B308400831203135C088313800068
:10068800840A5D088000840A5E088000840A5F0886
:100698008000840A600880000430B2000030B30093
:1006A800B001B101260827040319AF01A71F6B2B5E
:1006B800F901F90A2D300A128A11CA250A128A117B
:1006C80083120313A609A709A60A0319A70A26086D
:1006D80027040319A02B0A30F4000030F50027087E
:1006E800F7002608F6000A128A114E270A128A1104
:1006F800740883120313A90032082B3E84002908CA
:10070800831380000A30F4000030F5002708F70052
:100718002608F6000A128A1114250A128A11750889
:1007280083120313A7007408A600FF30B20703184A
:10073800B30AFF30B3076B2B280A0319B52B280817
:10074800A900AA01A91BAA03A909AA09A90A0319A8
:10075800AA0A2908053EB0002A080318013E003EEF
:10076800B1003108B3003008B2003308803AFF0006
:1007780080307F02031DC22B0530320203180800A7
:10078800F901F90A8312031332082B3E84008313FC
:100798000008303E0A128A11CA250A128A1101304D
:1007A80083120313B2070318B30A0030B307B92B37
:1007B80083120313A3002308840083130008F600A0
:1007C800F7017608A0007708A1002308033E8400FB
:1007D8000008F600F7017608A0070318A10A7708B1
:1007E800A1072308043E84000008F600F7017608F4
:1007F800A0070318A10A7708A1072308053E84006B
:100808000008F600F7017608A0070318A10A770880
:10081800A1072308063E84000008F600F7017608C1
:10082800A0070318A10A7708A107A20123088400DA
:100838000008F93EF600FF3003180030F70077088B
:10084800803A803C031D2A2C760822020318432C88
:10085800831203132208073E2307F6007608840054
:1008680083130008F700F8017708A0070318A10A06
:100878007808A1070130F6007608A2071A2C83121F
:1008880003132108F5002008F4000800F801F030EF
:10089800F4007408831603138704831203130715DF
:1008A8008710562C8312031387155A2C83120313AF
:1008B8000708F40004300310F40CFF3E031D5F2CFE
:1008C8007408F5007508F8007808F4000330031080
:1008D800F40DFF3E031D6B2C0310740DF500750815
:1008E800F800762C8312031387117A2C7B2C0000D6
:1008F800831203138715802C831203130708F4004F
:1009080004300310F40CFF3E031D852C7408F50019
:100918007508F7000F30F4007408F70578087704B5
:10092800F4007408F80078088039F4007408F600B8
:100938009D2C831203138711A12CA22C000076088A
:10094800031D562C8312031307110F30F40074088B
:10095800831603138705080083120313A800C33006
:10096800A700CD30A600A60BB72CA70BB72C0F30CD
:1009780083120313A600260883160313870587111D
:10098800871007110F3083120313A6002608870566
:10099800871107118710D02C831203138715871628
:1009A800D52CD62C0000831203138711DB2CDC2CEA
:1009B80000000A128A114A240A128A11F901283001
:1009C8000A128A11CA250A128A11F901831203131D
:1009D80028080C380A128A11CA250A128A11F90144
:1009E80040300A128A11CA250A128A118312031387
:1009F800A9010830290203180800F901F90A290891
:100A0800543E8400831300080A128A11CA250A1268
:100A18008A11013083120313A6002608A907FD2CAA
:100A280083120313A101F51F202DF409F509F40A17
:100A38000319F50AA101A10AF71F2B2DF609F709D9
:100A4800F60A0319F70A0130F8007808A106A2018E
:100A5800A301740875040319622DA001A00AF51BEF
:100A6800412D01300310F40DF50DFF3E031D362D09
:100A78000130F8007808A007332D01300310A20DCB
:100A8800A30DFF3E031D422D75087702031D4E2D51
:100A980074087602031C572D7408F6027508031CA7
:100AA800F703F702221401300310F50CF40CFF3E93
:100AB800031D582D0130A002031D412D21080319E3
:100AC8006A2DA209A309A20A0319A30A2308F5009B
:100AD8002208F400080083120313A900A7012908BB
:100AE80084000A128A1100270A128A11003A03198F
:100AF800C82D290884000A128A1100270A128A11AF
:100B0800253A031DAF2D0130A6002608A90729089C
:100B180084000A128A1100270A128A11D03EA60000
:100B28002608A800A81BA12D2808803A783E03189B
:100B3800A12DF901F90A2808B82DF901F90A25307B
:100B48000A128A11CA250A128A1101308312031364
:100B5800A6002608A707F901F90A290884000A123D
:100B68008A1100270A128A110A128A11CA250A1242
:100B78008A11013083120313A6002608A707013043
:100B8800A6002608A907732D270808008312031357
:100B9800A4002408A00004300310A00CFF3E031D8D
:100BA800D02D2008A1002108A20024080F39A00098
:100BB8002008A3007908031DE32D8710E42D87146E
:100BC800E52D8312031387152208A00004300310B3
:100BD800A00DFF3E031DEB2D07080F392004A100CF
:100BE8002108A50025088700F92DFA2D0000831299
:100BF80003138711FF2D002E00008312031387159E
:100C08002308A00004300310A00DFF3E031D072E8B
:100C180007080F392004A1002108A500250887002E
:100C2800152E162E00008312031387111B2E1C2E5F
:100C380000000A128A114A24080083120313A6012D
:100C480000300A128A154A270A128A1103148312DD
:100C580003136C0D643E8400831300080A128A1182
:100C68006F250A128A1183120313B4003408B800DE
:100C78003808B4003408B9003908803A703E0318BF
:100C8800582EF901F90A20300A128A11CA250A12C7
:100C98008A11013083120313B4003408B9073908E4
:100CA800803A703E031C452EA60104300A128A15AC
:100CB8004A270A128A11831203136C08B4003407F6
:100CC800643E840083130008B500B6013508A60009
:100CD8003608A7000330B7003708A8000A128A119F
:100CE8003D23080083120313AE002908AA00AB01B4
:100CF8002A08AC002B08AD002408AA002E08033EE1
:100D080084002A08831380002508AA002E08043EC0
:100D180084002A0880002608AA002E08053E8400C0
:100D28002A0880002708AA002E08063E84002A0800
:100D380080002808AA002A08F4002D08F6002C08CC
:100D4800F5002E08073E0A128A11C5260A128A11D2
:100D5800831203132908073EAA002E0884002A08D4
:100D6800831380002E080A128A11DC2383120313CE
:100D78002E0A8400740883138000840A7508800092
:100D8800080083120313A0007408F7007708A20074
:100D98002008F7007708A1000130F5020030031C95
:100DA800F603F602750A0319760A031908002208E1
:100DB80084000A128A1100270A128A11F7002108F2
:100DC80084007708831380000130F7007708A207B2
:100DD8000130F7007708A107D02E831203136C089F
:100DE800A0002007643E84000130831380026C0851
:100DF8000A128A15ED26080007308A000408840ABA
:100E0800820700344E344F34543445344434493422
:100E1800543420344D344F344434453400344E3443
:100E28004F3452344D3441344C3420344D344F34E3
:100E38004434453400344D3445344E34553420342C
:100E48004D344F3444344534003449344434313417
:100E58003A3400344934443432343A34003449346E
:100E6800443433343A3400344934443434343A342E
:100E7800003453344E3444343A34003444344F3418
:100E880057344E340034613462346334003455349A
:100E98005034003483120313A101F71F5A2FF609A7
:100EA800F709F60A0319F70AA101A10AF51F612F2C
:100EB800F409F509F40A0319F50A74087504031905
:100EC8008E2FA001A00AF51B752F01300310F40D19
:100ED800F50DFF3E031D6A2F0130F8007808A007C2
:100EE800672F75087702031D7B2F74087602031C91
:100EF800832F7408F6027508031CF703F702013004
:100F08000310F50CF40CFF3E031D842F0130A002E2
:100F1800031D752F21080319962FF609F709F60AFC
:100F28000319F70A7708F5007608F4000800831615
:100F38000313851683160317081283160313051760
:100F480005148316031708108316031385148316D4
:100F58000317881083160313051583160317081142
:100F68008316031385158316031788118316031335
:100F780085130610831603170912831603138610A8
:100F88008316031709118316031306118316031713
:100F98000910831603138611831603178910831209
:100FA800031385178316031306168316031789116F
:100FB80083160313061786168316031789128316DA
:100FC8000313861708008316031386168316031760
:100FD8008916831603131F12C030831203139F044C
:0E0FE800831603139F17831203131F140800B0
:101D4E0064008001840A0406031900340406A82ED8
:101D5E0083120313A600F90126080C380A128A1101
:101D6E00CA2508007308FF0072088A0071088400F3
:101D7E00700E8300FE0E7E0E0900033083120313D5
:101D8E006C06031DCC2EEC0108000130F400740823
:101D9E00EC070800831203136C08031DDB2E0330BF
:101DAE00F4007408EC0008000130EC020800F800A2
:101DBE0078080A128A152F27F6007808F700770799
:101DCE00643E84007608831380000800F9007908C9
:101DDE00F7007707643E840083130008F800780844
:101DEE00F40079080A128A15702708000C34123490
:101DFE0012340C340034003400340034F034F03437
:101E0E00F034F034F0340134A03401340130831254
:101E1E000313A0006C08A1002107643E8400200873
:101E2E00831380076C080A128A15ED2608007E08B7
:101E3E008A007F0882001E270A128A158000840AF3
:101E4E0004087D0603190034FF0A0319FE0A222F27
:101E5E00F5006400831603178C18302F7508831253
:101E6E0003178D003F30F4007408831603178C059A
:101E7E000C1403100C1803140030031801308312D5
:101E8E0003170C08080083120313A800143028024D
:101E9E00031808005B2F2817692F1430572F543062
:101EAE00A7002708A807692F2608003A0319692FEB
:101EBE00013A0319522F033A0319542F013A031909
:101ECE00562F692FA817F90128080A128A11CA2558
:101EDE000800F600831603178C18712F76088312EC
:101EEE0003178D0074088C003F30F50075088316BB
:101EFE0003178C058312031303108B1B03148B1310
:101F0E00831603170C1555308D00AA308D008C14D6
:101F1E000C1183120313031C08008B170800831285
:101F2E000313A60100300A128A154A270A128A15CF
:101F3E0028300A128A116F250A128A15831203138A
:101F4E00AA002A08AB002B08AA002A08AC002C080D
:101F5E00803A703E03180800F901F90A20300A127F
:101F6E008A11CA250A128A15013083120313AA0098
:101F7E002A08AC07AE2F2430F90079088312031318
:101F8E00E50000300A128A15DE260A128A15F900BB
:101F9E00790883120313E4002930F9007908E70069
:101FAE0001300A128A15DE260A128A15F9007908FE
:101FBE0083120313E6002E30F9007908E90002308F
:101FCE000A128A15DE260A128A15F900790883127A
:101FDE000313E8003330F9007908EB0003300A12DE
:101FEE008A15DE26F900790883120313EA00EC0144
:021FFE000800D9
:04400E003CFFFFFE76
:00000001FF
