:060000000A128A11122809
:10000800FE00030E83120313AF000408B0000A08B1
:10001800B1007F08B2000A128A11AC2D0A128A11A7
:100028001528DB01DC0183160313C201C301831306
:100038005B30FD000C30FE00D230FF004D308400F4
:100048000A128A15E42483010A128A112B28003027
:100058000A128A111A260A128A110A128A15F1241A
:100068000A128A110A128A1588250A128A1183121D
:100078000313B80101300A128A15F7260A128A11E9
:1000880083120313BF0100300A128A1562250A126F
:100098008A1112300A128A11AB270A128A118312A6
:1000A8000313BF0107300A128A1562250A128A1142
:1000B80024300A128A11AB270A128A1183120313F9
:1000C800BF010A300A128A1562250A128A112030E5
:1000D8000A128A11AB270A128A1183120313BF016D
:1000E800BF0A00300A128A1562250A128A111730CF
:1000F8000A128A11AB270A128A1183120313BF014D
:10010800BF0A07300A128A1562250A128A1124309A
:100118000A128A11AB270A128A1183120313BF012C
:100128000D300A128A1562250A128A1128300A121D
:100138008A11AB270A128A1183120313BF01BF0A5F
:1001480004300A128A1562250A128A1183120313CF
:100158005C08C0005B08BF00033083160313B400BB
:10016800340883120313C1000A128A1100240A12E8
:100178008A1183120313BF0104300A128A156225FB
:100188000A128A1183160313430883120313C0004B
:1001980083160313420883120313BF000330831628
:1001A8000313B400340883120313C1000A128A111E
:1001B80000240A128A110A128A150E260A128A11B6
:1001C800831603133108C3003008C20083120313D7
:1001D8005C08803AFF0080307F02031DF528053057
:1001E8005B02031C1829831603134308803AB400E2
:1001F800831203135C08803A831603133402031D29
:100208000B29831203135B08831603134202031C92
:10021800182983120313BF010D300A128A156225AB
:100228000A128A111C303E29831203135B08FB3E15
:1002380083160313B400831203135C080318013EEA
:10024800FF3E83160313B5003508803AB60043080D
:10025800803A3602031D322942083402031C43291E
:1002680083120313BF010D300A128A1562250A1280
:100278008A1128300A128A11AB270A128A118312AE
:100288000313051BBD280310851903140030031838
:10029800013083160313B400B5010310B40DB50D76
:1002A8000310B40DB50D0310B40DB50D0310831272
:1002B80003130519031400300318013083160313C0
:1002C800B600B7010310B60DB70D0310B60DB70D84
:1002D8000310831203138518031400300318013028
:1002E80083160313B800B9010310B80DB90D031034
:1002F8008312031305180314003003180130831602
:100308000313BA00BB0138083A04BC0039083B049F
:10031800BD0036083C04BE0037083D04BF00340861
:100328003E04C00035083F04C1004008831203138F
:10033800DB0083160313410883120313DC005B1CE4
:10034800A929831203130614AC2983120313061078
:100358005C0883160313B500831203135B08831626
:100368000313B400350DB50CB40C341CBF2983122B
:1003780003138614C2298312031386105C0883169C
:100388000313B500831203135B0883160313B40029
:10039800350DB50CB40C350DB50CB40C341CD8297E
:1003A800831203130615DB298312031306115C0855
:1003B80083160313B500831203135B088316031314
:1003C800B400350DB50CB40C350DB50CB40C350DA9
:1003D800B50CB40C341CF429831203138615F729C1
:1003E80083120313861180308506FA29FB29000041
:1003F8008030831203138506A228831203133F0853
:10040800C5004008C6004108C7000310460D470D47
:10041800C800480883160313A0002008031D1D2ADE
:10042800003083120313BF000030C0000030C10049
:10043800080083124208C5004308C6004408C700E4
:100448000310460D470DC800480883160313A5007E
:100458002508031D382A003083120313BF0000301B
:10046800C0000030C10008008316031325087B3E36
:1004780083120313C500450883160313A0078312CC
:1004880003133F08C5004008C6004108C7001030E4
:100498000310C70CC60CC50CFF3E031D4C2A4508AB
:1004A800C800480883160313A500831203134208E3
:1004B800C5004308C6004408C70010300310C70C25
:1004C800C60CC50CFF3E031D622A4508C800480833
:1004D80083160313A506803083120313C50045084D
:1004E80083160313A50583120313C017C317FF3020
:1004F800C205FF30C3050030C4050030831603135E
:10050800A1000030A2000030A300073083120313BB
:10051800C500450883160313A400831203133F1C68
:10052800B32A420883160313A1078312031343084F
:1005380003110318430A0319A42A83160313A207F5
:1005480083120313440803110318440A0319AF2A3A
:1005580083160313A30783120313831603130130AF
:1005680003108312C10CC00CBF0CFF3E031DB42A3C
:1005780001300310C20DC30DC40DFF3E031DBD2A7B
:10058800013083160313A402031D912A0930831234
:100598000313C500450883160313A400831203132D
:1005A8003F1CF42A420883160313A107831203137E
:1005B800430803110318430A0319E52A8316031392
:1005C800A20783120313440803110318440A0319EA
:1005D800F02A83160313A307831203138316031346
:1005E800013003108312C10CC00CBF0CFF3E031D69
:1005F800F52A0130031083160313A30CA20CA10CD7
:10060800FF3E031DFE2A0130A402031DD22A210841
:1006180083120313B30083160313220883120313F0
:10062800B40083160313230883120313B50083163B
:100638000313200883120313C5004508B600831668
:100648000313250883120313C6004608B7000A12CD
:100658008A113E25831203133308BF003408C000F3
:100668003508C100080083120313490883160313D1
:10067800A600831203134A0883160313A7008312E4
:1006880003134B0883160313A8000310270D280D26
:10069800A9002908AF002F08031D5D2B0030831225
:1006A8000313CC000030CB000030CA000030C90072
:1006B80008008312490883160313A6008312031344
:1006C8004A0883160313A700831203134B088316E3
:1006D8000313A80017300310A80CA70CA60CFF3EA4
:1006E800031D6F2B2608A9002908AA0083120313EB
:1006F800CA17FF30C905FF30CA050030CB054908C5
:1007080083160313AB00831203134A0883160313DB
:10071800AC00831203134B0883160313AD00AE011C
:100728008E30AF02AF1FBA2B2F08803A8F3E0318C6
:10073800A82B003083120313CC000030CB0000300C
:10074800CA000030C90008000130031083160313E3
:10075800AE0CAD0CAC0CAB0CFF3E031DA92B01304D
:10076800A6002608AF070319DB2BA82B18302F0289
:10077800031CD62B003083120313CC000030CB00AF
:100788000030CA000030C900080001308316031386
:10079800A6000310AB0DAC0DAD0DAE0DA60BCD2B09
:1007A8000130AF02831603132F08031DC92B2A0833
:1007B8000319E92BAB09AC09AD09AE09AB0A03195A
:1007C800AC0A0319AD0A0319AE0A2E0883120313E3
:1007D800CC00831603132D0883120313CB00831652
:1007E80003132C0883120313CA00831603132B0860
:1007F80083120313C90008004430840083120313D2
:10080800550883138000840A56088000840A570814
:100818008000840A58088000840A5908800004303F
:10082800CB000030CC00C901CA013F0840040319BD
:10083800C801C01F2E2CB801B80A2D300A128A151B
:10084800F7260A128A1183120313BF09C009BF0AC7
:100858000319C00A3F0840040319632C0A30B30087
:100868000030B4004008B6003F08B5000A128A15E7
:100878005A260A128A11831203133308C2004B083E
:10088800443E84004208831380000A30B3000030DD
:10089800B4004008B6003F08B5000A128A11502774
:1008A8000A128A11831203133408C0003308BF00E8
:1008B800FF30CB070318CC0AFF30CC072E2C410A97
:1008C8000319782C4108C200C301C21BC303C20923
:1008D800C309C20A0319C30A4208053EC9004308EE
:1008E8000318013E003ECA004A08CC004908CB0064
:1008F8004C08803AFF0080307F02031D852C0530AC
:100908004B020318080083120313B801B80A4B08F6
:10091800443E840083130008303E0A128A15F726E5
:100928000A128A11013083120313CB070318CC0A69
:100938000030CC077C2C2330840083120313550825
:1009480083138000840A56088000840A57088000B0
:10095800840A58088000840A590880000430AA00D4
:100968000030AB00A801A901200821040319A70140
:10097800A11FCD2CF501F50A2D300A128A154E2734
:100988000A128A1183120313A009A109A00A0319E4
:10099800A10A200821040319022D0A30F0000030B2
:1009A800F1002108F3002008F2000A128A15C32575
:1009B8000A128A117008FC00831203132A08233EC6
:1009C80084007C08831380000A30F0000030F100B6
:1009D8002108F3002008F2000A128A15A7270A1234
:1009E8008A11710883120313A1007008A000FF3058
:1009F800AA070318AB0AFF30AB07CD2C220A03194C
:100A0800172D2208FC00FD01FC1BFD03FC09FD0954
:100A1800FC0A0319FD0A7C08053EA8007D08031896
:100A2800013E003EA9002908AB002808AA002B08AF
:100A3800803AFF0080307F02031D242D05302A02F2
:100A480003180800F501F50A831203132A08233E48
:100A5800840083130008303E0A128A154E270A12B2
:100A68008A11013083120313AA070318AB0A003056
:100A7800AB071B2D8312031336080319482D3508BD
:100A880034043304031D5B2D0030B3000030B40080
:100A98000030B50008000130B8003808B60701304A
:100AA8000310B50CB40CB30CFF3E031D542DFE30DF
:100AB80035050319762D4F2D0130B8003808B607D3
:100AC8000130B307003003180130B40700300318B1
:100AD8000130B50701300310B50CB40CB30CFF3E60
:100AE800031D6F2DFF3035050319852D602D01304D
:100AF800B60201300310B30DB40DB50DFF3E031D52
:100B08007E2DB41B8B2D0230360203187B2D361830
:100B1800932DFF30B3057F30B405FF30B5050310C2
:100B2800B60C3608B800B901BA0110300310B80D78
:100B3800B90DBA0DFF3E031D9A2D3808B3043908C4
:100B4800B4043A08B504370803190800B5170800B3
:100B58000B1C0A2EF50101300A128A154E270A12BB
:100B68008A11FC0100300A128A153C250A128A11E2
:100B780001300A128A15A7260A128A110130831237
:100B88000313DB070318DC0A0030DC075C08803A33
:100B9800FF0080307F02031DD32D97305B02031CBA
:100BA800D92D83120313DB01DC01FC01FC0A0030A0
:100BB8000A128A153C250A128A11831203135C084B
:100BC800A1005B08A0000330AC002C08A2000A12A8
:100BD8008A119F240A128A1124300A128A15A7261C
:100BE8000A128A110D3083120313AE00AF30AD0024
:100BF800C130AC00AC0BFE2DAD0BFE2DAE0BFE2DA7
:100C0800000083120313DA01DA0A0B1083160313A8
:100C18001612831203133208FF0031088A003008C5
:100C280084002F0E8300FE0E7E0E0900831203132C
:100C3800C100C330C000CD30BF00BF0B212EC00B98
:100C4800212E0F3083120313BF003F0883160313AE
:100C580087058711871007110F3083120313BF0010
:100C68003F0887058711071187103A2E831203134F
:100C7800871587163F2E402E000083120313871115
:100C8800452E462E00000A128A1182260A128A115F
:100C980083120313B80128300A128A15F7260A129C
:100CA8008A1183120313B80141080C380A128A15F5
:100CB800F7260A128A1183120313B80140300A1268
:100CC8008A15F7260A128A1183120313C201083003
:100CD800420203180800B801B80A42084D3E8400D1
:100CE800831300080A128A15F7260A128A1101309E
:100CF80083120313BF003F08C2076B2E831203132E
:100D0800B701F030B3003308831603138704831246
:100D1800031307158710902E831203138715942E3B
:100D2800831203130708B30004300310B30CFF3E0B
:100D3800031D992E3308B4003408B7003708B300F0
:100D480003300310B30DFF3E031DA52E0310330D12
:100D5800B4003408B700B02E831203138711B42EE1
:100D6800B52E0000831203138715BA2E83120313BE
:100D78000708B30004300310B30CFF3E031DBF2E59
:100D88003308B4003408B6000F30B3003308B60592
:100D980037083604B3003308B70037088039B30082
:100DA8003308B500D72E831203138711DB2EDC2EF0
:100DB8000000831203133508031D902E07110F300E
:100DC800B30033088316031387050800F401F030D5
:100DD800F0007008831603138704831203130715A2
:100DE8008710F62E831203138715FA2E8312031326
:100DF8000708F00004300310F00CFF3E031DFF2E1F
:100E08007008F1007108F4007408F0000330031052
:100E1800F00DFF3E031D0B2F0310700DF10071083C
:100E2800F400162F8312031387111A2F1B2F0000AB
:100E3800831203138715202F831203130708F0006A
:100E480004300310F00CFF3E031D252F7008F1003D
:100E58007108F3000F30F0007008F305740873048C
:100E6800F0007008F40074088039F0007008F2008F
:100E78003D2F831203138711412F422F0000720860
:100E8800031DF62E8312031307110F30F0007008AC
:100E9800831603138705080083120313B901B41FCF
:100EA8005C2FB309B409B30A0319B40AB901B90A22
:100EB800B61F672FB509B609B50A0319B60A013076
:100EC800B7003708B906BA01BB013308340403195F
:100ED8009E2FB801B80AB41B7D2F01300310B30D43
:100EE800B40DFF3E031D722F0130B7003708B80755
:100EF8006F2F01300310BA0DBB0DFF3E031D7E2F6F
:100F080034083602031D8A2F33083502031C932F39
:100F18003308B5023408031CB603B6023A1401308C
:100F28000310B40CB30CFF3E031D942F0130B8021C
:100F3800031D7D2F39080319A62FBA09BB09BA0A60
:100F48000319BB0A3B08B4003A08B300080083122F
:100F58000313C100410884000A128A1500200A12EE
:100F68008A11003A03190800410884000A128A15F8
:100F780000200A128A11253A031DE62F0130BF000E
:100F88003F08C107410884000A128A1500200A1286
:100F98008A11D03EBF003F08C000C01BDC2F4008AC
:100FA800803A783E0318DC2FB801B80A4008F12FC0
:100FB80083120313B801B80A25300A128A15F726D6
:100FC8000A128A1183120313B801B80A410884006F
:100FD8000A128A1500200A128A110A128A15F7269F
:100FE8000A128A11013083120313BF003F08C10798
:020FF800AE2F1A
:1010000008308A000408840A8207003454346834A3
:10101000653472346D346F346D34653474346534D2
:10102000723420347334653474343A3400344334C5
:10103000753472343A3400344D34613478343A348F
:1010400000344F344E3420340034573461343A3451
:10105000003425343034433400344F34463446347D
:0210600000345A
:1019A4000C34123412340C34003400340034003457
:1019B400F034F034F034F034F03401347E088A002A
:1019C4007F088200E0240A128A158000840A040831
:1019D4007D0603190034FF0A0319FE0AE42C83165A
:1019E40003138616831603178916831603131F120F
:1019F400C030831203139F04831603139F178312AB
:101A040003131F140800831203133B08B3003C089C
:101A1400B400B5018E30BE003E08B600B7010A120C
:101A24008A113E25831203133308BB003408BC001B
:101A34003508BD00080083120313B6003608B5004C
:101A4400B50DB50D1F083506C33935069F00A63000
:101A5400B500B50B2B2D0000831203139F149F18A0
:101A6400312D1E08B400831603131E0883120313BA
:101A7400B300080083120313A000143020020318DB
:101A840008004D2D20175B2D1430492D5430FD00D6
:101A94007D08A0075B2D7C08003A03195B2D013AF1
:101AA4000319442D033A0319462D013A0319482D0D
:101AB4005B2DA017F50120080A128A154E2708008D
:101AC40083120313C1001430410203180800732D5C
:101AD4004117812D14306F2D5430C0004008C107C8
:101AE400812D3F08003A0319812D013A03196A2D0B
:101AF400033A03196C2D013A03196E2D812DC11778
:101B0400B80141080A128A15F72608008316031340
:101B140005178316031789118316031305148316F7
:101B240003170810831603138514831603178810EC
:101B3400831603130515831603170811831603135D
:101B4400851583160317881183160313851306104E
:101B540083160317091283160313861083160317BB
:101B6400091183160313061183160317091083162C
:101B74000313861183160317891083120313851721
:101B84000800F601F31FCD2DF209F309F20A031937
:101B9400F30AF601F60AF11FD42DF009F109F00A4F
:101BA4000319F10A700871040319012EF501F50AED
:101BB400F11BE82D01300310F00DF10DFF3E031D64
:101BC400DD2D0130F4007408F507DA2D7108730275
:101BD400031DEE2D70087202031CF62D7008F2022C
:101BE4007108031CF303F30201300310F10CF00C31
:101BF400FF3E031DF72D0130F502031DE82D760885
:101C04000319092EF209F309F20A0319F30A7308F6
:101C1400F1007208F00008000D300A128A151D2523
:101C24000A128A1583120313340883160313B300AC
:101C340083120313330883160313B2003308831289
:101C44000313BC0083160313320883120313BB006F
:101C54000A128A1505250A128A15831203133B08F2
:101C6400C2003C08C3003D08C4003730BF00FA304E
:101C7400C0003E30C1000A128A1101220A128A15DC
:101C8400831203133F08C9004008CA004108CB006F
:101C94000A128A113723831203134A088316031383
:101CA400B10083120313490883160313B00008001C
:101CB40083120313B901B61F662EB509B609B50A16
:101CC4000319B60AB901B90AB41F6D2EB309B409D0
:101CD400B30A0319B40A3308340403199A2EB80159
:101CE400B80AB41B812E01300310B30DB40DFF3EAE
:101CF400031D762E0130B7003708B807732E340859
:101D04003602031D872E33083502031C8F2E330839
:101D1400B5023408031CB603B60201300310B40C38
:101D2400B30CFF3E031D902E0130B802031D812E1B
:101D340039080319A22EB509B609B50A0319B60A5A
:101D44003608B4003508B300080083120313A0005A
:101D5400200884000A128A1500200A128A15003A03
:101D640003190800200884000A128A1500200A12A8
:101D74008A15253A031DE02E0130FC007C08A007DB
:101D8400200884000A128A1500200A128A15D03EFF
:101D9400FC007C08A100A11BD82E2108803A783EC3
:101DA4000318D82EF501F50A2108EB2EF501F50AE2
:101DB40025300A128A154E270A128A15F501F50AEA
:101DC40083120313200884000A128A1500200A12C1
:101DD4008A150A128A154E270A128A150130FC0048
:101DE4007C0883120313A007AA2E83120313BD00D9
:101DF4003D08B90004300310B90CFF3E031DFD2E4D
:101E04003908BA003A08BB003D080F39B90039084F
:101E1400BC003808031D102F8710112F8714122FB0
:101E24008312031387153B08B90004300310B90D5E
:101E3400FF3E031D182F07080F393904BA003A086A
:101E4400BE003E088700262F272F000083120313AD
:101E540087112C2F2D2F00008312031387153C08A4
:101E6400B90004300310B90DFF3E031D342F0708D9
:101E74000F393904BA003A08BE003E088700422FE1
:101E8400432F0000831203138711482F492F0000AA
:101E94000A128A1182260800F8007808F600043035
:101EA4000310F60CFF3E031D522F7608F700770847
:101EB400F90078080F39F6007608FA007508031D52
:101EC400672F8312031387106A2F83120313871457
:101ED4006B2F8312031387157908F600043003105F
:101EE400F60DFF3E031D712F07080F397604F70026
:101EF4007708FB007B0887007F2F802F0000831268
:101F040003138711852F862F00008312031387156F
:101F14007A08F60004300310F60DFF3E031D8D2FE2
:101F240007080F397604F7007708FB007B08870061
:101F34009B2F9C2F0000831203138711A12FA22F24
:101F440000000A128A11EA260800F601F11FB12FD7
:101F5400F009F109F00A0319F10AF601F60AF31F70
:101F6400BC2FF209F309F20A0319F30A0130F40051
:101F74007408F606F701F801700871040319F32FC9
:101F8400F501F50AF11BD22F01300310F00DF10D0C
:101F9400FF3E031DC72F0130F4007408F507C42F5A
:101FA40001300310F70DF80DFF3E031DD32F710808
:101FB4007302031DDF2F70087202031CE82F7008E0
:101FC400F2027108031CF303F302771401300310C7
:101FD400F10CF00CFF3E031DE92F0130F502031D47
:101FE400D22F76080319FB2FF709F809F70A03190A
:0C1FF400F80A7808F1007708F0000800F7
:04400E003CFFFFFE76
:00000001FF
