:060000000A128A11122809
:10000800FE00030E83120313AF000408B0000A08B1
:10001800B1007F08B2000A128A11252E0A128A112D
:100028001528DA01DB0183160313DC01DD018313D4
:10003800C030FD000C30FE006730FF00A0308400A7
:100048000A128A150F240A128A115A30FD000B3041
:10005800FE00FC30FF004B3084000A128A150F2482
:1000680083010A128A11382800300A128A118F2651
:100078000A128A110A128A151C240A128A110A12F3
:100088008A15D3240A128A1183120313B801013086
:100098000A128A1541260A128A1183120313BF0114
:1000A80000300A128A15AD240A128A1112308312FE
:1000B8000313BF008030C0000A128A15A5270A1250
:1000C8008A1183120313BF0107300A128A15AD245F
:1000D8000A128A11243083120313BF008030C00033
:1000E8000A128A15A5270A128A1183120313BF015F
:1000F8000A300A128A15AD240A128A112030831296
:100108000313BF008030C0000A128A15A5270A12FF
:100118008A1183120313BF01BF0A00300A128A151D
:10012800AD240A128A11173083120313BF008030DE
:10013800C0000A128A15A5270A128A11831203130E
:10014800BF01BF0A07300A128A15AD240A128A11A4
:10015800243083120313BF008030C0000A128A15AE
:10016800A5270A128A1183120313BF010D300A1240
:100178008A15AD240A128A11283083120313BF008E
:100188008030C0000A128A15A5270A128A11831224
:100198000313BF01BF0A04300A128A15AD240A12DC
:1001A8008A11831203135B0883160313D600D70141
:1001B800560883120313BF008316031357088312CC
:1001C8000313C000033083160313D80058088312A2
:1001D8000313C1000A128A11D1230A128A11831249
:1001E8000313BF0104300A128A15AD240A128A11BA
:1001F800831603135D0883120313C00083160313C9
:100208005C0883120313BF00033083160313D60060
:10021800560883120313C1000A128A11D1230A1245
:100228008A110A128A150E250A128A1183160313D7
:100238005508DD005408DC000530831203135B0207
:10024800031C4229831603135D08803AD6008030C8
:100258005602031D3529831203135B088316031303
:100268005C02031C422983120313BF010D300A12DA
:100278008A15AD240A128A111C30632983120313CC
:100288005B08FB3E83160313D600FF3003180030CB
:10029800D7005708803AD8005D08803A5802031DF5
:1002A80057295C085602031C6D2983120313BF01EA
:1002B8000D300A128A15AD240A128A1128308312C9
:1002C8000313BF008030C0000A128A15A5270A123E
:1002D8008A1183120313051B852A83160313DB0176
:1002E8004A2A0310D60CFF3E031D75295608D7006D
:1002F800570885295B08A03E840083130008D600B0
:100308005608D900591C8C298312031306148F2907
:10031800831203130610831603135908D6000130FD
:100328000310D60CFF3E031D9429561C9F298312E7
:1003380003138614A229831203138610831603134A
:100348005908D60002300310D60CFF3E031DA7291A
:10035800561CB229831203130615B52983120313F9
:100368000611831603135908D60003300310D60C60
:10037800FF3E031DBA29561CC5298312031386158F
:10038800C82983120313861180308506CB29CC290E
:10039800000080308312031385064130831603134F
:1003A800D700EE30D600D60BD729D70BD7290000B7
:1003B800831603135B08A03E840083130008D6004D
:1003C80004300310D60CFF3E031DE5295608D7005C
:1003D8005708DA005A1CF429831203130614F72964
:1003E800831203130610831603135A08D60001302C
:1003F8000310D60CFF3E031DFC29561C072A831246
:10040800031386140A2A8312031386108316031310
:100418005A08D60002300310D60CFF3E031D0F2ADF
:10042800561C1A2A8312031306151D2A8312031356
:100438000611831603135A08D60003300310D60C8E
:10044800FF3E031D222A561C2D2A831203138615EC
:10045800302A83120313861180308506332A342A02
:10046800000080308312031385064130831603137E
:10047800D700EE30D600D60B3F2AD70B3F2A000014
:10048800013083160313D6005608DB0706305B02DB
:10049800031C7E2983120313BF01BF0A04300A120A
:1004A8008A15AD240A128A11831203135B08831676
:1004B8000313D600D701560883120313BF0083160F
:1004C8000313570883120313C00003308316031362
:1004D800D800580883120313C1000A128A11D123C5
:1004E8000A128A11063083160313D8001330D70076
:1004F800B130D600D60B7E2AD70B7E2AD80B7E2A9F
:10050800852A83120313BF01BF0A0A300A128A150B
:10051800AD240A128A11A03083120313BF000030E1
:10052800C0000A128A15A5270A128A11F328831215
:1005380003133F08C5004008C6004108C700031060
:10054800460D470DC800480883160313C00040082D
:10055800031DB72A003083120313BF000030C00008
:100568000030C100080083124208C5004308C600D5
:100578004408C7000310460D470DC80048088316F5
:100588000313C5004508031DD22A00308312031344
:10059800BF000030C0000030C100080083160313FC
:1005A80045087B3E83120313C500450883160313D1
:1005B800C007831203133F08C5004008C60041085E
:1005C800C70010300310C70CC60CC50CFF3E031D36
:1005D800E62A4508C800480883160313C500831295
:1005E80003134208C5004308C6004408C70010307A
:1005F8000310C70CC60CC50CFF3E031DFC2A45089A
:10060800C800480883160313C506803083120313F5
:10061800C500450883160313C50583120313C017C5
:10062800C317FF30C205FF30C3050030C4050030D2
:1006380083160313C1000030C2000030C300073026
:1006480083120313C500450883160313C4008312DD
:1006580003133F1C4D2B420883160313C107831253
:100668000313430803110318430A03193E2B831687
:100678000313C20783120313440803110318440A1F
:100688000319492B83160313C30783120313831615
:100698000313013003108312C10CC00CBF0CFF3EC2
:1006A800031D4E2B01300310C20DC30DC40DFF3EB8
:1006B800031D572B013083160313C402031D2B2B74
:1006C800093083120313C500450883160313C400B9
:1006D800831203133F1C8E2B420883160313C10792
:1006E80083120313430803110318430A03197F2BCA
:1006F80083160313C2078312031344080311031854
:10070800440A03198A2B83160313C307831203139E
:1007180083160313013003108312C10CC00CBF0CE5
:10072800FF3E031D8F2B0130031083160313C30CE8
:10073800C20CC10CFF3E031D982B0130C402031DDF
:100748006C2B410883120313B3008316031342086A
:1007580083120313B400831603134308831203138D
:10076800B50083160313400883120313C500450818
:10077800B60083160313450883120313C600460800
:10078800B7000A128A11B725831203133308BF0072
:100798003408C0003508C1000800C0308400831246
:1007A8000313530883138000840A54088000840AC2
:1007B80055088000840A56088000840A570880007B
:1007C800043083160313C7000030C800C501C601F2
:1007D800831203133F084004031DF52B83160313EC
:1007E800C4018312C01F072CB801B80A2D300A12A1
:1007F8008A1541260A128A1183120313BF09C009F8
:10080800BF0A0319C00A83123F0840040319432C86
:100818000A30B3000030B4004008B6003F08B50005
:100828000A128A159D250A128A11831203133308A6
:10083800C200831603134708C03E840083120313C3
:100848004208831380000A30B3000030B400400827
:10085800B6003F08B5000A128A154A270A128A11FB
:10086800831203133408C0003308BF00FF30831617
:100878000313C7070318C80AFF30C807072C410A23
:1008880003195F2C83124108C200C301C21BC303B2
:10089800C209C309C20A0319C30A4208053E8316DE
:1008A8000313C5008312031343080318013E003ED7
:1008B80083160313C600831603134608C8004508A9
:1008C800C7004808803AFF0080307F02031D6E2C65
:1008D800053047020318080083120313B801B80A49
:1008E800831603134708C03E840083130008303E74
:1008F8000A128A1541260A128A1101308316031337
:10090800C7070318C80A0030C807652C23308400BD
:1009180083120313530883138000840A5408800049
:10092800840A55088000840A56088000840A5708FB
:1009380080000430AA000030AB00A801A9012008FB
:1009480021040319A701A11FB82CF501F50A2D30C0
:100958000A128A1598260A128A1183120313A0090B
:10096800A109A00A0319A10A200821040319ED2CE2
:100978000A30F0000030F1002108F3002008F200EE
:100988000A128A1552250A128A117008FC0083126D
:1009980003132A08233E84007C08831380000A304E
:1009A800F0000030F1002108F3002008F2000A12DC
:1009B8008A15F1260A128A11710883120313A100FD
:1009C8007008A000FF30AA070318AB0AFF30AB0776
:1009D800B82C220A0319022D2208FC00FD01FC1B79
:1009E800FD03FC09FD09FC0A0319FD0A7C08053E04
:1009F800A8007D080318013E003EA9002908AB00A5
:100A08002808AA002B08803AFF0080307F02031DC7
:100A18000F2D05302A0203180800F501F50A831284
:100A280003132A08233E840083130008303E0A1269
:100A38008A1598260A128A11013083120313AA070D
:100A48000318AB0A0030AB07062D831603134608BC
:100A5800CA004708CB004808CC0003104B0D4C0DCA
:100A6800CD004D08D3005308031D432D0030C900A5
:100A78000030C8000030C7000030C6000800460833
:100A8800CA004708CB004808CC0017300310CC0C2C
:100A9800CB0CCA0CFF3E031D4A2D4A08CD004D0859
:100AA800CE00C717FF30C605FF30C7050030C805A0
:100AB8004608CF004708D0004808D100D2018E3040
:100AC800D302D31F852D5308803A8F3E0318752D06
:100AD8000030C9000030C8000030C7000030C60030
:100AE800080001300310D20CD10CD00CCF0CFF3E03
:100AF800031D762D0130CA004A08D3070319A02D1B
:100B0800752D18305302031C9D2D0030C90000308C
:100B1800C8000030C7000030C60008000130CA0015
:100B28000310CF0DD00DD10DD20DCA0B942D01306D
:100B3800D3025308031D922D4E080319AE2DCF0979
:100B4800D009D109D209CF0A0319D00A0319D10A49
:100B58000319D20A5208C9005108C8005008C70032
:100B68004F08C60008008312031336080319C12D65
:100B7800350834043304031DD42D0030B30000308D
:100B8800B4000030B50008000130B8003808B607D6
:100B980001300310B50CB40CB30CFF3E031DCD2D72
:100BA800FE3035050319EF2DC82D0130B80038087F
:100BB800B6070130B307003003180130B40700301E
:100BC80003180130B50701300310B50CB40CB30C91
:100BD800FF3E031DE82DFF3035050319FE2DD92DE5
:100BE8000130B60201300310B30DB40DB50DFF3E50
:100BF800031DF72DB41B042E023036020318F42D02
:100C080036180C2EFF30B3057F30B405FF30B5051C
:100C18000310B60C3608B800B901BA011030031039
:100C2800B80DB90DBA0DFF3E031D132E3808B304D5
:100C38003908B4043A08B504370803190800B51789
:100C480008000B1C7F2EF50101300A128A15982620
:100C58000A128A11FC0100300A128A1587240A1226
:100C68008A110130FC008030FD000A128A15EA253D
:100C78000A128A11013083120313AC002C08DB0717
:100C880097305B020318DB01FC01FC0A00300A12F2
:100C98008A1587240A128A11831203135B08AC0091
:100CA800AD012C08A0002D08A1000330AE002E08CD
:100CB800A2000A128A118A240A128A112430FC001E
:100CC8008030FD000A128A15EA250A128A110D30B1
:100CD80083120313AE00AF30AD00C130AC00AC0BD3
:100CE800732EAD0B732EAE0B732E000083120313FD
:100CF800D901D90A0B108316031316128312031392
:100D08003208FF0031088A00300884002F0E830063
:100D1800FE0E7E0E090083120313C100C330C0000B
:100D2800CD30BF00BF0B962EC00B962E0F3083120E
:100D38000313BF003F088316031387058711871025
:100D480007110F3083120313BF003F08870587116F
:100D580007118710AF2E8312031387158716B42E39
:100D6800B52E0000831203138711BA2EBB2E000084
:100D78000A128A11F7260A128A1183120313B8017C
:100D880028300A128A1541260A128A11831203137F
:100D9800B80141080C380A128A1541260A128A112C
:100DA80083120313B80140300A128A1541260A1229
:100DB8008A1183120313C201083042020318080083
:100DC800B801B80A42084B3E8400831300080A128F
:100DD8008A1541260A128A11013083120313BF00B3
:100DE8003F08C207E02E83120313B701F030B300A7
:100DF8003308831603138704831203130715871018
:100E0800052F831203138715092F8312031307086D
:100E1800B30004300310B30CFF3E031D0E2F33083C
:100E2800B4003408B7003708B30003300310B30D1B
:100E3800FF3E031D1A2F0310330DB4003408B7000A
:100E4800252F831203138711292F2A2F00008312BD
:100E5800031387152F2F831203130708B3000430D9
:100E68000310B30CFF3E031D342F3308B4003408BD
:100E7800B6000F30B3003308B60537083604B300A0
:100E88003308B70037088039B3003308B5004C2F52
:100E9800831203138711502F512F0000831203135D
:100EA8003508031D052F07110F30B30033088316CB
:100EB800031387050800F401F030F000700883166A
:100EC8000313870483120313071587106B2F8312EC
:100ED800031387156F2F831203130708F0000430DC
:100EE8000310F00CFF3E031D742F7008F100710809
:100EF800F4007408F00003300310F00DFF3E031DEA
:100F0800802F0310700DF1007108F4008B2F8312ED
:100F1800031387118F2F902F000083120313871557
:100F2800952F831203130708F00004300310F00C08
:100F3800FF3E031D9A2F7008F1007108F3000F306F
:100F4800F0007008F30574087304F0007008F400EA
:100F580074088039F0007008F200B22F831203136E
:100F68008711B62FB72F00007208031D6B2F83124D
:100F7800031307110F30F000700883160313870559
:100F88000800FF1BCF2F83137F1883170008840ADC
:100F98000319FF0A080007308A000408840A820738
:100FA800003454346834653472346D346F346D34BD
:100FB800653474346534723420347334653474346D
:100FC8003A3400344334753472343A3400344D348E
:100FD800613478343A3400344F344E342034003499
:100FE800573461343A3400342534303443340034CF
:080FF8004F3446344634003446
:1017F8000C34123412340C34003400340034003405
:10180800F034F034F034F034F034A03401347E088D
:101818008A007F0882000B240A128A158000840A35
:1018280004087D0603190034FF0A0319FE0A0F2C69
:101838008316031386168316031789168316031354
:101848001F12C030831203139F04831603139F17BC
:10185800831203131F140800831203133B08B300F9
:101868003C08B400B5018E30BE003E08B600B70192
:101878000A128A11B725831203133308BB003408F0
:10188800BC003508BD00080083120313B6003608F3
:10189800B500B50DB50D1F083506C33935069F00CF
:1018A800A630B500B50B562C0000831203139F1405
:1018B8009F185C2C1E08B400831603131E0883129D
:1018C8000313B30008003034313432343334343441
:1018D8000034003400340034003400340034003460
:1018E8000034003400340034003400340034003450
:1018F8000034003400340034003400340034003440
:1019080000340034003483120313A0001430200282
:1019180003180800982C2017A62C1430942C543047
:10192800FD007D08A007A62C7C08003A0319A62C08
:10193800013A03198F2C033A0319912C013A031920
:10194800932CA62CA017F50120080A128A159826B0
:10195800080083120313C100143041020318080061
:10196800BE2C4117CC2C1430BA2C5430C00040087F
:10197800C107CC2C3F08003A0319CC2C013A0319B3
:10198800B52C033A0319B72C013A0319B92CCC2CFE
:10199800C117B80141080A128A15412608008316A2
:1019A80003130517831603178911831603130514E8
:1019B8008316031708108316031385148316031759
:1019C8008810831603130515831603170811831649
:1019D80003138515831603178811831603138513BC
:1019E800061083160317091283160313861083162D
:1019F8000317091183160313061183160317091019
:101A08008316031386118316031789108312031391
:101A1800851708000D300A128A1548240A128A15FB
:101A2800831203133408CA003308C9004A08BC00EB
:101A38004908BB000A128A1530240A128A15831233
:101A480003133B08C2003C08C3003D08C4003730FC
:101A5800BF00FA30C0003E30C1000A128A119B2232
:101A68000A128A15831203133F0883160313C6004C
:101A780083120313400883160313C700831203134A
:101A8800410883160313C8000A128A1129258316F0
:101A980003134708D5004608D4000800F601F31FD1
:101AA8005C2DF209F309F20A0319F30AF601F60AA2
:101AB800F11F632DF009F109F00A0319F10A700802
:101AC80071040319902DF501F50AF11B772D0130EA
:101AD8000310F00DF10DFF3E031D6C2D0130F400D5
:101AE8007408F507692D71087302031D7D2D7008B0
:101AF8007202031C852D7008F2027108031CF3039F
:101B0800F30201300310F10CF00CFF3E031D862D8B
:101B18000130F502031D772D76080319982DF20977
:101B2800F309F20A0319F30A7308F1007208F000C6
:101B3800080083120313B901B61FA92DB509B60908
:101B4800B50A0319B60AB901B90AB41FB02DB30909
:101B5800B409B30A0319B40A330834040319DD2D90
:101B6800B801B80AB41BC42D01300310B30DB40D6D
:101B7800FF3E031DB92D0130B7003708B807B62D51
:101B880034083602031DCA2D33083502031CD22D32
:101B98003308B5023408031CB603B602013003103B
:101BA800B40CB30CFF3E031DD32D0130B802031D46
:101BB800C42D39080319E52DB509B609B50A031965
:101BC800B60A3608B4003508B30008007D08831249
:101BD8000313FF007C0884000A128A11C5270A1221
:101BE8008A15003A031908007D0883120313FF00C1
:101BF8007C0884000A128A11C5270A128A15253A18
:101C0800031D2A2E0130FC070318FD0A7D08FF007A
:101C18007C0884000A128A11C5270A128A15D03E48
:101C2800A0002008A100A11B222E2108803A783E9E
:101C38000318222EF501F50A2108372EF501F50AB9
:101C480025300A128A1598260A128A15F501F50A0E
:101C58007D0883120313FF007C0884000A128A118E
:101C6800C5270A128A150A128A1598260A128A1591
:101C78000130FC070318FD0AEA2D83120313BD0087
:101C88003D08B90004300310B90CFF3E031D472E70
:101C98003908BA003A08BB003D080F39B9003908BD
:101CA800BC003808031D5A2E87105B2E87145C2E43
:101CB8008312031387153B08B90004300310B90DCC
:101CC800FF3E031D622E07080F393904BA003A088F
:101CD800BE003E088700702E712E00008312031389
:101CE8008711762E772E00008312031387153C0880
:101CF800B90004300310B90DFF3E031D7E2E0708FE
:101D08000F393904BA003A08BE003E0887008C2E05
:101D18008D2E0000831203138711922E932E00003C
:101D28000A128A11F7260800F8007808F60004302D
:101D38000310F60CFF3E031D9C2E7608F70077086B
:101D4800F90078080F39F6007608FA007508031DBF
:101D5800B12E831203138710B42E83120313871432
:101D6800B52E8312031387157908F6000430031083
:101D7800F60DFF3E031DBB2E07080F397604F7004A
:101D88007708FB007B088700C92ECA2E0000831243
:101D980003138711CF2ED02E00008312031387154B
:101DA8007A08F60004300310F60DFF3E031DD72E07
:101DB80007080F397604F7007708FB007B088700CF
:101DC800E52EE62E0000831203138711EB2EEC2E6E
:101DD80000000A128A115F270800F601F11FFB2E86
:101DE800F009F109F00A0319F10AF601F60AF31FDE
:101DF800062FF209F309F20A0319F30A0130F40075
:101E08007408F606F701F8017008710403193D2FEC
:101E1800F501F50AF11B1C2F01300310F00DF10D2F
:101E2800FF3E031D112F0130F4007408F5070E2F33
:101E380001300310F70DF80DFF3E031D1D2F71082B
:101E48007302031D292F70087202031C322F7008B9
:101E5800F2027108031CF303F30277140130031034
:101E6800F10CF00CFF3E031D332F0130F502031D6A
:101E78001C2F76080319452FF709F809F70A0319E3
:101E8800F80A7808F1007708F000080083120313B5
:101E9800B901B41F562FB309B409B30A0319B40A18
:101EA800B901B90AB61F612FB509B609B50A0319F0
:101EB800B60A0130B7003708B906BA01BB013308C2
:101EC80034040319982FB801B80AB41B772F0130CE
:101ED8000310B30DB40DFF3E031D6C2F0130B70086
:101EE8003708B807692F01300310BA0DBB0DFF3E44
:101EF800031D782F34083602031D842F330835025A
:101F0800031C8D2F3308B5023408031CB603B60230
:101F18003A1401300310B40CB30CFF3E031D8E2F8E
:101F28000130B802031D772F39080319A02FBA0909
:101F3800BB09BA0A0319BB0A3B08B4003A08B30044
:101F48000800831203134008FF003F0884000A12A8
:101F58008A11C5270A128A15003A03190800831244
:101F680003134008FF003F0884000A128A11C5279E
:101F78000A128A15253A031DE72F0130BF070318F7
:101F8800C00A4008FF003F0884000A128A11C527CA
:101F98000A128A15D03EC1004108C200C21BDD2FBB
:101FA8004208803A783E0318DD2FB801B80A420883
:101FB800F42F83120313B801B80A25300A128A15C0
:101FC80041260A128A1583120313B801B80A400879
:101FD800FF003F0884000A128A11C5270A128A15D1
:101FE8000A128A1541260A128A1501308312031330
:081FF800BF070318C00AA52F62
:04400E003CFFFFFE76
:00000001FF
