:020000001728BF
:100008007E14803120007F08F5008B1C0D280C160B
:100018008B10911E1328E42220000C1691127508EB
:10002800FF007E1009001828F601F701E001E10140
:10003800E201E301E401A0308400003085002030B3
:100048000A24C330840083308500203086000030C5
:100058008700213010247E102000512A2830860085
:1000680000308700523084000030850005302000C1
:10007800D00016001A00D00B3D280430D9000030FB
:10008800DA00D701D8014D084E040319D601CE1F56
:100098005728C601C60A2D3002222000CD09CE09F4
:1000A800CD0A0319CE0A4D084E04031980280A30D8
:1000B800C1000030C2004E08C4004D08C3009E2293
:1000C80020004108D0005908523E86008701500898
:1000D80081000A30C1000030C2004E08C4004D083B
:1000E800C300102120004208CE004108CD00FF3097
:1000F800D907FF30DA3D57284F0A031993284F08CC
:10010800D000D101D01BD103D009D109D00A0319DD
:10011800D10A5008053ED7000030513DD800580894
:10012800DA005708D9005A08803AD00080305002C7
:10013800031DA02805305902031808002000C60135
:10014800C60A5908523E860087010108303E02223D
:1001580001302000D9070030DA3D97282000C5017A
:100168003C30C100410821008E0420008C160E107E
:100178000032003220008E140032003220000E08B7
:10018800C1000230C136890BC6284108C2004208A6
:10019800C5004508C1000330C135FF3E031DD02806
:1001A8004135C2004208C5000032003220008E10DE
:1001B800003200320032003220008E140032003249
:1001C80020000E08C1000230C136890BE82841081A
:1001D800C2004208C4000F30C1004108C4054508E8
:1001E8004404C1004108C50045088039C1004108E0
:1001F800C3000032003220008E100032003200327C
:10020800003220004308031DBE288C12C330C100F1
:10021800410821008E0508002000C701C21F1B29C4
:10022800C109C209C10A0319C20AC701C70AC41F02
:100238002629C309C409C30A0319C40A0130C50021
:100248004508C706C801C9014108420403195529D0
:10025800C601C60AC21B3A290130C135C20D890B35
:1002680031290130C5004508C6072E290130C83597
:10027800C90D890B3B2942084402031D4529410841
:100288004302031C4C294108C3024208C43B4814DA
:100298000130C236C10C890B4D290130C602031D3D
:1002A8003A29470803195D29C809C909C80A031961
:1002B800C90A4908C2004808C1000800FF30F60012
:1002C8002000C3004308F700210019088739703857
:1002D8009900782919307529403075292A307529EF
:1002E800243023009B009B2920004208253A03194B
:1002F80087296E3A03198C293B3A03199129F33A55
:10030800031996299B294108803A03196E299B29CC
:100318004108003A031970299B294108803A0319BA
:1003280072299B294108403A031974299B29230003
:100338001E159F1121000C108C1422001D159D17ED
:1003480023001E139E161E121E159D171D131D1623
:100358009D11210091160B178B1708002000D00063
:100368000230CF003830CE00AD30CD00CD0BBA29E9
:10037800CE0BBA29CF0BBA29C3302000CD004D08C7
:1003880021008E058E100E108C12C3302000CD0077
:100398004D088E058E108C120E100032003220008F
:1003A8008E148E15003200320032003220008E107A
:1003B8000032003200320032B2202000C60128305C
:1003C80002222000C60150080C3802222000C60173
:1003D800403002222000D1010830510203180800E1
:1003E800C601C60A5108203E86008701010802227C
:1003F80001302000CD004D08D107F0292000CB00A6
:100408004B08C7000430C736890B072A4708C800BD
:100418004808C9004B080F39C7004708CA004608F2
:10042800031D182A0E10192A0E140032003220005B
:100438008E144908C7000230C735890B202A0E08D8
:10044800C3394704C8004808CC004C088E00003265
:1004580000320032003220008E10003200320032AA
:10046800003220008E144A08C7000230C735890BB5
:100478003A2A0E08C3394704C8004808CC004C087B
:100488008E00003200320032003220008E1000321E
:10049800003200320032B22008000030B221F923C5
:1004A800162480302000C1002530C20062211C3093
:1004B8002000C2008430C300E4232000C6010130BC
:1004C80002222000CD0100305C2337302323200096
:1004D800CD01CD0A00305C232D30232320000C12DF
:1004E800A1232000DB005B08DE005E080319742AE4
:1004F8007F232000DB005B08DF003C300224200063
:100508005F0802243E3002242000C6010130022286
:100518002000CD0100305C2320005F08DB00DC01F7
:100528005B08CD005C08CE000330DD005D08CF001D
:100538003220742A2000C701C41FA92AC309C4098C
:10054800C30A0319C40AC701C70AC21FB02AC109CE
:10055800C209C10A0319C20A410842040319D72A69
:10056800C601C60AC21BC22A0130C135C20D890B99
:10057800B92A0130C5004508C607B62A4208440210
:10058800031DC82A41084302031CCE2A4108C3029E
:100598004208C43B0130C236C10C890BCF2A013056
:1005A800C602031DC22A47080319DF2AC309C40962
:1005B800C30A0319C40A4408C2004308C10008005A
:1005C80023001908F0007008F4001F30760603199C
:1005D80077080319042B7708F000F101F01BF103E9
:1005E80001307607F200F3010318F30AF61BF30350
:1005F80071087306031D022B70087206031D0C2B6D
:100608000130F0007008F707203077060319F7016A
:100618001F307606031D122BF601162B0130F00051
:100628007008F6077408F0007608A03E8600870177
:1006380070088100770A031D0800F70108002000F0
:10064800CF004F08860087010108031908004F08EA
:100658008600870125300106031D4E2B0130CD0091
:100668004D08CF074F08860087010108D03ECD000E
:100678004D08CE00CE1B492B4E08803A783E031811
:10068800492BC601C60A4E08552B2000C601C60ACA
:10069800253002222000C601C60A4F0886008701BD
:1006A8000108022201302000CD004D08CF07252B7C
:1006B8002000CF0014304F02031808006C2B4F178E
:1006C8007A2B1430682B5430CE004E08CF077A2B83
:1006D8004D08003A03197A2B013A0319632B033AA0
:1006E8000319652B013A0319672B7A2BCF17C6011B
:1006F8004F0802220800770A031D842B00300800E7
:100708007708A03E8600870101082000C100410843
:10071800C20077087606031D972BFF30F600C1004C
:100728004108F7009F2B0130C1004108F70720302E
:1007380077060319F70142080800770A031DA62B5C
:10074800003008007708803A2000C1007608803A17
:10075800C1020318B42B7703FF3A7607013E08005D
:100768007608803AC1007708803AC1020318C12B85
:100778007703FF3A7607213E0800013008000C3461
:10078800123412340C340034003400340034F034A1
:10079800F034F034F034F034523465346334763461
:1007A80000340034003400340034003453346534E9
:1007B8006E346434003400340034003400340034BF
:1007C800200042088400430885001200031908002D
:1007D80020004208840043088500000802240130F4
:1007E8002000C2070030C33DE42B21000C12230077
:1007F8000C1221000C1523000C1108002000C10068
:10080800111E042C410823009A000800640080018E
:100818000131890B0B2C0034FE0012001E00FE0B68
:10082800112C00348B170B168B10210015130800A0
:060838006134623400345B
:020000040001F9
:04000E0024FEFFFFCE
:00000001FF
