:040000000128EF2FB5
:100CE000FE0012001E00FE0B712E0034003008279B
:100CF000F50101304E278130FC008630FD008F2643
:100D0000802E483465346C346C346F34203457345E
:100D10006F3472346C3464342034213400347C08F1
:100D200084007D0885001200031908007C088400F7
:100D30007D0885001200253A031DBB2E0130FC07FB
:100D40000030FD3D7C0884007D0885000008D03E11
:100D50002000E5006508E600E61BB72E6608803A2D
:100D6000783E0318B72EF501F50A6608C22EF50184
:100D7000F50A25304E27F501F50A7C0884007D0828
:100D8000850000084E270130FC070030FD3D8F2E06
:100D90000C34123412340C34003400340034003477
:100DA000003404340E341F340E3404340034003460
:100DB00004340434043404341F340E340434003452
:100DC0000A34153411340A34043400340034003445
:100DD0000A341F341F340E34043400340034003419
:100DE0000034003400340034003400340034003463
:100DF0000034003400340034003400340034003453
:100E00000034003400340034003400340034003442
:100E10002000E500C330FD00CD30FC00FC0B0E2FA0
:100E2000FD0B0E2FC330FC007C0821008E058E10B8
:100E30000E100C12C330FC007C0820008E058E10B2
:100E40000C120E10003220008E148E15003200326B
:100E5000000020008E100032003200009927F501BA
:100E600028304E27F501200065080C384E27F50183
:100E700040304E272000E60140306602031808008B
:100E8000F501F50A6608203E8600870101084E2715
:100E90000130FC007C082000E6073C2FFA007A08AD
:100EA000F6000430F636890B522F7608F7007708E3
:100EB000F8007A080F39F6007608F9007508031D66
:100EC000642F20000E10662F20000E140032200028
:100ED0008E147808F6000230F635890B6C2F0E0858
:100EE000C3397604F7007708FB007B088E000032D8
:100EF0000032000020008E1000320032000020007E
:100F00008E147908F6000230F635890B842F0E080E
:100F1000C3397604F7007708FB007B088E000032A7
:100F20000032000020008E100032003200009927AD
:100F30000800F4013C30F000700821008E0420000D
:100F40000C160E10003220008E14003220000E0805
:100F5000F0000230F036890BAA2F7008F1007108FA
:100F6000F4007408F0000330F035FF3E031DB42F89
:100F70007035F1007108F400003220008E1000324C
:100F80000032000020008E14003220000E08F00015
:100F90000230F036890BC92F7008F1007108F30098
:100FA0000F30F0007008F30574087304F000700847
:100FB000F40074088039F0007008F200003220005C
:100FC0008E100032003200007208031DA32F200093
:100FD0000C12C330F000700821008E050800E001FB
:100FE000E101E201E301E401C830840086308500BC
:100FF0002030860000308700403070262000762E9A
:020000040001F9
:04000E00E2FFFFFF0F
:00000001FF
