:0200000047288F
:100008007E14803120007F08AE000B1C4228270098
:1000180093183A28412801302000DF070030E03DDE
:100028006008803AAC0080302C02031D1D289730F0
:100038005F02031C22282000DF01E001FC01FC0A0A
:100048000430782720006008A1005F08A000033072
:10005800AC002C08A2002B2341302000AD00EE306C
:10006800AC00AC0B3528AD0B3528000020008C18EF
:100078000F28DC01DC0A270093100B1020002E0843
:10008800FF007E1009004828DD01DE01DF01E001E4
:10009800E3308400873085005730860000308700C1
:1000A8000630E927DB30840087308500A9308600D8
:1000B800003087000830E9277E10200063280030D0
:1000C800F525C927EF27F52720000C128C16B40157
:1000D8000130AB252000BB01003055279B302000A4
:1000E800BB008730BC00C9262000BB01073055275C
:1000F800AD302000BB008730BC00C9262000BB0102
:100108000A305527A9302000BB008730BC00C9261B
:100118002000BB01BB0A00305527A0302000BB00DF
:100128008730BC00C9262000BB01BB0A0730552711
:10013800AD302000BB008730BC00C9262000BB01C1
:100148000D305527B1302000BB008730BC00C926D0
:100158002000BB01BB0A0430552720006008BC0002
:100168005F08BB0003302100A60026082000BD0060
:10017800AB222000BB010430552720005E08BC00DC
:100188005D08BB0003302100A60026082000BD0042
:10019800AB22062720005408DE005308DD00600863
:1001A800803A2100A60080302602031DDE28053093
:1001B80020005F02031CFF2820005E08803A21000F
:1001C800A60020006008803A21002602031DEF28BF
:1001D80020005F085D02031CFF282000BB010D30D2
:1001E8005527A5302000BB008730BC00C926200059
:1001F8000C168C12262920005F08FB3E2100A60061
:10020800FF302000603D2100A7002708803AA800A1
:1002180020005E08803A21002802031D17292000CB
:100228005D0821002602031C26292000BB010D3091
:100238005527B1302000BB008730BC00C9262000FC
:100248000C128C1620008C1CBE280130DF070030F1
:10025800E03D6008803A2100A60080302602031D98
:100268003829973020005F02031C3D292000DF0158
:10027800E0012000BB01BB0A0430552720006008BC
:10028800BC005F08BB0003302100A6002608200040
:10029800BD00AB2221302100A7007630A600A60BB6
:1002A8005329A70B53290000262920003B08C10029
:1002B8003C08C2003D08C3000310420D430DC400B2
:1002C8004408C5004508031D70290030BB000030F4
:1002D800BC000030BD0008003E08C1003F08C20055
:1002E8004008C3000310420D430DC4004408CA006F
:1002F8004A08031D86290030BB000030BC000030CE
:10030800BD0008004A087B3EC1004108C5073B08FC
:10031800C1003C08C2003D08C3001030C336C20CFF
:10032800C10C890B92294108C4004408CA003E0840
:10033800C1003F08C2004008C3001030C336C20CD9
:10034800C10C890BA2294108C4004408CA068030A0
:10035800C1004108CA05BC17BF17FF30BE05FF30F2
:10036800BF050030C0050030C6000030C7000030AF
:10037800C8000730C1004108C9003B1CC9293E0814
:10038800C6073F08C73D4008C83D0130BD36BC0C14
:10039800BB0C890BCA290130BE35BF0DC00D890BB6
:1003A800D0290130C902031DC1290930C100410803
:1003B800C9003B1CE5293E08C6073F08C73D400861
:1003C800C83D0130BD36BC0CBB0C890BE629013099
:1003D800C836C70CC60C890BEC290130C902031DAD
:1003E800DD294608AF004708B0004808B1004508B5
:1003F800C1004108B2004A08C2004208B300AB235A
:1004080020002F08BB003008BC003108BD000800E0
:1004180020004B08CF004C08D0004D08D100031035
:10042800500D510DD20052082100A5002508031DCA
:10043800272A00302000CE000030CD000030CC004C
:100448000030CB00080020004B08CF004C08D0003B
:100458004D08D1001730D136D00CCF0C890B2F2A7C
:100468004F08D20052082100A0002000CC17FF300E
:10047800CB05FF30CC050030CD054B082100A1008D
:1004880020004C082100A20020004D082100A300F4
:10049800A4018E30A502A51F712A2508803A8F3E37
:1004A8000318602A00302000CE000030CD00003054
:1004B800CC000030CB00080001302100A436A30C8A
:1004C800A20CA10C890B612A01302000CF004F0833
:1004D8002100A50703198D2A602A18302502031C5C
:1004E800892A00302000CE000030CD000030CC003A
:1004F8000030CB00080001302100A135A20DA30D6A
:10050800A40D890B802A0130A50221002508031DAE
:100518007F2A200803199B2AA109A209A309A40973
:10052800A10A0319A20A0319A30A0319A40A240891
:100538002000CE00210023082000CD002100220841
:100548002000CC00210021082000CB0008005730F3
:100558008600003087004030840000308500053078
:100568002000BE0016001A00BE0BB62A0430C700D1
:100578000030C800C501C6013B083C040319C4018A
:10058800BC1FD02AB401B40A2D30AB252000BB090A
:10059800BC09BB0A0319BC0A3B083C040319F92A25
:1005A8000A30AF000030B0003C08B2003B08B10090
:1005B8003E2620002F08BE004708403E86008701DF
:1005C8003E0881000A30AF000030B0003C08B2009D
:1005D8003B08B100BD2420003008BC002F08BB0038
:1005E800FF30C707FF30C83DD02A3D0A03190C2B3E
:1005F8003D08BE00BF01BE1BBF03BE09BF09BE0A3E
:100608000319BF0A3E08053EC50000303F3DC6003D
:100618004608C8004508C7004808803ABE00803030
:100628003E02031D192B053047020318080020005D
:10063800B401B40A4708403E860087010108303EED
:10064800AB2501302000C7070030C83D102B5730BC
:100658008600003087002330840000308500053094
:10066800FC0016001A00FC0B352B04302000AA00F1
:100678000030AB00A801A901200821040319A70133
:10068800A11F502BF501F50A2D3060252000A00987
:10069800A109A00A0319A10A200821040319792B2A
:1006A8000A30F0000030F1002108F3002008F200C1
:1006B80084267008FC0020002A08233E8600870153
:1006C8007C0881000A30F0000030F1002108F300B6
:1006D8002008F2000F2571082000A1007008A00072
:1006E800FF30AA07FF30AB3D502B220A03198C2B91
:1006F8002208FC00FD01FC1BFD03FC09FD09FC0AA6
:100708000319FD0A7C08053EA80000307D3DA900BC
:100718002908AB002808AA002B08803AFC00803082
:100728007C02031D992B05302A0203180800F501E5
:10073800F50A20002A08233E860087010108303E7A
:10074800602501302000AA070030AB3D902B200027
:1007580032080319B42B310830042F04031DC52BAC
:100768000030AF000030B0000030B10008000130A8
:10077800B4003408B2070130B136B00CAF0C890BA5
:10078800C02BFE3031050319DE2BBB2B0130B40022
:100798003408B2070130AF07003003180130B00742
:1007A800003003180130B1070130B136B00CAF0C7E
:1007B800890BD92BFF3031050319EB2BCA2B0130DC
:1007C800B2020130AF35B00DB10D890BE62BB01B6D
:1007D800F12B023032020318E32B3218F92BFF30C9
:1007E800AF057F30B005FF30B1050310B20C3208F9
:1007F800B400B501B6011030B435B50DB60D890B8E
:10080800002C3408AF043508B0043608B1043308A6
:1008180003190800B11708002000B3013C30AF00ED
:100828002F0821008E0420000C140E100032200026
:100838008E14003220000E08AF000230AF36890B4C
:10084800222C2F08B0003008B3003308AF00033063
:10085800AF35FF3E031D2C2C2F35B0003008B300F8
:10086800003220008E1000320032000020008E146A
:10087800003220000E08AF000230AF36890B412C41
:100888002F08B0003008B2000F30AF002F08B205B3
:1008980033083204AF002F08B30033088039AF00A3
:1008A8002F08B100003220008E1000320032000004
:1008B80020003108031D1B2C0C10C330AF002F087B
:1008C80021008E050800F4013C30F000700821007A
:1008D8008E0420000C140E10003220008E140032FA
:1008E80020000E08F0000230F036890B782C7008D2
:1008F800F1007108F4007408F0000330F035FF3E91
:10090800031D822C7035F1007108F40000322000BC
:100918008E1000320032000020008E1400322000B9
:100928000E08F0000230F036890B972C7008F100A1
:100938007108F3000F30F0007008F30574087304B1
:10094800F0007008F40074088039F0007008F200B4
:10095800003220008E100032003200007208031DA1
:10096800712C20000C10C330F000700821008E0597
:1009780008002000B501B01FC82CAF09B009AF0AA4
:100988000319B00AB501B50AB21FD32CB109B209CF
:10099800B10A0319B20A0130B3003308B506B6012B
:1009A800B7012F0830040319022DB401B40AB01B93
:1009B800E72C0130AF35B00D890BDE2C0130B300C8
:1009C8003308B407DB2C0130B635B70D890BE82C9A
:1009D80030083202031DF22C2F083102031CF92CB7
:1009E8002F08B1023008B23B36140130B036AF0CD4
:1009F800890BFA2C0130B402031DE72C35080319C2
:100A08000A2DB609B709B60A0319B70A3708B0009C
:100A18003608AF000800F601F11F192DF009F10999
:100A2800F00A0319F10AF601F60AF31F242DF20958
:100A3800F309F20A0319F30A0130F4007408F60600
:100A4800F701F801700871040319532DF501F50A2F
:100A5800F11B382D0130F035F10D890B2F2D0130A8
:100A6800F4007408F5072C2D0130F735F80D890BC3
:100A7800392D71087302031D432D70087202031C7F
:100A88004A2D7008F2027108F33B77140130F136F1
:100A9800F00C890B4B2D0130F502031D382D76081B
:100AA80003195B2DF709F809F70A0319F80A7808FA
:100AB800F1007708F0000800FA007A08F600043020
:100AC800F636890B642D7608F7007708F8007A085F
:100AD8000F39F6007608F9007508031D762D2000F9
:100AE8000E10782D20000E14003220008E14780885
:100AF800F6000230F635890B7E2D0E08C3397604D0
:100B0800F7007708FB007B088E00003200320000F7
:100B180020008E1000320032000020008E14790868
:100B2800F6000230F635890B962D0E08C339760487
:100B3800F7007708FB007B088E00003200320000C7
:100B480020008E10003200320000672408002000C8
:100B5800B9003908B5000430B536890BB02D350811
:100B6800B6003608B70039080F39B5003508B8009F
:100B78003408031DC12D0E10C22D0E1400322000A2
:100B88008E143708B5000230B535890BC82D0E080C
:100B9800C3393504B6003608BA003A088E00003268
:100BA8000032000020008E100032003200002000C9
:100BB8008E143808B5000230B535890BE02D0E08C3
:100BC800C3393504B6003608BA003A088E00003238
:100BD8000032000020008E10003200320000102485
:100BE80008002000BD00C330BC00CD30BB00BB0BEB
:100BF800FB2DBC0BFB2DC3302000BB003B082100A4
:100C08008E058E100E100C10C3302000BB003B0860
:100C18008E058E100C100E10003220008E148E15CA
:100C280000320032000020008E1000320032000036
:100C380010242000B4012830AB252000B4013D0861
:100C48000C38AB252000B4014030AB252000BE0194
:100C580008303E0203180800B401B40A3E08A93E51
:100C6800860087010108AB2501302000BB003B0846
:100C7800BE072C2E2000B501B21F492EB109B209BA
:100C8800B10A0319B20AB501B50AB01F502EAF094F
:100C9800B009AF0A0319B00A2F0830040319772ED8
:100CA800B401B40AB01B622E0130AF35B00D890B08
:100CB800592E0130B3003308B407562E30083202DB
:100CC800031D682E2F083102031C6E2E2F08B10257
:100CD8003008B23B0130B036AF0C890B6F2E0130B3
:100CE800B402031D622E350803197F2EB109B2091B
:100CF800B10A0319B20A3208B0003108AF0008007F
:100D0800F601F31F8E2EF209F309F20A0319F30A0A
:100D1800F601F60AF11F952EF009F109F00A0319F8
:100D2800F10A700871040319BC2EF501F50AF11BCC
:100D3800A72E0130F035F10D890B9E2E0130F400FD
:100D48007408F5079B2E71087302031DAD2E7008F9
:100D58007202031CB32E7008F2027108F33B0130D3
:100D6800F136F00C890BB42E0130F502031DA72EC5
:100D780076080319C42EF209F309F20A0319F30AD3
:100D88007308F1007208F000080020003B08840096
:100D98003C08850012000319080020003B08840065
:100DA8003C0885001200253A031DF72E0130BB07C9
:100DB8000030BC3D3B0884003C0885000008D03E5C
:100DC800BD003D08BE00BE1BF22E3E08803A783EAC
:100DD8000318F22EB401B40A3E08FF2E2000B40115
:100DE800B40A2530AB252000B401B40A3B088400BE
:100DF8003C0885000008AB2501302000BB07003007
:100E0800BC3DC92E02302E2720003008D6002F08FE
:100E1800D5005608B8005508B700B5272000370890
:100E2800BE003808BF003908C0003730BB00FA30B0
:100E3800BC003E30BD00592120003B08CB003C08D7
:100E4800CC003D08CD000C2220004C08D4004B08F3
:100E5800D30008002000B20008303202031C372FEC
:100E6800AF01B00108003208B100B10DB10D210089
:100E78001D08200031068339310621009D00A63067
:100E88002000B100B10B462F000021009D149D18D1
:100E98004B2F1C082000B00021001B082000AF00C9
:100EA80008002000BD0014303D0203180800652F1B
:100EB8003D17732F1430612F5430BC003C08BD0718
:100EC800732F3B08003A0319732F013A03195C2F5B
:100ED800033A03195E2F013A0319602F732FBD17C8
:100EE800B4013D08AB2508002000A0001430200202
:100EF80003180800882F2017962F1430842F543099
:100F0800FD007D08A007962F7C08003A0319962F4C
:100F1800013A03197F2F033A0319812F013A031964
:100F2800832F962FA017F501200860250800433469
:100F3800753472343A3400344D34613478343A3488
:100F480000344F344E3420340034573461343A344A
:100F5800003425343034433400344F344634463476
:100F6800003420003708AF003808B000B1018E30D7
:100F7800BA003A08B200B301AB2320002F08B7002B
:100F88003008B8003108B900080021000C1523000A
:100F98000C1521001D08833908389D00FC309E057A
:100FA8001E088F3930389E009E171D1408000C3417
:100FB800123412340C340034003400340034F03469
:100FC800F034F034F034F0340134FE0012001E0026
:100FD800FE0BEA2F00348B1521008C1423008C1093
:0E0FE800080021000C128C1223000C120800CD
:020000040001F9
:04000E0024FEFFFFCE
:00000001FF
