:02000000462890
:100008007E14803120007F08AD000B1C412827009A
:1000180093183928402801302000E0070030E13DDE
:100028006108803AAC0080302C02031D1D289730EF
:100038006002031C22282000E001E101FC01FC0A07
:100048000430682720006108A1006008A000033080
:10005800AC002C08A200142341302000AC00EE3084
:10006800890B3428AC0B3428000020008C180F288A
:10007800DD01DD0A270093100B1020002D08FF007A
:100088007E1009004728D330840087308500583017
:100098008600003087000630D927CB3084008730AF
:1000A8008500A0308600003087000830D927DE019F
:1000B800DF01E001E1017E10200062280030DE252A
:1000C800B927DF27E52720000C128C16B301013071
:1000D80094252000BA01003045278B302000BA0053
:1000E8008730BB00B2262000BA01073045279D3073
:1000F8002000BA008730BB00B2262000BA010A30BF
:10010800452799302000BA008730BB00B22620006E
:10011800BA01BA0A0030452790302000BA0087306B
:10012800BB00B2262000BA01BA0A073045279D3025
:100138002000BA008730BB00B2262000BA010D307B
:100148004527A1302000BA008730BB00B226200026
:10015800BA01BA0A0430452720006108BB006008CC
:10016800BA0003302100AC002C082000BC00942207
:100178002000BA010430452720005F08BB005E0854
:10018800BA0003302100AC002C082000BC009422E7
:10019800EF26210029082000DF0021002808200080
:1001A800DE006108803A2100AC0080302C02031D7B
:1001B800E028053020006002031C012920005F08A8
:1001C800803A2100AC0020006108803A21002C020E
:1001D800031DF128200060085E02031C012920008D
:1001E800BA010D30452795302000BA008730BB0092
:1001F800B22620000C168C12282920006008FB3E2D
:100208002100AC00FF302000613D2100AD002D0829
:10021800803AAE0020005F08803A21002E02031DBC
:10022800192920005E0821002C02031C282920001F
:10023800BA010D304527A1302000BA008730BB0035
:10024800B22620000C128C1620008C1CBD28013010
:10025800E0070030E13D6108803A2100AC008030C1
:100268002C02031D3A29973020006002031C3F2905
:100278002000E001E1012000BA01BA0A0430452754
:1002880020006108BB006008BA0003302100AC0000
:100298002C082000BC00942221302100AC007630CC
:1002A800890B5429AC0B54290000282920003A084E
:1002B800C0003B08C1003C08C2000310410D420DBC
:1002C800C3004308C4004408031D71290030BA0064
:1002D8000030BB000030BC0008003D08C0003E08EC
:1002E800C1003F08C2000310410D420DC30043087E
:1002F800C9004908031D87290030BA000030BB0037
:100308000030BC00080049087B3EC0004008C40714
:100318003A08C0003B08C1003C08C2001030C23691
:10032800C10CC00C890B93294008C3004308C900BD
:100338003D08C0003E08C1003F08C2001030C23668
:10034800C10CC00C890BA3294008C3004308C90687
:100358008030C0004008C905BB17BE17FF30BD0577
:10036800FF30BE050030BF050030C5000030C600B4
:100378000030C7000730C0004008C8003A1CCA292E
:100388003D08C5073E08C63D3F08C73D0130BC369D
:10039800BB0CBA0C890BCB290130BD35BE0DBF0D86
:1003A800890BD1290130C802031DC2290930C000B8
:1003B8004008C8003A1CE6293D08C5073E08C63D66
:1003C8003F08C73D0130BC36BB0CBA0C890BE72986
:1003D8000130C736C60CC50C890BED290130C8029F
:1003E800031DDE294508AE004608AF004708B000E7
:1003F8004408C0004008B1004908C1004108B200E3
:10040800942320002E08BA002F08BB003008BC0037
:10041800080020004A08CE004B08CF004C08D00046
:1004280003104F0D500DD1005108D7005708031D78
:10043800262A0030CD000030CC000030CB00003040
:10044800CA0008004A08CE004B08CF004C08D0006C
:100458001730D036CF0CCE0C890B2D2A4E08D10080
:100468005108D200CB17FF30CA05FF30CB0500304A
:10047800CC054A08D3004B08D4004C08D500D60157
:100488008E30D702D71F642A5708803A8F3E031848
:10049800562A0030CD000030CC000030CB000030B0
:1004A800CA0008000130D636D50CD40CD30C890B01
:1004B800572A0130CE004E08D70703197D2A562A3D
:1004C80018305702031C7A2A0030CD000030CC00C7
:1004D8000030CB000030CA0008000130D335D40DFD
:1004E800D50DD60D890B722A0130D7025708031D86
:1004F800712A520803198B2AD309D409D509D609B8
:10050800D30A0319D40A0319D50A0319D60A5608B7
:10051800CD005508CC005408CB005308CA00080089
:1005280058308600003087003F3084000030850056
:1005380005302000BD0016001A00BD0B9F2A0430AC
:10054800C6000030C700C401C5013A083B040319BE
:10055800C301BB1FB92AB301B30A2D30942520006B
:10056800BA09BB09BA0A0319BB0A3A083B040319BA
:10057800E22A0A30AE000030AF003B08B1003A086A
:10058800B000272620002E08BD0046083F3E860002
:1005980087013D0881000A30AE000030AF003B08FB
:1005A800B1003A08B000A62420002F08BB002E088E
:1005B800BA00FF30C607FF30C73DB92A3C0A031905
:1005C800F52A3C08BD00BE01BD1BBE03BD09BE091E
:1005D800BD0A0319BE0A3D08053EC40000303E3D71
:1005E800C5004508C7004408C6004708803ABD0052
:1005F80080303D02031D022B053046020318080017
:100608002000B301B30A46083F3E8600870101086F
:10061800303E942501302000C6070030C73DF92A36
:100628005830860000308700233084000030850071
:100638000530FC0016001A00FC0B1E2B04302000AD
:10064800AA000030AB00A801A90120082104031961
:10065800A701A11F392BF501F50A2D3049252000E6
:10066800A009A109A00A0319A10A20082104031955
:10067800622B0A30F0000030F1002108F300200856
:10068800F2006D267008FC0020002A08233E860030
:1006980087017C0881000A30F0000030F100210851
:1006A800F3002008F200F82471082000A100700867
:1006B800A000FF30AA07FF30AB3D392B220A0319EF
:1006C800752B2208FC00FD01FC1BFD03FC09FD093C
:1006D800FC0A0319FD0A7C08053EA80000307D3D90
:1006E800A9002908AB002808AA002B08803AFC00BA
:1006F80080307C02031D822B05302A020318080073
:10070800F501F50A20002A08233E86008701010822
:10071800303E492501302000AA070030AB3D792B37
:100728002000310803199D2B30082F042E04031DC7
:10073800AE2B0030AE000030AF000030B000080033
:100748000130B3003308B1070130B036AF0CAE0C3E
:10075800890BA92BFE3030050319C72BA42B0130B8
:10076800B3003308B1070130AE0700300318013079
:10077800AF07003003180130B0070130B036AF0CB6
:10078800AE0C890BC22BFF3030050319D42BB32BC9
:100798000130B1020130AE35AF0DB00D890BCF2B52
:1007A800AF1BDA2B023031020318CC2B3118E22BA5
:1007B800FF30AE057F30AF05FF30B0050310B10C38
:1007C8003108B300B401B5011030B335B40DB50D1F
:1007D800890BE92B3308AE043408AF043508B0049C
:1007E800320803190800B01708002000B2013C3095
:1007F800AE002E0821008E0420000C140E100032CA
:1008080020008E14003220000E08AE000230AE36F2
:10081800890B0B2C2E08AF002F08B2003208AE004F
:100828000330AE35FF3E031D152C2E35AF002F08C3
:10083800B200003220008E1000320032000020008A
:100848008E14003220000E08AE000230AE36890B3E
:100858002A2C2E08AF002F08B1000F30AE002E084A
:10086800B10532083104AE002E08B20032088039D2
:10087800AE002E08B000003220008E100032003288
:10088800000020003008031D042C0C10C330AE00FB
:100898002E0821008E050800F4013C30F000700895
:1008A80021008E0420000C140E10003220008E143B
:1008B800003220000E08F0000230F036890B612C5F
:1008C8007008F1007108F4007408F0000330F03586
:1008D800FF3E031D6B2C7035F1007108F4000032E7
:1008E80020008E1000320032000020008E140032EA
:1008F80020000E08F0000230F036890B802C7008BA
:10090800F1007108F3000F30F0007008F305740867
:100918007304F0007008F40074088039F00070085F
:10092800F200003220008E100032003200007208FF
:10093800031D5A2C20000C10C330F0007008210051
:100948008E0508002000B401AF1FB12CAE09AF0915
:10095800AE0A0319AF0AB401B40AB11FBC2CB0091E
:10096800B109B00A0319B10A0130B2003208B4065D
:10097800B501B6012E082F040319EB2CB301B30AF5
:10098800AF1BD02C0130AE35AF0D890BC72C013011
:10099800B2003208B307C42C0130B535B60D890B47
:1009A800D12C2F083102031DDB2C2E083002031C2A
:1009B800E22C2E08B0022F08B13B35140130AF36B7
:1009C800AE0C890BE32C0130B302031DD02C340884
:1009D8000319F32CB509B609B50A0319B60A36087E
:1009E800AF003508AE000800F601F11F022DF0092E
:1009F800F109F00A0319F10AF601F60AF31F0D2DA1
:100A0800F209F309F20A0319F30A0130F400740831
:100A1800F606F701F8017008710403193C2DF50179
:100A2800F50AF11B212D0130F035F10D890B182D38
:100A38000130F4007408F507152D0130F735F80D6D
:100A4800890B222D71087302031D2C2D7008720268
:100A5800031C332D7008F2027108F33B7714013040
:100A6800F136F00C890B342D0130F502031D212DD0
:100A780076080319442DF709F809F70A0319F80A43
:100A88007808F1007708F0000800FA007A08F60004
:100A98000430F636890B4D2D7608F7007708F800F4
:100AA8007A080F39F6007608F9007508031D5F2DDE
:100AB80020000E10612D20000E14003220008E142C
:100AC8007808F6000230F635890B672D0E08C33911
:100AD8007604F7007708FB007B088E0000320032AE
:100AE800000020008E1000320032000020008E141A
:100AF8007908F6000230F635890B7F2D0E08C339C8
:100B08007604F7007708FB007B088E00003200327D
:100B1800000020008E10003200320000502408002F
:100B28002000B8003808B4000430B436890B992D79
:100B38003408B5003508B60038080F39B400340851
:100B4800B7003308031DAA2D0E10AB2D0E1400326A
:100B580020008E143608B4000230B435890BB12D4C
:100B68000E08C3393404B5003508B90039088E00B9
:100B780000320032000020008E10003200320000E7
:100B880020008E143708B4000230B435890BC92D03
:100B98000E08C3393404B5003508B90039088E0089
:100BA80000320032000020008E10003200320000B7
:100BB800F92308002000BB00C3302000BA00CD3064
:100BC800890BE42DBA0BE42DC3302000BA003A0893
:100BD80021008E058E100E100C10C3302000BA00B4
:100BE8003A088E058E100C100E10003220008E145C
:100BF8008E1500320032000020008E1000320032C4
:100C08000000F9232000B301283094252000B30107
:100C18003B080C3894252000B3014030942520006F
:100C2800BC0108303C0203180800B301B30A3C08B1
:100C3800A03E860087010108942501302000BA00F3
:100C48003A08BC07152E2000B401B11F322EB00996
:100C5800B109B00A0319B10AB401B40AAF1F392E99
:100C6800AE09AF09AE0A0319AF0A2E082F040319FB
:100C7800602EB301B30AAF1B4B2E0130AE35AF0D5A
:100C8800890B422E0130B2003208B3073F2E2F08DD
:100C98003102031D512E2E083002031C572E2E0838
:100CA800B0022F08B13B0130AF36AE0C890B582E7D
:100CB8000130B302031D4B2E34080319682EB00906
:100CC800B109B00A0319B10A3108AF003008AE0003
:100CD8000800F601F31F772EF209F309F20A031947
:100CE800F30AF601F60AF11F7E2EF009F109F00A5F
:100CF8000319F10A700871040319A52EF501F50A04
:100D0800F11B902E0130F035F10D890B872E013043
:100D1800F4007408F507842E71087302031D962EDB
:100D280070087202031C9C2E7008F2027108F33BD3
:100D38000130F136F00C890B9D2E0130F502031DB0
:100D4800902E76080319AD2EF209F309F20A031959
:100D5800F30A7308F1007208F000080020003A084E
:100D680084003B08850012000319080020003A0897
:100D780084003B0885001200253A031DE02E01304F
:100D8800BA070030BB3D3A0884003B0885000008DC
:100D9800D03EBC003C08BD00BD1BDB2E3D08803AA0
:100DA800783E0318DB2EB301B30A3D08E82E200075
:100DB800B301B30A253094252000B301B30A3A08D9
:100DC80084003B0885000008942501302000BA07FC
:100DD8000030BB3DB22E0230202720002F08210012
:100DE800AB0020002E082100AA002B082000B70025
:100DF80021002A082000B600A52720003608BD00DB
:100E08003708BE003808BF003730BA00FA30BB00D8
:100E18003E30BC005A2120003A08CA003B08CB00EB
:100E28003C08CC000D2220004B082100A90020001E
:100E38004A082100A80008002000B100083031024B
:100E4800031C292FAE01AF0108003108B000B00D16
:100E5800B00D21001D08200030068339300621001E
:100E68009D00A630890B362F003221009D149D1855
:100E78003B2F1C082000AF0021001B082000AE00FB
:100E880008002000BC0014303C0203180800552F4D
:100E98003C17632F1430512F5430BB003B08BC075C
:100EA800632F3A08003A0319632F013A03194C2FAC
:100EB800033A03194E2F013A0319502F632FBC1719
:100EC800B3013C08942508002000A000143020023B
:100ED80003180800782F2017862F1430742F5430E9
:100EE800FD007D08A007862F7C08003A0319862F8D
:100EF800013A03196F2F033A0319712F013A0319A5
:100F0800732F862FA017F5012008492508004334C0
:100F1800753472343A3400344D34613478343A34A8
:100F280000344F344E3420340034573461343A346A
:100F3800003425343034433400344F344634463496
:100F4800003420003608AE003708AF00B0018E30FC
:100F5800B9003908B100B201942320002E08B60068
:100F68002F08B7003008B800080021000C1523002E
:100F78000C1521001D08833908389D00FC309E059A
:100F88001E088F3930389E009E171D1408000C3437
:100F9800123412340C340034003400340034F03489
:100FA800F034F034F034F0340134FE0012001E0046
:100FB800FE0BDA2F00348B1521008C1423008C10C3
:0E0FC800080021000C128C1223000C120800ED
:020000040001F9
:04000E0024FEFFFFCE
:00000001FF
